{"abi":[{"type":"function","name":"actionStatuses","inputs":[{"name":"","type":"uint256","internalType":"uint256"}],"outputs":[{"name":"","type":"uint8","internalType":"enum FlowAgentIntegration.ActionStatus"}],"stateMutability":"view"},{"type":"function","name":"actions","inputs":[{"name":"","type":"uint256","internalType":"uint256"}],"outputs":[{"name":"actionId","type":"uint256","internalType":"uint256"},{"name":"agentId","type":"uint256","internalType":"uint256"},{"name":"actionType","type":"uint8","internalType":"enum FlowAgentIntegration.ActionType"},{"name":"target","type":"address","internalType":"address"},{"name":"amount","type":"uint256","internalType":"uint256"},{"name":"token","type":"address","internalType":"address"},{"name":"description","type":"string","internalType":"string"},{"name":"isApproved","type":"bool","internalType":"bool"},{"name":"isExecuted","type":"bool","internalType":"bool"},{"name":"createdAt","type":"uint256","internalType":"uint256"},{"name":"approvedAt","type":"uint256","internalType":"uint256"},{"name":"executedAt","type":"uint256","internalType":"uint256"}],"stateMutability":"view"},{"type":"function","name":"agentRegistry","inputs":[],"outputs":[{"name":"","type":"address","internalType":"address"}],"stateMutability":"view"},{"type":"function","name":"approveAgentAction","inputs":[{"name":"actionId","type":"uint256","internalType":"uint256"}],"outputs":[],"stateMutability":"nonpayable"},{"type":"function","name":"canAgentPerformAction","inputs":[{"name":"agentId","type":"uint256","internalType":"uint256"},{"name":"actionType","type":"uint8","internalType":"enum FlowAgentIntegration.ActionType"},{"name":"amount","type":"uint256","internalType":"uint256"}],"outputs":[{"name":"canPerform","type":"bool","internalType":"bool"},{"name":"reason","type":"string","internalType":"string"}],"stateMutability":"pure"},{"type":"function","name":"emergencyCancelAction","inputs":[{"name":"actionId","type":"uint256","internalType":"uint256"}],"outputs":[],"stateMutability":"nonpayable"},{"type":"function","name":"executeAgentAction","inputs":[{"name":"actionId","type":"uint256","internalType":"uint256"}],"outputs":[],"stateMutability":"nonpayable"},{"type":"function","name":"getActionDetails","inputs":[{"name":"actionId","type":"uint256","internalType":"uint256"}],"outputs":[{"name":"action","type":"tuple","internalType":"struct FlowAgentIntegration.AgentAction","components":[{"name":"actionId","type":"uint256","internalType":"uint256"},{"name":"agentId","type":"uint256","internalType":"uint256"},{"name":"actionType","type":"uint8","internalType":"enum FlowAgentIntegration.ActionType"},{"name":"target","type":"address","internalType":"address"},{"name":"amount","type":"uint256","internalType":"uint256"},{"name":"token","type":"address","internalType":"address"},{"name":"description","type":"string","internalType":"string"},{"name":"isApproved","type":"bool","internalType":"bool"},{"name":"isExecuted","type":"bool","internalType":"bool"},{"name":"createdAt","type":"uint256","internalType":"uint256"},{"name":"approvedAt","type":"uint256","internalType":"uint256"},{"name":"executedAt","type":"uint256","internalType":"uint256"}]},{"name":"status","type":"uint8","internalType":"enum FlowAgentIntegration.ActionStatus"}],"stateMutability":"view"},{"type":"function","name":"multiSigWallet","inputs":[],"outputs":[{"name":"","type":"address","internalType":"address"}],"stateMutability":"view"},{"type":"function","name":"rejectAgentAction","inputs":[{"name":"actionId","type":"uint256","internalType":"uint256"}],"outputs":[],"stateMutability":"nonpayable"},{"type":"function","name":"requestAgentAction","inputs":[{"name":"agentId","type":"uint256","internalType":"uint256"},{"name":"actionType","type":"uint8","internalType":"enum FlowAgentIntegration.ActionType"},{"name":"target","type":"address","internalType":"address"},{"name":"amount","type":"uint256","internalType":"uint256"},{"name":"token","type":"address","internalType":"address"},{"name":"description","type":"string","internalType":"string"}],"outputs":[{"name":"","type":"uint256","internalType":"uint256"}],"stateMutability":"nonpayable"},{"type":"event","name":"AgentActionApproved","inputs":[{"name":"actionId","type":"uint256","indexed":true,"internalType":"uint256"},{"name":"agentId","type":"uint256","indexed":true,"internalType":"uint256"},{"name":"approver","type":"address","indexed":true,"internalType":"address"}],"anonymous":false},{"type":"event","name":"AgentActionExecuted","inputs":[{"name":"actionId","type":"uint256","indexed":true,"internalType":"uint256"},{"name":"agentId","type":"uint256","indexed":true,"internalType":"uint256"},{"name":"actionType","type":"uint8","indexed":false,"internalType":"enum FlowAgentIntegration.ActionType"},{"name":"success","type":"bool","indexed":false,"internalType":"bool"}],"anonymous":false},{"type":"event","name":"AgentActionRejected","inputs":[{"name":"actionId","type":"uint256","indexed":true,"internalType":"uint256"},{"name":"agentId","type":"uint256","indexed":true,"internalType":"uint256"},{"name":"rejector","type":"address","indexed":true,"internalType":"address"}],"anonymous":false},{"type":"event","name":"AgentActionRequested","inputs":[{"name":"actionId","type":"uint256","indexed":true,"internalType":"uint256"},{"name":"agentId","type":"uint256","indexed":true,"internalType":"uint256"},{"name":"actionType","type":"uint8","indexed":false,"internalType":"enum FlowAgentIntegration.ActionType"},{"name":"target","type":"address","indexed":false,"internalType":"address"},{"name":"amount","type":"uint256","indexed":false,"internalType":"uint256"},{"name":"description","type":"string","indexed":false,"internalType":"string"}],"anonymous":false}],"bytecode":{"object":"0x60808060405234601557611057908161001a8239f35b5f80fdfe60806040526004361015610011575f80fd5b5f3560e01c806307c822e714610b5b5780630d1cfcae14610b335780631cf411d61461097a5780632b131400146100e65780634102caa0146104355780634b8feb4f1461040d57806383240f831461032a578063c3e4bec3146102f4578063cb7c6da614610104578063d460209a146100e65763e0bf284914610092575f80fd5b346100e25760603660031901126100e25760243560058110156100e2576100bf9060443590600435610ed8565b906100de60405192839215158352604060208401526040830190610da0565b0390f35b5f80fd5b346100e25760203660031901126100e257610102600435610e45565b005b346100e25760203660031901126100e25760606004355f61016060405161012a81610ca3565b82815282602082015282604082015282858201528260808201528260a08201528460c08201528260e08201528261010082015282610120820152826101408201520152610178811515610dc4565b805f52600160205260405f2060405161019081610ca3565b815481526001820154926020820193845260028301549260ff841660408401906101b981610d82565b81528684019460018060a01b039060081c1685526003820154608085019081526102ba60018060a01b0360048501541660a087019081526101fc60058601610ce2565b9060c0880191825260068601549360e089019960ff861615158b5260ff6101008b019660081c16151586526007880154966101208b01978852600960088a0154996101408d019a8b520154996101608c019a8b525f52600260205260ff60405f2054169a6040519e8f9e8f9260408452516040840152519101525161028081610d82565b60808d0152516001600160a01b0390811660a08d0152905160c08c015290511660e08a0152516101806101008a01526101c0890190610da0565b955115156101208801525115156101408701525161016086015251610180850152516101a08401526102eb81610d82565b60208301520390f35b346100e25760203660031901126100e2576004355f526002602052602060ff60405f2054166040519061032681610d82565b8152f35b346100e25760203660031901126100e2576004355f52600160205260405f20805460018201549160028101549060ff82169060038101549260ff6103e060018060a01b0360048501541661038060058601610ce2565b9060068601549760078701549560096008890154980154986040519c8d9c8d5260208d01526103ae81610d82565b60408c015260081c6001600160a01b031660608b015260808a015260a089015261018060c08901819052880190610da0565b94818116151560e088015260081c1615156101008601526101208501526101408401526101608301520390f35b346100e2575f3660031901126100e2576004546040516001600160a01b039091168152602090f35b346100e25760c03660031901126100e257600560243510156100e2576044356001600160a01b03811681036100e2576084356001600160a01b03811691908290036100e25760a4359067ffffffffffffffff82116100e257366023830112156100e25767ffffffffffffffff8260040135116100e2573660248360040135840101116100e25760043515610942576001600160a01b0381161561090457606435156108bf57816004013515610883575f54915f19831461086f57600183015f556040519361050285610ca3565b600184018552602085019060043582526040860190610522602435610d82565b60243582526001600160a01b038516606088019081526064356080890190815260a089019283526040519390916105676004880135601f01601f191660200186610cc0565b60048701358086526024880160208701375f602088600401358701015260c08a019485525f60e08b01525f6101008b0152426101208b01525f6101408b01525f6101608b0152600189015f52600160205260405f20958a518755516001870155600286019151906105d782610d82565b6105e082610d82565b60ff835491610100600160a81b03905160081b169216906affffffffffffffffffffff60a81b1617179055516003840155600483019060018060a01b039051166bffffffffffffffffffffffff60a01b8254161790555194855167ffffffffffffffff811161085b576106566005840154610c6b565b96601f8811610813575b602097508790601f83116001146107a357918060099492610160945f92610798575b50508160011b915f199060031b1c19161760058501555b6006840160e0820151151560ff80198354169116178155610100820151151561ff0082549160081b169061ff001916179055610120810151600785015561014081015160088501550151910155600183015f526002845260405f2060ff1981541690556040519161070b602435610d82565b602435835260018060a01b0316848301526064356040830152608060608301528060040135608083015280600401356024820160a08401375f60a08260040135840101527f64b0d81f9f871a22b07a4b11c0627f8bcc785c800e490eacabeb1c6a102232656004359260a0816001870194601f8019916004013501168101030190a3600160405191018152f35b015190508a80610682565b90600585015f52805f20915f5b601f19851681106107fc575092600994926001926101609583601f198116106107e4575b505050811b016005850155610699565b01515f1960f88460031b161c191690558a80806107d4565b91928a6001819286850151815501940192016107b0565b600584015f5260205f20601f830160051c81019860208410610851575b601f0160051c01975b8881106108465750610660565b5f8155600101610839565b9098508890610830565b634e487b7160e01b5f52604160045260245ffd5b634e487b7160e01b5f52601160045260245ffd5b60405162461bcd60e51b815260206004820152601460248201527311195cd8dc9a5c1d1a5bdb881c995c5d5a5c995960621b6044820152606490fd5b60405162461bcd60e51b815260206004820152601d60248201527f416d6f756e74206d7573742062652067726561746572207468616e20300000006044820152606490fd5b60405162461bcd60e51b8152602060048201526016602482015275496e76616c696420746172676574206164647265737360501b6044820152606490fd5b60405162461bcd60e51b815260206004820152601060248201526f125b9d985b1a59081859d95b9d08125160821b6044820152606490fd5b346100e25760203660031901126100e25760043580151580610b1d575b6109a090610dc4565b805f52600160205260405f2090805f526002602052600160ff60405f2054166109c881610d82565b03610ae25760068201805460ff8160081c16610a9d57600884015462015180810180911161086f574211610a67576101009061ff001916179055426009830155805f52600260205260405f20600260ff198254161790557f55207f3edd8887d05ea3b006d26935d0c2bed375aef8c339100da4bcacc2bc90604060ff6002600186015495015416815190610a5b81610d82565b815260016020820152a3005b60405162461bcd60e51b815260206004820152600e60248201526d1058dd1a5bdb88195e1c1a5c995960921b6044820152606490fd5b60405162461bcd60e51b815260206004820152601760248201527f416374696f6e20616c72656164792065786563757465640000000000000000006044820152606490fd5b60405162461bcd60e51b81526020600482015260136024820152721058dd1a5bdb881b9bdd08185c1c1c9bdd9959606a1b6044820152606490fd5b505f818152600160205260409020541515610997565b346100e2575f3660031901126100e2576003546040516001600160a01b039091168152602090f35b346100e25760203660031901126100e25760043580151580610c55575b610b8190610dc4565b805f52600160205260405f20815f526002602052610baf60ff60405f205416610ba981610d82565b15610e04565b600681019081549160ff8316610c10576001809360ff1916179055426008820155825f52600260205260405f208260ff19825416179055015433917ffb13a5ab68c5892580507dd24cf1e42a48da6df0a54cc03b0c97c37d039a45cd5f80a4005b60405162461bcd60e51b815260206004820152601760248201527f416374696f6e20616c726561647920617070726f7665640000000000000000006044820152606490fd5b505f818152600160205260409020541515610b78565b90600182811c92168015610c99575b6020831014610c8557565b634e487b7160e01b5f52602260045260245ffd5b91607f1691610c7a565b610180810190811067ffffffffffffffff82111761085b57604052565b90601f8019910116810190811067ffffffffffffffff82111761085b57604052565b9060405191825f825492610cf584610c6b565b8084529360018116908115610d605750600114610d1c575b50610d1a92500383610cc0565b565b90505f9291925260205f20905f915b818310610d44575050906020610d1a928201015f610d0d565b6020919350806001915483858901015201910190918492610d2b565b905060209250610d1a94915060ff191682840152151560051b8201015f610d0d565b60051115610d8c57565b634e487b7160e01b5f52602160045260245ffd5b805180835260209291819084018484015e5f828201840152601f01601f1916010190565b15610dcb57565b60405162461bcd60e51b8152602060048201526011602482015270125b9d985b1a59081858dd1a5bdb881251607a1b6044820152606490fd5b15610e0b57565b60405162461bcd60e51b8152602060048201526012602482015271416374696f6e206e6f742070656e64696e6760701b6044820152606490fd5b80151580610ec2575b610e5790610dc4565b805f526001602052600160405f20825f526002602052610e8160ff60405f205416610ba981610d82565b825f52600260205260405f20600360ff19825416179055015433917fed9b5c22463a2a8652caa1d23be6212231c449f6152e5bc791b2460c26fd36685f80a4565b505f818152600160205260409020541515610e4e565b91909115610fef5715610fb157610eee81610d82565b60018114610f7357600290610f0281610d82565b14610f3657600190604051610f18604082610cc0565b600e81526d1058dd1a5bdb88185b1b1bddd95960921b602082015290565b5f90604051610f46604082610cc0565b602081527f4167656e74206e6f7420617574686f72697a656420666f72207374616b696e67602082015290565b505f90604051610f84604082610cc0565b601e81527f4167656e74206e6f7420617574686f72697a656420666f722073776170730000602082015290565b505f90604051610fc2604082610cc0565b601d81527f416d6f756e74206d7573742062652067726561746572207468616e2030000000602082015290565b50505f90604051611001604082610cc0565b601081526f125b9d985b1a59081859d95b9d08125160821b60208201529056fea2646970667358221220a2d123cebee0260089d781fcbee92e6af8f76405dee4d3e6281d9a5c93e431be64736f6c634300081e0033","linkReferences":{}},"methodIdentifiers":{"actionStatuses(uint256)":"c3e4bec3","actions(uint256)":"83240f83","agentRegistry()":"0d1cfcae","approveAgentAction(uint256)":"07c822e7","canAgentPerformAction(uint256,uint8,uint256)":"e0bf2849","emergencyCancelAction(uint256)":"d460209a","executeAgentAction(uint256)":"1cf411d6","getActionDetails(uint256)":"cb7c6da6","multiSigWallet()":"4b8feb4f","rejectAgentAction(uint256)":"2b131400","requestAgentAction(uint256,uint8,address,uint256,address,string)":"4102caa0"},"id":37}