{"abi":[{"type":"constructor","inputs":[],"stateMutability":"nonpayable"},{"type":"function","name":"addAuthorizedIssuer","inputs":[{"name":"issuer","type":"address","internalType":"address"}],"outputs":[],"stateMutability":"nonpayable"},{"type":"function","name":"addCommunityRating","inputs":[{"name":"credentialId","type":"uint256","internalType":"uint256"},{"name":"rating","type":"uint256","internalType":"uint256"}],"outputs":[],"stateMutability":"nonpayable"},{"type":"function","name":"authorizedIssuers","inputs":[{"name":"","type":"address","internalType":"address"}],"outputs":[{"name":"","type":"bool","internalType":"bool"}],"stateMutability":"view"},{"type":"function","name":"credentials","inputs":[{"name":"","type":"uint256","internalType":"uint256"}],"outputs":[{"name":"id","type":"uint256","internalType":"uint256"},{"name":"name","type":"string","internalType":"string"},{"name":"issuer","type":"address","internalType":"address"},{"name":"credentialType","type":"uint8","internalType":"enum FlowCredentials.CredentialType"},{"name":"status","type":"uint8","internalType":"enum FlowCredentials.CredentialStatus"},{"name":"issuedDate","type":"uint256","internalType":"uint256"},{"name":"expiryDate","type":"uint256","internalType":"uint256"},{"name":"score","type":"uint256","internalType":"uint256"},{"name":"description","type":"string","internalType":"string"},{"name":"icon","type":"string","internalType":"string"},{"name":"verified","type":"bool","internalType":"bool"},{"name":"recipient","type":"address","internalType":"address"},{"name":"metadata","type":"string","internalType":"string"},{"name":"communityRating","type":"uint256","internalType":"uint256"},{"name":"reviewCount","type":"uint256","internalType":"uint256"}],"stateMutability":"view"},{"type":"function","name":"getActiveCredentials","inputs":[{"name":"user","type":"address","internalType":"address"}],"outputs":[{"name":"","type":"uint256[]","internalType":"uint256[]"}],"stateMutability":"view"},{"type":"function","name":"getCredential","inputs":[{"name":"credentialId","type":"uint256","internalType":"uint256"}],"outputs":[{"name":"","type":"tuple","internalType":"struct FlowCredentials.Credential","components":[{"name":"id","type":"uint256","internalType":"uint256"},{"name":"name","type":"string","internalType":"string"},{"name":"issuer","type":"address","internalType":"address"},{"name":"credentialType","type":"uint8","internalType":"enum FlowCredentials.CredentialType"},{"name":"status","type":"uint8","internalType":"enum FlowCredentials.CredentialStatus"},{"name":"issuedDate","type":"uint256","internalType":"uint256"},{"name":"expiryDate","type":"uint256","internalType":"uint256"},{"name":"score","type":"uint256","internalType":"uint256"},{"name":"description","type":"string","internalType":"string"},{"name":"icon","type":"string","internalType":"string"},{"name":"verified","type":"bool","internalType":"bool"},{"name":"recipient","type":"address","internalType":"address"},{"name":"metadata","type":"string","internalType":"string"},{"name":"communityRating","type":"uint256","internalType":"uint256"},{"name":"reviewCount","type":"uint256","internalType":"uint256"}]}],"stateMutability":"view"},{"type":"function","name":"getIssuerCredentials","inputs":[{"name":"issuer","type":"address","internalType":"address"}],"outputs":[{"name":"","type":"uint256[]","internalType":"uint256[]"}],"stateMutability":"view"},{"type":"function","name":"getReputationScore","inputs":[{"name":"user","type":"address","internalType":"address"},{"name":"category","type":"string","internalType":"string"}],"outputs":[{"name":"","type":"tuple","internalType":"struct FlowCredentials.ReputationScore","components":[{"name":"category","type":"string","internalType":"string"},{"name":"score","type":"uint256","internalType":"uint256"},{"name":"maxScore","type":"uint256","internalType":"uint256"},{"name":"trend","type":"uint8","internalType":"enum FlowCredentials.ReputationTrend"},{"name":"lastUpdated","type":"uint256","internalType":"uint256"}]}],"stateMutability":"view"},{"type":"function","name":"getTotalCredentials","inputs":[],"outputs":[{"name":"","type":"uint256","internalType":"uint256"}],"stateMutability":"view"},{"type":"function","name":"getUserCredentials","inputs":[{"name":"user","type":"address","internalType":"address"}],"outputs":[{"name":"","type":"uint256[]","internalType":"uint256[]"}],"stateMutability":"view"},{"type":"function","name":"isCredentialExpired","inputs":[{"name":"credentialId","type":"uint256","internalType":"uint256"}],"outputs":[{"name":"","type":"bool","internalType":"bool"}],"stateMutability":"view"},{"type":"function","name":"issueCredential","inputs":[{"name":"recipient","type":"address","internalType":"address"},{"name":"name","type":"string","internalType":"string"},{"name":"description","type":"string","internalType":"string"},{"name":"credentialType","type":"uint8","internalType":"enum FlowCredentials.CredentialType"},{"name":"score","type":"uint256","internalType":"uint256"},{"name":"icon","type":"string","internalType":"string"},{"name":"expiryDate","type":"uint256","internalType":"uint256"},{"name":"metadata","type":"string","internalType":"string"}],"outputs":[{"name":"","type":"uint256","internalType":"uint256"}],"stateMutability":"nonpayable"},{"type":"function","name":"issuerCredentials","inputs":[{"name":"","type":"address","internalType":"address"},{"name":"","type":"uint256","internalType":"uint256"}],"outputs":[{"name":"","type":"uint256","internalType":"uint256"}],"stateMutability":"view"},{"type":"function","name":"owner","inputs":[],"outputs":[{"name":"","type":"address","internalType":"address"}],"stateMutability":"view"},{"type":"function","name":"removeAuthorizedIssuer","inputs":[{"name":"issuer","type":"address","internalType":"address"}],"outputs":[],"stateMutability":"nonpayable"},{"type":"function","name":"renounceOwnership","inputs":[],"outputs":[],"stateMutability":"nonpayable"},{"type":"function","name":"reputationScores","inputs":[{"name":"","type":"address","internalType":"address"},{"name":"","type":"string","internalType":"string"}],"outputs":[{"name":"category","type":"string","internalType":"string"},{"name":"score","type":"uint256","internalType":"uint256"},{"name":"maxScore","type":"uint256","internalType":"uint256"},{"name":"trend","type":"uint8","internalType":"enum FlowCredentials.ReputationTrend"},{"name":"lastUpdated","type":"uint256","internalType":"uint256"}],"stateMutability":"view"},{"type":"function","name":"revokeCredential","inputs":[{"name":"credentialId","type":"uint256","internalType":"uint256"}],"outputs":[],"stateMutability":"nonpayable"},{"type":"function","name":"transferOwnership","inputs":[{"name":"newOwner","type":"address","internalType":"address"}],"outputs":[],"stateMutability":"nonpayable"},{"type":"function","name":"updateCredentialStatus","inputs":[{"name":"credentialId","type":"uint256","internalType":"uint256"},{"name":"newStatus","type":"uint8","internalType":"enum FlowCredentials.CredentialStatus"}],"outputs":[],"stateMutability":"nonpayable"},{"type":"function","name":"updateCredentialVerification","inputs":[{"name":"credentialId","type":"uint256","internalType":"uint256"},{"name":"verified","type":"bool","internalType":"bool"}],"outputs":[],"stateMutability":"nonpayable"},{"type":"function","name":"updateReputationScore","inputs":[{"name":"user","type":"address","internalType":"address"},{"name":"category","type":"string","internalType":"string"},{"name":"newScore","type":"uint256","internalType":"uint256"},{"name":"trend","type":"uint8","internalType":"enum FlowCredentials.ReputationTrend"}],"outputs":[],"stateMutability":"nonpayable"},{"type":"function","name":"userCredentials","inputs":[{"name":"","type":"address","internalType":"address"},{"name":"","type":"uint256","internalType":"uint256"}],"outputs":[{"name":"","type":"uint256","internalType":"uint256"}],"stateMutability":"view"},{"type":"function","name":"verificationRequirements","inputs":[{"name":"","type":"uint8","internalType":"enum FlowCredentials.CredentialType"}],"outputs":[{"name":"","type":"uint256","internalType":"uint256"}],"stateMutability":"view"},{"type":"event","name":"CommunityRatingUpdated","inputs":[{"name":"credentialId","type":"uint256","indexed":true,"internalType":"uint256"},{"name":"rating","type":"uint256","indexed":false,"internalType":"uint256"},{"name":"reviewCount","type":"uint256","indexed":false,"internalType":"uint256"}],"anonymous":false},{"type":"event","name":"CredentialIssued","inputs":[{"name":"credentialId","type":"uint256","indexed":true,"internalType":"uint256"},{"name":"recipient","type":"address","indexed":true,"internalType":"address"},{"name":"name","type":"string","indexed":false,"internalType":"string"},{"name":"issuer","type":"address","indexed":true,"internalType":"address"}],"anonymous":false},{"type":"event","name":"CredentialRevoked","inputs":[{"name":"credentialId","type":"uint256","indexed":true,"internalType":"uint256"},{"name":"issuer","type":"address","indexed":true,"internalType":"address"}],"anonymous":false},{"type":"event","name":"CredentialVerified","inputs":[{"name":"credentialId","type":"uint256","indexed":true,"internalType":"uint256"},{"name":"verified","type":"bool","indexed":false,"internalType":"bool"}],"anonymous":false},{"type":"event","name":"OwnershipTransferred","inputs":[{"name":"previousOwner","type":"address","indexed":true,"internalType":"address"},{"name":"newOwner","type":"address","indexed":true,"internalType":"address"}],"anonymous":false},{"type":"event","name":"ReputationUpdated","inputs":[{"name":"user","type":"address","indexed":true,"internalType":"address"},{"name":"category","type":"string","indexed":false,"internalType":"string"},{"name":"newScore","type":"uint256","indexed":false,"internalType":"uint256"}],"anonymous":false},{"type":"error","name":"OwnableInvalidOwner","inputs":[{"name":"owner","type":"address","internalType":"address"}]},{"type":"error","name":"OwnableUnauthorizedAccount","inputs":[{"name":"account","type":"address","internalType":"address"}]},{"type":"error","name":"ReentrancyGuardReentrantCall","inputs":[]}],"bytecode":{"object":"0x6080604052346101a4573315610191575f8054336001600160a01b0319821681178355916001600160a01b03909116907f8be0079c531659141344cd1fd0a4f28419497f9722a3daafe3b4186f6b6457e09080a3600180805560086020527f5eff886ea0ce6ca488a3d6e336d6c0f75f46d19b42c06ce5ee98e42c96d256c781905560027fad67d757c34507f157cacfa2e3153e9f260a2244f30428821be7be64587ac55f81905560037f6add646517a5b0f6793cd5891b7937d28a5b2981a5d88ebc7cd776088fea90418190557f625b35f5e76f098dd7c3a05b10e2e5e78a4a01228d60c3b143426cdf36d264558390557f9321edea6e3be4df59a344b401fab4f888b556fda1f954244cff9204bad624b88390557f91238f30f286c9a1c6e901c4eda3b214c381c846e3dbe48df95c21488e8e1fdb919091557f13acf3fc7bed94759963f076d5d3443d88732026bffc8253bdf4a6e65f21ecc55560075f527f24cd397636bedc6cf9b490d0edd57c769c19b367fb7d5c2344ae1ddc7d21c14455604051611ef490816101a98239f35b631e4fbdf760e01b5f525f60045260245ffd5b5f80fdfe60806040526004361015610011575f80fd5b5f3560e01c80631abac44b14611a5b5780631b87278d14611998578063229e8e6b1461196557806322d2fa63146118d557806355b1a35514611771578063635383a91461169d5780636bce3d6a14611453578063715018a6146113fc57806378f79c80146113b85780638da5cb5b146113915780638dd18d2d146110ff5780638f7ea5cc14610fd757806392cf725314610eb85780639364ace914610e605780639c2b1d2114610dd8578063b7ede92d14610d80578063c76d291914610d0e578063d8202ffb14610c8c578063e0574e3f14610b3e578063f1470a3514610b21578063f2fde38b14610a9c578063f412c833146101a3578063f55294c9146101625763f731fa0f14610121575f80fd5b3461015e57602036600319011261015e576001600160a01b03610142611aa4565b165f526007602052602060ff60405f2054166040519015158152f35b5f80fd5b3461015e57602036600319011261015e5761017b611aa4565b610183611e98565b6001600160a01b03165f908152600760205260409020805460ff19169055005b3461015e5761010036600319011261015e576101bd611aa4565b6024356001600160401b03811161015e576101dc903690600401611cc2565b6044929192356001600160401b03811161015e576101fe903690600401611cc2565b9060643590600882101561015e576084359460a4356001600160401b03811161015e5761022f903690600401611cc2565b929060c4359360e4356001600160401b03811161015e57610254903690600401611cc2565b939094335f52600760205260ff60405f20541615610a5f576001600160a01b0316978815610a265789156109f15780156109b55761029560648c1115611de4565b861580156109ac575b15610971576002546102af90611dd6565b9a8b600255604051976102c189611b37565b8c89528d8c36906102d192611b74565b60208a019081523360408b0152996102ec9060608b01611e53565b608089015f90524260a08a015260c089015260e0880152369061030e92611b74565b610100860152369061031f92611b74565b61012084015261014083016001905284610160840152369061034092611b74565b6101808201526101a081015f90526101c081015f9052845f52600360205260405f209181518355518051906001600160401b0382116107055781906103886001860154611bb9565b601f8111610921575b50602090601f83116001146108b4575f926108a9575b50508160011b915f199060031b1c19161760018301555b6002820160018060a01b036040830151166bffffffffffffffffffffffff60a01b8254161781556060820151600881101561089557815460ff60a01b191660a09190911b60ff60a01b16178155608082015160058110156108955761042291611d09565b60a0810151600383015560c0810151600483015560e08101516005830155600682016101008201518051906001600160401b0382116107055781906104678454611bb9565b601f8111610845575b50602090601f83116001146107e2575f926107d7575b50508160011b915f199060031b1c19161790555b600782016101208201518051906001600160401b0382116107055781906104c18454611bb9565b601f8111610787575b50602090601f8311600114610724575f92610719575b50508160011b915f199060031b1c19161790555b600882016105156101408301511515829060ff801983541691151516179055565b6101608201518154610100600160a81b03191660089190911b610100600160a81b0316179055610180810151805160098401916001600160401b038211610705576105608354611bb9565b601f81116106c0575b509160209893918895938a90601f831160011461062e5793610618959383600b946101c0947f143d1f14efb90f6863070e4b3c24a505a2d2714e6a4214b45c4df9f2a372e31a9a985f92610623575b50508160011b915f199060031b1c19161790555b6101a0810151600a8501550151910155845f52600488526105f08460405f20611e5f565b335f52600588526106048460405f20611e5f565b60405191829189835233978a840191611e33565b0390a4604051908152f35b015190508f806105b8565b90601f19831691845f52815f20925f5b8181106106a65750846101c0947f143d1f14efb90f6863070e4b3c24a505a2d2714e6a4214b45c4df9f2a372e31a9a98946106189a9894600b986001951061068e575b505050811b0190556105cc565b01515f1960f88460031b161c191690558f8080610681565b8284015185558d9a50600190940193928e01928e0161063e565b835f5260205f20601f840160051c810191602085106106fb575b601f0160051c01905b8181106106f05750610569565b5f81556001016106e3565b90915081906106da565b634e487b7160e01b5f52604160045260245ffd5b0151905089806104e0565b5f8581528281209350601f198516905b81811061076f5750908460019594939210610757575b505050811b0190556104f4565b01515f1960f88460031b161c1916905589808061074a565b92936020600181928786015181550195019301610734565b909150835f5260205f20601f840160051c810191602085106107cd575b90601f859493920160051c01905b8181106107bf57506104ca565b5f81558493506001016107b2565b90915081906107a4565b015190508980610486565b5f8581528281209350601f198516905b81811061082d5750908460019594939210610815575b505050811b01905561049a565b01515f1960f88460031b161c19169055898080610808565b929360206001819287860151815501950193016107f2565b909150835f5260205f20601f840160051c8101916020851061088b575b90601f859493920160051c01905b81811061087d5750610470565b5f8155849350600101610870565b9091508190610862565b634e487b7160e01b5f52602160045260245ffd5b0151905088806103a7565b9250600185015f52805f20905f935b601f1984168510610906576001945083601f198116106108ee575b505050811b0160018301556103be565b01515f1960f88460031b161c191690558880806108de565b818101518355602094850194600190930192909101906108c3565b909150600185015f5260205f20601f840160051c81016020851061096a575b90849392915b601f830160051c8201811061095c575050610391565b5f8155859450600101610946565b5080610940565b60405162461bcd60e51b8152602060048201526013602482015272496e76616c696420657870697279206461746560681b6044820152606490fd5b5042871161029e565b60405162461bcd60e51b815260206004820152601460248201527311195cd8dc9a5c1d1a5bdb881c995c5d5a5c995960621b6044820152606490fd5b60405162461bcd60e51b815260206004820152600d60248201526c13985b59481c995c5d5a5c9959609a1b6044820152606490fd5b60405162461bcd60e51b8152602060048201526011602482015270125b9d985b1a59081c9958da5c1a595b9d607a1b6044820152606490fd5b60405162461bcd60e51b81526020600482015260156024820152742737ba1030baba3437b934bd32b21034b9b9bab2b960591b6044820152606490fd5b3461015e57602036600319011261015e57610ab5611aa4565b610abd611e98565b6001600160a01b03168015610b0e575f80546001600160a01b03198116831782556001600160a01b0316907f8be0079c531659141344cd1fd0a4f28419497f9722a3daafe3b4186f6b6457e09080a3005b631e4fbdf760e01b5f525f60045260245ffd5b3461015e575f36600319011261015e576020600254604051908152f35b3461015e57602036600319011261015e576004355f52600360205260405f20805460018201610b6c90611bf1565b91600281015460038201549060048301549060058401549060068501610b9190611bf1565b610b9d60078701611bf1565b9160088701549360098801610bb190611bf1565b95600a89015498600b0154976040519b8c9b8c5260208c016101e090526101e08c01610bdc91611c91565b6001600160a01b03851660408d015293610c0060608d0160ff60a084901c16611cef565b60808c019060a81c60ff1690610c1591611cfc565b60a08b015260c08a015260e0890152878103610100890152610c3691611c91565b868103610120880152610c4891611c91565b60ff8216151561014087015260089190911c6001600160a01b0316610160860152848103610180860152610c7b91611c91565b916101a08401526101c08301520390f35b3461015e57602036600319011261015e576001600160a01b03610cad611aa4565b165f52600560205260405f206040519081602082549182815201915f5260205f20905f5b818110610cf857610cf485610ce881870382611b53565b60405191829182611ae3565b0390f35b8254845260209093019260019283019201610cd1565b3461015e57602036600319011261015e576001600160a01b03610d2f611aa4565b165f52600460205260405f206040519081602082549182815201915f5260205f20905f5b818110610d6a57610cf485610ce881870382611b53565b8254845260209093019260019283019201610d53565b3461015e57604036600319011261015e57600435602435600581101561015e57610dd691610dac611e98565b805f526003602052610dc360405f20541515611d2d565b5f526003602052600260405f2001611d09565b005b3461015e57602036600319011261015e57610df1611aa4565b610df9611e98565b6001600160a01b03168015610e22575f908152600760205260409020805460ff19166001179055005b60405162461bcd60e51b8152602060048201526016602482015275496e76616c696420697373756572206164647265737360501b6044820152606490fd5b3461015e57604036600319011261015e57610e79611aa4565b6001600160a01b03165f9081526004602052604090208054602435919082101561015e57602091610ea991611aba565b90549060031b1c604051908152f35b3461015e57604036600319011261015e57610ed1611aa4565b602435906001600160401b03821161015e576020610ef6610fb5933690600401611cc2565b925f6080604051610f0681611b1c565b606081528286820152826040820152826060820152015260018060a01b03165f526006825260405f2083604051948593843782019081520301902060405190610f4e82611b1c565b610f5781611bf1565b825260018101549060208301918252610fcd60028201549160408501928352600460ff60038301541691610f8f606088019384611e27565b01549260808601938452604051968796602088525160a0602089015260c0880190611c91565b94516040870152516060860152516080850190611cb5565b5160a08301520390f35b3461015e57604036600319011261015e576004356024356001811015806110f4575b156110ba57815f52600360205261101560405f20541515611d2d565b815f52600360205260405f20600a8101600b8154920192835490818402938085048314901517156110a65783018093116110a65761105290611dd6565b809355821561109257827f4ac6dd391367f36ce02d6d447e096747b0b772cb6a95fc6fd2703566805b467e936040930480925582519182526020820152a2005b634e487b7160e01b5f52601260045260245ffd5b634e487b7160e01b5f52601160045260245ffd5b60405162461bcd60e51b8152602060048201526012602482015271526174696e67206d75737420626520312d3560701b6044820152606490fd5b506005811115610ff9565b3461015e57602036600319011261015e576004355f6101c060405161112381611b37565b828152606060208201528260408201528260608201528260808201528260a08201528260c08201528260e08201526060610100820152606061012082015282610140820152826101608201526060610180820152826101a08201520152805f52600360205261119760405f20541515611d2d565b5f52600360205260405f20604051906111af82611b37565b805482526111bf60018201611bf1565b90602083019182526002810154926040810160018060a01b038516815260ff60608301956111f2828260a01c1688611e53565b60a81c166080830190600581101561089557815260038401549160a0840192835260048501549060c0850191825260058601549060e086019182526006870161123a90611bf1565b610100870190815261124e60078901611bf1565b92610120880193845260088901549461014089019760ff8716151589526101608a0196600160a01b600190039060081c16875260098b0161128e90611bf1565b976101808b01988952600a8c01549b6101a08c019c8d52600b01549a6101c081019b8c526040519e8f9e8f926020845251602084015251604083016101e0905261020083016112dc91611c91565b97516001600160a01b03166060830152516112fa9160800190611cef565b5160a08d0161130891611cfc565b5160c08c01525160e08b0152516101008a015251888203601f19016101208a01526113339190611c91565b9051878203601f190161014089015261134c9190611c91565b92511515610160870152516001600160a01b031661018086015251848203601f19016101a086015261137e9190611c91565b91516101c0840152516101e08301520390f35b3461015e575f36600319011261015e575f546040516001600160a01b039091168152602090f35b3461015e57602036600319011261015e576004355f5260036020526020600460405f20015480151590816113f2575b506040519015158152f35b90504211826113e7565b3461015e575f36600319011261015e57611414611e98565b5f80546001600160a01b0319811682556001600160a01b03167f8be0079c531659141344cd1fd0a4f28419497f9722a3daafe3b4186f6b6457e08280a3005b3461015e57608036600319011261015e5761146c611aa4565b6024356001600160401b03811161015e5761148b903690600401611cc2565b6064359190604435600384101561015e576114a4611e98565b6114b16064821115611de4565b6040516114bd81611b1c565b6114c8368486611b74565b8152602081019582875260408201606481526114e8606084019788611e27565b608083019142835260018060a01b031697885f52600660205260405f2060206040518092898b83378982019081520301902093518051906001600160401b0382116107055781906115398754611bb9565b601f811161164d575b50602090601f83116001146115ea575f926115df575b50508160011b915f199060031b1c19161784555b516001840155516002830155600382019551906003821015610895577f03fad0158a18b8e7724897436ce145a3f02a261857f2049bb4baf7297bbb14539660049260ff80198354169116179055519101556115d4604051938493604085526040850191611e33565b9060208301520390a2005b015190508b80611558565b5f8881528281209350601f198516905b818110611635575090846001959493921061161d575b505050811b01845561156c565b01515f1960f88460031b161c191690558b8080611610565b929360206001819287860151815501950193016115fa565b909150865f5260205f20601f840160051c81019160208510611693575b90601f859493920160051c01905b8181106116855750611542565b5f8155849350600101611678565b909150819061166a565b3461015e57604036600319011261015e576116b6611aa4565b602435906001600160401b03821161015e573660238301121561015e57602080916116ee611753943690602481600401359101611b74565b9060018060a01b03165f526006825260405f20604051938285935191829101845e82019081520301902061172181611bf1565b90600181015490611768600282015491600460ff6003830154169101549260405196879660a0885260a0880190611c91565b94602087015260408601526060850190611cb5565b60808301520390f35b3461015e57602036600319011261015e576001600160a01b03611792611aa4565b165f52600460205260405f20604051808260208294549384815201905f5260205f20925f5b8181106118bc5750506117cc92500382611b53565b6117d68151611d90565b905f915f5b825181101561187a576117ee8184611dc2565b51805f52600360205260405f2060ff600282015460a81c1660058110156108955715908161186b575b8161184b575b5061182c575b506001016117db565b846118449161183e6001949786611dc2565b52611dd6565b9390611823565b60040154801591508115611861575b508661181d565b905042108661185a565b600881015460ff169150611817565b508261188581611d90565b915f5b82811061189d5760405180610cf48682611ae3565b806118aa60019284611dc2565b516118b58287611dc2565b5201611888565b84548352600194850194869450602090930192016117b7565b3461015e57604036600319011261015e576004356024358015159081810361015e577f0e6a32061c6a9d5c696056c3b70b8d34949651d89be5e95e7df65310a01903829161195c602092611927611e98565b855f526003845261193d60405f20541515611d2d565b855f5260038452600860405f20019060ff801983541691151516179055565b604051908152a2005b3461015e57602036600319011261015e57600435600881101561015e575f526008602052602060405f2054604051908152f35b3461015e57602036600319011261015e576004355f818152600360205260409020600201546001600160a01b03163303611a16575f818152600360205260408120600201805460ff60a81b1916600360a81b1790553391907f936526f4a3155895d9f01699716f2e0c548d726a24a1437e5ce92b3dacaad35b9080a3005b60405162461bcd60e51b815260206004820152601960248201527f4e6f74207468652063726564656e7469616c20697373756572000000000000006044820152606490fd5b3461015e57604036600319011261015e57611a74611aa4565b6001600160a01b03165f9081526005602052604090208054602435919082101561015e57602091610ea991611aba565b600435906001600160a01b038216820361015e57565b8054821015611acf575f5260205f2001905f90565b634e487b7160e01b5f52603260045260245ffd5b60206040818301928281528451809452019201905f5b818110611b065750505090565b8251845260209384019390920191600101611af9565b60a081019081106001600160401b0382111761070557604052565b6101e081019081106001600160401b0382111761070557604052565b90601f801991011681019081106001600160401b0382111761070557604052565b9291926001600160401b0382116107055760405191611b9d601f8201601f191660200184611b53565b82948184528183011161015e578281602093845f960137010152565b90600182811c92168015611be7575b6020831014611bd357565b634e487b7160e01b5f52602260045260245ffd5b91607f1691611bc8565b9060405191825f825492611c0484611bb9565b8084529360018116908115611c6f5750600114611c2b575b50611c2992500383611b53565b565b90505f9291925260205f20905f915b818310611c53575050906020611c29928201015f611c1c565b6020919350806001915483858901015201910190918492611c3a565b905060209250611c2994915060ff191682840152151560051b8201015f611c1c565b805180835260209291819084018484015e5f828201840152601f01601f1916010190565b9060038210156108955752565b9181601f8401121561015e578235916001600160401b03831161015e576020838186019501011161015e57565b9060088210156108955752565b9060058210156108955752565b90600581101561089557815460ff60a81b191660a89190911b60ff60a81b16179055565b15611d3457565b60405162461bcd60e51b815260206004820152601960248201527f43726564656e7469616c20646f6573206e6f74206578697374000000000000006044820152606490fd5b6001600160401b0381116107055760051b60200190565b90611d9a82611d79565b611da76040519182611b53565b8281528092611db8601f1991611d79565b0190602036910137565b8051821015611acf5760209160051b010190565b5f1981146110a65760010190565b15611deb57565b60405162461bcd60e51b8152602060048201526014602482015273053636f7265206d757374206265203c3d203130360641b6044820152606490fd5b60038210156108955752565b908060209392818452848401375f828201840152601f01601f1916010190565b60088210156108955752565b80546801000000000000000081101561070557611e8191600182018155611aba565b819291549060031b91821b915f19901b1916179055565b5f546001600160a01b03163303611eab57565b63118cdaa760e01b5f523360045260245ffdfea26469706673582212205f33ceade117d62d2e1d0e636d0cf35e63b58ee539ea28ba30bc26c84e490f4364736f6c634300081e0033","linkReferences":{}},"methodIdentifiers":{"addAuthorizedIssuer(address)":"9c2b1d21","addCommunityRating(uint256,uint256)":"8f7ea5cc","authorizedIssuers(address)":"f731fa0f","credentials(uint256)":"e0574e3f","getActiveCredentials(address)":"55b1a355","getCredential(uint256)":"8dd18d2d","getIssuerCredentials(address)":"d8202ffb","getReputationScore(address,string)":"92cf7253","getTotalCredentials()":"f1470a35","getUserCredentials(address)":"c76d2919","isCredentialExpired(uint256)":"78f79c80","issueCredential(address,string,string,uint8,uint256,string,uint256,string)":"f412c833","issuerCredentials(address,uint256)":"1abac44b","owner()":"8da5cb5b","removeAuthorizedIssuer(address)":"f55294c9","renounceOwnership()":"715018a6","reputationScores(address,string)":"635383a9","revokeCredential(uint256)":"1b87278d","transferOwnership(address)":"f2fde38b","updateCredentialStatus(uint256,uint8)":"b7ede92d","updateCredentialVerification(uint256,bool)":"22d2fa63","updateReputationScore(address,string,uint256,uint8)":"6bce3d6a","userCredentials(address,uint256)":"9364ace9","verificationRequirements(uint8)":"229e8e6b"},"id":39}