{"abi":[{"type":"constructor","inputs":[],"stateMutability":"nonpayable"},{"type":"receive","stateMutability":"payable"},{"type":"function","name":"addMember","inputs":[{"name":"daoId","type":"uint256","internalType":"uint256"},{"name":"newMember","type":"address","internalType":"address"}],"outputs":[],"stateMutability":"nonpayable"},{"type":"function","name":"addTreasuryTransaction","inputs":[{"name":"proposalId","type":"uint256","internalType":"uint256"},{"name":"recipient","type":"address","internalType":"address"},{"name":"amount","type":"uint256","internalType":"uint256"},{"name":"token","type":"address","internalType":"address"},{"name":"description","type":"string","internalType":"string"}],"outputs":[],"stateMutability":"nonpayable"},{"type":"function","name":"cancelProposal","inputs":[{"name":"proposalId","type":"uint256","internalType":"uint256"}],"outputs":[],"stateMutability":"nonpayable"},{"type":"function","name":"createDAO","inputs":[{"name":"ensName","type":"string","internalType":"string"},{"name":"name","type":"string","internalType":"string"},{"name":"description","type":"string","internalType":"string"},{"name":"members","type":"address[]","internalType":"address[]"},{"name":"proposalThreshold","type":"uint256","internalType":"uint256"},{"name":"votingPeriod","type":"uint256","internalType":"uint256"},{"name":"quorum","type":"uint256","internalType":"uint256"},{"name":"daoType","type":"uint8","internalType":"enum FlowDAO.DAOType"},{"name":"governanceToken","type":"address","internalType":"address"}],"outputs":[{"name":"","type":"uint256","internalType":"uint256"}],"stateMutability":"nonpayable"},{"type":"function","name":"createProposal","inputs":[{"name":"daoId","type":"uint256","internalType":"uint256"},{"name":"title","type":"string","internalType":"string"},{"name":"description","type":"string","internalType":"string"},{"name":"proposalType","type":"uint8","internalType":"enum FlowDAO.ProposalType"}],"outputs":[{"name":"","type":"uint256","internalType":"uint256"}],"stateMutability":"nonpayable"},{"type":"function","name":"daoProposals","inputs":[{"name":"","type":"uint256","internalType":"uint256"},{"name":"","type":"uint256","internalType":"uint256"}],"outputs":[{"name":"","type":"uint256","internalType":"uint256"}],"stateMutability":"view"},{"type":"function","name":"daos","inputs":[{"name":"","type":"uint256","internalType":"uint256"}],"outputs":[{"name":"id","type":"uint256","internalType":"uint256"},{"name":"ensName","type":"string","internalType":"string"},{"name":"name","type":"string","internalType":"string"},{"name":"description","type":"string","internalType":"string"},{"name":"proposalThreshold","type":"uint256","internalType":"uint256"},{"name":"votingPeriod","type":"uint256","internalType":"uint256"},{"name":"quorum","type":"uint256","internalType":"uint256"},{"name":"treasuryBalance","type":"uint256","internalType":"uint256"},{"name":"isActive","type":"bool","internalType":"bool"},{"name":"createdAt","type":"uint256","internalType":"uint256"},{"name":"lastActivity","type":"uint256","internalType":"uint256"},{"name":"daoType","type":"uint8","internalType":"enum FlowDAO.DAOType"},{"name":"governanceToken","type":"address","internalType":"address"}],"stateMutability":"view"},{"type":"function","name":"emergencyPause","inputs":[],"outputs":[],"stateMutability":"nonpayable"},{"type":"function","name":"ensNameToDaoId","inputs":[{"name":"","type":"bytes32","internalType":"bytes32"}],"outputs":[{"name":"","type":"uint256","internalType":"uint256"}],"stateMutability":"view"},{"type":"function","name":"executeProposal","inputs":[{"name":"proposalId","type":"uint256","internalType":"uint256"}],"outputs":[],"stateMutability":"nonpayable"},{"type":"function","name":"executeTreasuryTransaction","inputs":[{"name":"proposalId","type":"uint256","internalType":"uint256"},{"name":"transactionIndex","type":"uint256","internalType":"uint256"}],"outputs":[],"stateMutability":"nonpayable"},{"type":"function","name":"getDAO","inputs":[{"name":"daoId","type":"uint256","internalType":"uint256"}],"outputs":[{"name":"","type":"tuple","internalType":"struct FlowDAO.DAO","components":[{"name":"id","type":"uint256","internalType":"uint256"},{"name":"ensName","type":"string","internalType":"string"},{"name":"name","type":"string","internalType":"string"},{"name":"description","type":"string","internalType":"string"},{"name":"members","type":"address[]","internalType":"address[]"},{"name":"proposalThreshold","type":"uint256","internalType":"uint256"},{"name":"votingPeriod","type":"uint256","internalType":"uint256"},{"name":"quorum","type":"uint256","internalType":"uint256"},{"name":"treasuryBalance","type":"uint256","internalType":"uint256"},{"name":"isActive","type":"bool","internalType":"bool"},{"name":"createdAt","type":"uint256","internalType":"uint256"},{"name":"lastActivity","type":"uint256","internalType":"uint256"},{"name":"daoType","type":"uint8","internalType":"enum FlowDAO.DAOType"},{"name":"governanceToken","type":"address","internalType":"address"}]}],"stateMutability":"view"},{"type":"function","name":"getDAOByENSName","inputs":[{"name":"ensName","type":"string","internalType":"string"}],"outputs":[{"name":"","type":"uint256","internalType":"uint256"}],"stateMutability":"view"},{"type":"function","name":"getDAOProposals","inputs":[{"name":"daoId","type":"uint256","internalType":"uint256"}],"outputs":[{"name":"","type":"uint256[]","internalType":"uint256[]"}],"stateMutability":"view"},{"type":"function","name":"getMemberDAOs","inputs":[{"name":"member","type":"address","internalType":"address"}],"outputs":[{"name":"","type":"uint256[]","internalType":"uint256[]"}],"stateMutability":"view"},{"type":"function","name":"getProposal","inputs":[{"name":"proposalId","type":"uint256","internalType":"uint256"}],"outputs":[{"name":"id","type":"uint256","internalType":"uint256"},{"name":"daoId","type":"uint256","internalType":"uint256"},{"name":"title","type":"string","internalType":"string"},{"name":"description","type":"string","internalType":"string"},{"name":"forVotes","type":"uint256","internalType":"uint256"},{"name":"againstVotes","type":"uint256","internalType":"uint256"},{"name":"abstainVotes","type":"uint256","internalType":"uint256"},{"name":"startTime","type":"uint256","internalType":"uint256"},{"name":"endTime","type":"uint256","internalType":"uint256"},{"name":"executed","type":"bool","internalType":"bool"},{"name":"cancelled","type":"bool","internalType":"bool"},{"name":"proposer","type":"address","internalType":"address"},{"name":"proposalType","type":"uint8","internalType":"enum FlowDAO.ProposalType"},{"name":"requiredQuorum","type":"uint256","internalType":"uint256"}],"stateMutability":"view"},{"type":"function","name":"getTotalDAOs","inputs":[],"outputs":[{"name":"","type":"uint256","internalType":"uint256"}],"stateMutability":"view"},{"type":"function","name":"getTotalProposals","inputs":[],"outputs":[{"name":"","type":"uint256","internalType":"uint256"}],"stateMutability":"view"},{"type":"function","name":"getTreasuryTransactions","inputs":[{"name":"proposalId","type":"uint256","internalType":"uint256"}],"outputs":[{"name":"","type":"tuple[]","internalType":"struct FlowDAO.TreasuryTransaction[]","components":[{"name":"id","type":"uint256","internalType":"uint256"},{"name":"proposalId","type":"uint256","internalType":"uint256"},{"name":"recipient","type":"address","internalType":"address"},{"name":"amount","type":"uint256","internalType":"uint256"},{"name":"token","type":"address","internalType":"address"},{"name":"description","type":"string","internalType":"string"},{"name":"executed","type":"bool","internalType":"bool"},{"name":"executedAt","type":"uint256","internalType":"uint256"}]}],"stateMutability":"view"},{"type":"function","name":"getVote","inputs":[{"name":"proposalId","type":"uint256","internalType":"uint256"},{"name":"voter","type":"address","internalType":"address"}],"outputs":[{"name":"","type":"uint8","internalType":"enum FlowDAO.Vote"}],"stateMutability":"view"},{"type":"function","name":"memberDaos","inputs":[{"name":"","type":"address","internalType":"address"},{"name":"","type":"uint256","internalType":"uint256"}],"outputs":[{"name":"","type":"uint256","internalType":"uint256"}],"stateMutability":"view"},{"type":"function","name":"owner","inputs":[],"outputs":[{"name":"","type":"address","internalType":"address"}],"stateMutability":"view"},{"type":"function","name":"proposalTreasuryTransactions","inputs":[{"name":"","type":"uint256","internalType":"uint256"},{"name":"","type":"uint256","internalType":"uint256"}],"outputs":[{"name":"id","type":"uint256","internalType":"uint256"},{"name":"proposalId","type":"uint256","internalType":"uint256"},{"name":"recipient","type":"address","internalType":"address"},{"name":"amount","type":"uint256","internalType":"uint256"},{"name":"token","type":"address","internalType":"address"},{"name":"description","type":"string","internalType":"string"},{"name":"executed","type":"bool","internalType":"bool"},{"name":"executedAt","type":"uint256","internalType":"uint256"}],"stateMutability":"view"},{"type":"function","name":"proposalVotes","inputs":[{"name":"","type":"uint256","internalType":"uint256"},{"name":"","type":"address","internalType":"address"}],"outputs":[{"name":"","type":"uint8","internalType":"enum FlowDAO.Vote"}],"stateMutability":"view"},{"type":"function","name":"proposals","inputs":[{"name":"","type":"uint256","internalType":"uint256"}],"outputs":[{"name":"id","type":"uint256","internalType":"uint256"},{"name":"daoId","type":"uint256","internalType":"uint256"},{"name":"title","type":"string","internalType":"string"},{"name":"description","type":"string","internalType":"string"},{"name":"forVotes","type":"uint256","internalType":"uint256"},{"name":"againstVotes","type":"uint256","internalType":"uint256"},{"name":"abstainVotes","type":"uint256","internalType":"uint256"},{"name":"startTime","type":"uint256","internalType":"uint256"},{"name":"endTime","type":"uint256","internalType":"uint256"},{"name":"executed","type":"bool","internalType":"bool"},{"name":"cancelled","type":"bool","internalType":"bool"},{"name":"proposer","type":"address","internalType":"address"},{"name":"proposalType","type":"uint8","internalType":"enum FlowDAO.ProposalType"},{"name":"requiredQuorum","type":"uint256","internalType":"uint256"}],"stateMutability":"view"},{"type":"function","name":"removeMember","inputs":[{"name":"daoId","type":"uint256","internalType":"uint256"},{"name":"member","type":"address","internalType":"address"}],"outputs":[],"stateMutability":"nonpayable"},{"type":"function","name":"renounceOwnership","inputs":[],"outputs":[],"stateMutability":"nonpayable"},{"type":"function","name":"transferOwnership","inputs":[{"name":"newOwner","type":"address","internalType":"address"}],"outputs":[],"stateMutability":"nonpayable"},{"type":"function","name":"vote","inputs":[{"name":"proposalId","type":"uint256","internalType":"uint256"},{"name":"voteChoice","type":"uint8","internalType":"enum FlowDAO.Vote"}],"outputs":[],"stateMutability":"nonpayable"},{"type":"event","name":"DAOCreated","inputs":[{"name":"daoId","type":"uint256","indexed":true,"internalType":"uint256"},{"name":"ensName","type":"string","indexed":false,"internalType":"string"},{"name":"name","type":"string","indexed":false,"internalType":"string"},{"name":"members","type":"address[]","indexed":false,"internalType":"address[]"}],"anonymous":false},{"type":"event","name":"OwnershipTransferred","inputs":[{"name":"previousOwner","type":"address","indexed":true,"internalType":"address"},{"name":"newOwner","type":"address","indexed":true,"internalType":"address"}],"anonymous":false},{"type":"event","name":"ProposalCancelled","inputs":[{"name":"proposalId","type":"uint256","indexed":true,"internalType":"uint256"}],"anonymous":false},{"type":"event","name":"ProposalCreated","inputs":[{"name":"proposalId","type":"uint256","indexed":true,"internalType":"uint256"},{"name":"daoId","type":"uint256","indexed":true,"internalType":"uint256"},{"name":"proposer","type":"address","indexed":false,"internalType":"address"},{"name":"title","type":"string","indexed":false,"internalType":"string"}],"anonymous":false},{"type":"event","name":"ProposalExecuted","inputs":[{"name":"proposalId","type":"uint256","indexed":true,"internalType":"uint256"}],"anonymous":false},{"type":"event","name":"TreasuryTransactionExecuted","inputs":[{"name":"proposalId","type":"uint256","indexed":true,"internalType":"uint256"},{"name":"recipient","type":"address","indexed":false,"internalType":"address"},{"name":"amount","type":"uint256","indexed":false,"internalType":"uint256"}],"anonymous":false},{"type":"event","name":"Voted","inputs":[{"name":"proposalId","type":"uint256","indexed":true,"internalType":"uint256"},{"name":"voter","type":"address","indexed":true,"internalType":"address"},{"name":"vote","type":"uint8","indexed":false,"internalType":"enum FlowDAO.Vote"},{"name":"weight","type":"uint256","indexed":false,"internalType":"uint256"}],"anonymous":false},{"type":"error","name":"OwnableInvalidOwner","inputs":[{"name":"owner","type":"address","internalType":"address"}]},{"type":"error","name":"OwnableUnauthorizedAccount","inputs":[{"name":"account","type":"address","internalType":"address"}]},{"type":"error","name":"ReentrancyGuardReentrantCall","inputs":[]},{"type":"error","name":"SafeERC20FailedOperation","inputs":[{"name":"token","type":"address","internalType":"address"}]}],"bytecode":{"object":"0x6080806040523460755733156062575f8054336001600160a01b0319821681178355916001600160a01b03909116907f8be0079c531659141344cd1fd0a4f28419497f9722a3daafe3b4186f6b6457e09080a36001805561355f908161007a8239f35b631e4fbdf760e01b5f525f60045260245ffd5b5f80fdfe6080604052600436101561001a575b3615610018575f80fd5b005b5f3560e01c8063013cf08b14612de65780630d61b51914612c325780631a5007dd14612c155780632062b6e9146121c75780634b9e3fe81461202d5780634c1b031614611fbb5780634ce4d36314611f7257806351858e2714611f5a5780635a29426c14611c8957806362eae92614611c195780636be7658b146119c8578063715018a61461197157806374d0a676146117c457806386693bc6146117545780638da5cb5b1461172d5780638e1f6a2c14610ec45780639190de8d14611703578063943e8216146113f75780639871306414611343578063b5dcd12414610f12578063bc3f931f14610ec4578063c7f758a814610e10578063cabd880414610a90578063ccbbd26014610985578063d033e2cf14610968578063d767906d14610372578063e0a8f6f514610224578063eed1bf6c146101e65763f2fde38b0361000e57346101e25760203660031901126101e257610176613099565b61017e613495565b6001600160a01b031680156101cf575f80546001600160a01b03198116831782556001600160a01b0316907f8be0079c531659141344cd1fd0a4f28419497f9722a3daafe3b4186f6b6457e09080a3005b631e4fbdf760e01b5f525f60045260245ffd5b5f80fd5b346101e2576101f436613148565b905f52600960205260405f2080548210156101e25760209161021591613112565b90549060031b1c604051908152f35b346101e25760203660031901126101e257600435805f52600860205261024f60405f20541515613177565b805f52600860205261026b60ff600960405f20015416156131c3565b805f52600860205261028a60ff600960405f20015460081c161561320f565b5f8181526008602052604090206009810180549091601082901c6001600160a01b0316330361032d57600701544210156102ef5761ff0019166101001790557f416e669c63d9a3a5e36ee7cc7e2104b8db28ccd286aa18966e98fa230c73b08c5f80a2005b60405162461bcd60e51b8152602060048201526016602482015275159bdd1a5b99c8185b1c9958591e481cdd185c9d195960521b6044820152606490fd5b60405162461bcd60e51b815260206004820152601860248201527f4f6e6c792070726f706f7365722063616e2063616e63656c00000000000000006044820152606490fd5b346101e25760803660031901126101e2576024356001600160401b0381116101e2576103a290369060040161306c565b906044356001600160401b0381116101e2576103c290369060040161306c565b90926064359360088510156101e2576004355f52600560205260405f20935f60045f96018054965b87811061092a575b5050610402919293949550613419565b6004355f52600560205261041b60405f205415156133d8565b6004355f52600560205261043860ff600960405f20015416613458565b82156108f45761044984151561325d565b6004355f52600560205260405f20610463336004356134bb565b6005820154116108af57610478600254613309565b9485600255600761048d600684015442613250565b9201546040519761049d89612eb5565b8789526104c760208a019660043588526104b8368a89613332565b9460408c019586523691613332565b9360608a019485525f60808b01525f60a08b01525f60c08b01524260e08b01526101008a01525f6101208a01525f6101408a0152336101608a015261050b81612fd2565b6101808901526101a0880152855f52600860205260405f2093875185555160018501556002840190518051906001600160401b0382116107fd5781906105518454612e7d565b601f811161087f575b50602090601f831160011461081c575f92610811575b50508160011b915f199060031b1c19161790555b51918251956001600160401b0387116107fd5760209686946105a96003850154612e7d565b601f81116107c1575b508890601f8311600114610728577f6f3322e9e9bcd9739d7dcbb73278ee28b363d39f7900bd404831ee8dfb41608e9593836107129694600a946101a0945f9261071d575b50508160011b915f199060031b1c19161760038501555b6080810151600485015560a0810151600585015560c0810151600685015560e081015160078501556101008101516008850155600984016106626101208301511515829060ff801983541691151516179055565b610140820151151561ff0082549160081b169061ff001916178155610160820151815461018084015161069481612fd2565b61069d81612fd2565b60ff60b01b9060b01b169162010000600160b01b039060101b169062010000600160b81b0319161717905501519101556004355f52600987526106e38460405f20613395565b6004355f526005875242600b60405f2001556040519182913383526040898401526004359660408401916133b8565b0390a3604051908152f35b015190508d806105f7565b90600385015f52805f20915f5b601f19851681106107a7575093600184600a946101a0947f6f3322e9e9bcd9739d7dcbb73278ee28b363d39f7900bd404831ee8dfb41608e9a986107129a98601f1981161061078f575b505050811b01600385015561060e565b01515f1960f88460031b161c191690558d808061077f565b8183015184558a9850600190930192918b01918b01610735565b6107ed90600386015f528a5f20601f850160051c8101918c86106107f3575b601f0160051c019061337f565b896105b2565b90915081906107e0565b634e487b7160e01b5f52604160045260245ffd5b015190508980610570565b5f8581528281209350601f198516905b818110610867575090846001959493921061084f575b505050811b019055610584565b01515f1960f88460031b161c19169055898080610842565b9293602060018192878601518155019501930161082c565b6108a990855f5260205f20601f850160051c810191602086106107f357601f0160051c019061337f565b8a61055a565b60405162461bcd60e51b815260206004820152601960248201527f496e73756666696369656e7420766f74696e6720706f776572000000000000006044820152606490fd5b60405162461bcd60e51b815260206004820152600e60248201526d151a5d1b19481c995c5d5a5c995960921b6044820152606490fd5b6109348183613112565b905460039190911b1c6001600160a01b03163314610954576001016103ea565b5094955085945060019050610402886103f2565b346101e2575f3660031901126101e2576020600354604051908152f35b346101e25760203660031901126101e2576004355f52600560205260405f208054600182016109b390612f0e565b916109c060028201612f0e565b6109cc60038301612f0e565b90600583015492600681015460078201546008830154600984015460ff1691600a85015493600b86015495600c01549760ff8916976040519c8d9c8d5260208d016101a090526101a08d01610a2091612fae565b8c810360408e0152610a3191612fae565b8b810360608d0152610a4291612fae565b9860808b015260a08a015260c089015260e08801521515610100870152610120860152610140850152610a7481612fd2565b61016084015260081c6001600160a01b03166101808301520390f35b346101e25760a03660031901126101e257600435610aac6130af565b6064356001600160a01b0381169290604435908490036101e2576084356001600160401b0381116101e257610ae590369060040161306c565b919094835f526008602052600160405f2001545f52600560205260405f20945f60045f97018054975b888110610dd2575b5050610b2791929394959650613419565b845f526008602052610b3e60405f20541515613177565b6001600160a01b0316918215610d99578015610d6357610b5f84151561325d565b845f52600a602052610ba360405f20549660405197610b7d89612ed1565b885260208801958787526040890195865260608901938452608089019485523691613332565b9260a0870193845260c08701945f865260e08801965f88525f52600a60205260405f208054600160401b8110156107fd57610be39160018201815561315e565b989098610d5057518855516001880155516002870180546001600160a01b039283166001600160a01b03199182161790915591516003880155915160048701805491909316911617905551805160058501916001600160401b0382116107fd57610c4d8354612e7d565b601f8111610d20575b50602090601f8311600114610cb5579180610ca4949260079796945f92610caa575b50508160011b915f199060031b1c19161790555b511515600685019060ff801983541691151516179055565b51910155005b015190508880610c78565b90601f19831691845f52815f20925f5b818110610d0857509260019285926007999896610ca4989610610cf0575b505050811b019055610c8c565b01515f1960f88460031b161c19169055888080610ce3565b92936020600181928786015181550195019301610cc5565b610d4a90845f5260205f20601f850160051c810191602086106107f357601f0160051c019061337f565b86610c56565b634e487b7160e01b5f525f60045260245ffd5b60405162461bcd60e51b815260206004820152600e60248201526d125b9d985b1a5908185b5bdd5b9d60921b6044820152606490fd5b60405162461bcd60e51b8152602060048201526011602482015270125b9d985b1a59081c9958da5c1a595b9d607a1b6044820152606490fd5b610ddc8183613112565b905460039190911b1c6001600160a01b03163314610dfc57600101610b0e565b5095965086955060019050610b2789610b16565b346101e25760203660031901126101e257600435805f526008602052610e3b60405f20541515613177565b5f52600860205260405f208054610ec06001830154926004810154936005820154936006830154926007810154906008810154600982015492600a83015496610e926003610e8b60028701612f0e565b9501612f0e565b996040519b8c9b8c9660ff8960b01c169a60018060a01b038a60101c169a60ff808c60081c169b1699612fdc565b0390f35b346101e25760403660031901126101e257610edd6130af565b6004355f52600460205260405f209060018060a01b03165f52602052602060ff60405f205416610f10604051809261313b565bf35b346101e257610f2036613148565b815f526008602052600160405f2001545f52600560205260405f20905f60045f93018054935b848110611307575b5050610f5b919250613419565b815f52600860205260ff600960405f20015416156112ca57815f52600a60205260405f2090815481101561128557610f929161315e565b5060068101805460ff81166112405760ff1916600117905542600782015560048101546001600160a01b0316806110e657504760038201548091106110a15760028201545f918291829182916001600160a01b03165af13d1561109c573d610ff981613317565b906110076040519283612eed565b81525f60203d92013e5b15611061577f772487d9d20f98768802215aaac02d5b764e33d67a0e57bc377156a8100115ea905b6002810154600390910154604080516001600160a01b039093168352602083019190915290a2005b60405162461bcd60e51b8152602060048201526013602482015272115512081d1c985b9cd9995c8819985a5b1959606a1b6044820152606490fd5b611011565b60405162461bcd60e51b815260206004820152601860248201527f496e73756666696369656e74204554482062616c616e636500000000000000006044820152606490fd5b6040516370a0823160e01b8152306004820152602081602481855afa9081156111be575f9161120e575b5060038301548091106111c957600283015460405163a9059cbb60e01b60208083019182526001600160a01b03909316602483015260448083019490945292815290915f91611160606482612eed565b519082855af1156111be575f513d6111b55750803b155b6111a357507f772487d9d20f98768802215aaac02d5b764e33d67a0e57bc377156a8100115ea90611039565b635274afe760e01b5f5260045260245ffd5b60011415611177565b6040513d5f823e3d90fd5b60405162461bcd60e51b815260206004820152601a60248201527f496e73756666696369656e7420746f6b656e2062616c616e63650000000000006044820152606490fd5b90506020813d602011611238575b8161122960209383612eed565b810103126101e2575184611110565b3d915061121c565b60405162461bcd60e51b815260206004820152601c60248201527f5472616e73616374696f6e20616c7265616479206578656375746564000000006044820152606490fd5b60405162461bcd60e51b815260206004820152601960248201527f496e76616c6964207472616e73616374696f6e20696e646578000000000000006044820152606490fd5b60405162461bcd60e51b8152602060048201526015602482015274141c9bdc1bdcd85b081b9bdd08195e1958dd5d1959605a1b6044820152606490fd5b6113118183613112565b905460039190911b1c6001600160a01b0316331461133157600101610f46565b5050509050610f5b6001829185610f4e565b346101e25761135136613148565b905f52600a60205260405f209081548110156101e2576113709161315e565b50805460018201546002830154600384015460048501549294926001600160a01b03928316926113e69291166113a860058601612f0e565b91600760ff600688015416960154946040519889988952602089015260408801526060870152608086015261010060a0860152610100850190612fae565b91151560c084015260e08301520390f35b346101e25760403660031901126101e2576004356024359060048210156101e257805f52600860205261142f60405f20541515613177565b805f52600860205261144b60ff600960405f20015416156131c3565b805f52600860205261146a60ff600960405f20015460081c161561320f565b805f52600860205260405f20600781015442101590816116f4575b50156116b957811561168557805f52600860205260405f2090600182015491825f52600560205260405f20925f60045f95018054955b868110611647575b50506114d29192939450613419565b5f8381526004602081815260408084203385529091529091205460ff1690811015611633576115fe576115069033906134bb565b9081156115c7575f8381526004602090815260408083203384529091529020805460ff191660ff86161790555f19840161158557600401611548828254613250565b90555b611558604051809461313b565b60208301527f2635c84c3a8027a303ca6d6e90b1c4a9604754040372414d244aadfa6471751860403393a3005b600284036115a25760050161159b828254613250565b905561154b565b600384146115b1575b5061154b565b6006016115bf828254613250565b9055836115ab565b60405162461bcd60e51b815260206004820152600f60248201526e2737903b37ba34b733903837bbb2b960891b6044820152606490fd5b60405162461bcd60e51b815260206004820152600d60248201526c105b1c9958591e481d9bdd1959609a1b6044820152606490fd5b634e487b7160e01b5f52602160045260245ffd5b6116518183613112565b905460039190911b1c6001600160a01b03163314611671576001016114bb565b50939450849350600190506114d2876114c3565b60405162461bcd60e51b815260206004820152600c60248201526b496e76616c696420766f746560a01b6044820152606490fd5b60405162461bcd60e51b815260206004820152601360248201527250726f706f73616c206e6f742061637469766560681b6044820152606490fd5b60089150015442111583611485565b346101e25760203660031901126101e2576004355f526006602052602060405f2054604051908152f35b346101e2575f3660031901126101e2575f546040516001600160a01b039091168152602090f35b346101e25760203660031901126101e2576004355f52600960205260405f206040519081602082549182815201915f5260205f20905f5b8181106117ae57610ec0856117a281870382612eed565b604051918291826130d9565b825484526020909301926001928301920161178b565b346101e25760403660031901126101e2576004356117e06130af565b815f52600560205260405f20905f60045f93018054935b848110611935575b505061180c919250613419565b815f52600560205261182360405f205415156133d8565b815f52600560205261183e60ff600960405f20015416613458565b6001600160a01b038116916118548315156132c4565b805f52600560205260405f20925f60048501938454915b8281106118d35750600160401b8210156107fd57611895826118c99660016118b995018155613112565b81546001600160a01b0393841660039290921b91821b9390911b1916919091179055565b5f52600760205260405f20613395565b600b429101555f80f35b836118de8288613112565b905460039190911b1c6001600160a01b0316146118fd5760010161186b565b60405162461bcd60e51b815260206004820152601060248201526f20b63932b0b23c90309036b2b6b132b960811b6044820152606490fd5b61193f8183613112565b905460039190911b1c6001600160a01b0316331461195f576001016117f7565b505050905061180c60018291856117ff565b346101e2575f3660031901126101e257611989613495565b5f80546001600160a01b0319811682556001600160a01b03167f8be0079c531659141344cd1fd0a4f28419497f9722a3daafe3b4186f6b6457e08280a3005b346101e25760403660031901126101e2576004356119e46130af565b815f52600560205260405f20905f60045f93018054935b848110611bdd575b5050611a10919250613419565b815f526005602052611a2760405f205415156133d8565b815f526005602052611a4260ff600960405f20015416613458565b815f52600560205260405f20915f600484019260018060a01b0316905b835480821015611bd35782611a748387613112565b905460039190911b1c6001600160a01b031614611a945750600101611a5f565b929391925f19810191908211611bb657611895611ab4611acd9385613112565b905460039190911b1c6001600160a01b03169184613112565b80548015611ba2575f190190611ae38282613112565b81549060018060a01b039060031b1b19169055555b5f52600760205260405f205f5b815480821015611bca5783611b1a8385613112565b90549060031b1c14611b2f5750600101611b05565b9192505f198201918211611bb657611b5b611b4d611b739385613112565b90549060031b1c9184613112565b90919082549060031b91821b915f19901b1916179055565b80548015611ba2575f190190611b898282613112565b8154905f199060031b1b1916905555600b429101555f80f35b634e487b7160e01b5f52603160045260245ffd5b634e487b7160e01b5f52601160045260245ffd5b505050506118c9565b5050909150611af8565b611be78183613112565b905460039190911b1c6001600160a01b03163314611c07576001016119fb565b5050509050611a106001829185611a03565b346101e25760203660031901126101e2576004356001600160401b0381116101e257611c4990369060040161306c565b611c70602060405183819483830196873781015f838201520301601f198101835282612eed565b5190205f526006602052602060405f2054604051908152f35b346101e25760203660031901126101e2576004355f6101a0604051611cad81612eb5565b8281526060602082015260606040820152606080820152606060808201528260a08201528260c08201528260e082015282610100820152826101208201528261014082015282610160820152826101808201520152805f526005602052611d1960405f205415156133d8565b5f52600560205260405f20604051611d3081612eb5565b81548152611d4060018301612f0e565b60208201908152611d5360028401612f0e565b60408301908152611d6660038501612f0e565b9160608401928352600485019460405180968791602082549182815201915f5260205f20905f5b818110611f385750505003611da29087612eed565b6080850195865260058101549360a08601948552600682015460c08701908152600783015460e088019081526008840154906101008901918252600985015460ff16926101208a019315158452600a860154946101408b01958652600b870154966101608c01978852600c01549860ff8a16986101808d0199611e2481612fd2565b8a526101a08d019a600160a01b600190039060081c168b52604051809d602082525190602001525160408d016101c090526101e08d01611e6391612fae565b90518c8203601f190160608e0152611e7b9190612fae565b90518b8203601f190160808d0152611e939190612fae565b9a5198601f198b8d030160a08c015289519b8c8152602001996020018c5f9d8e5b10611f135750508a9b505160c08b01525160e08a01525161010089015251610120880152511515610140870152516101608601525161018085015251611ef981612fd2565b6101a0840152516001600160a01b03166101c08301520390f35b81516001600160a01b03168c5260019d909d019c60209b8c019b90910190808e611eb4565b82546001600160a01b031684528a945060209093019260019283019201611d8d565b346101e2575f3660031901126101e257610018613495565b346101e25760403660031901126101e257611f8b613099565b6001600160a01b03165f908152600760205260409020805460243591908210156101e25760209161021591613112565b346101e25760203660031901126101e2576001600160a01b03611fdc613099565b165f52600760205260405f206040519081602082549182815201915f5260205f20905f5b81811061201757610ec0856117a281870382612eed565b8254845260209093019260019283019201612000565b346101e25760203660031901126101e2576004355f52600a60205260405f2080549061205882613368565b916120666040519384612eed565b8083526020830180925f5260205f205f915b83831061214657848660405191829160208301906020845251809152604083019060408160051b85010192915f905b8282106120b657505050500390f35b919360019193955060208091603f19898203018552875190815181528282015183820152848060a01b03604083015116604082015260608201516060820152848060a01b03608083015116608082015260e08061212460a085015161010060a0860152610100850190612fae565b9360c0810151151560c0850152015191015296019201920185949391926120a7565b6008602060019260405161215981612ed1565b855481528486015483820152600286015460a086901b869003908116604083015260038701546060830152600487015416608082015261219b60058701612f0e565b60a082015260ff600687015416151560c0820152600786015460e0820152815201920192019190612078565b346101e2576101203660031901126101e2576004356001600160401b0381116101e2576121f890369060040161306c565b906024356001600160401b0381116101e25761221890369060040161306c565b906044356001600160401b0381116101e25761223890369060040161306c565b929093606435936001600160401b0385116101e257366023860112156101e2576001600160401b038560040135116101e257366024866004013560051b870101116101e257600860e43510156101e257610104356001600160a01b03811681036101e2578715612bdc578315612ba7576122b382151561325d565b856004013515612b62576064866004013511612b1d5760843515612ad85760a43515612a9b5760c43515612a655760405160208101908985833761230a6020828c81015f838201520301601f198101835282612eed565b51902091825f52600660205260405f2054612a27575f5b8760040135811061294e57509061237c979161233e600354613309565b988993846003556040519261235284612eb5565b858452612360368e8a613332565b6020850152612370368a8c613332565b60408501523691613332565b606082015261238e8860040135613368565b61239b6040519182612eed565b6004890135815260248901602082015b60248b6004013560051b8c0101821061292b5750506080820190815260a08201608435815260c0830160a435815260e0840160c43581526101008501905f82526101208601926001845261014087019442865261016088019642885261018089019a61241860e435612fd2565b60e4358c526101a08a019a60018060a01b03168b525f52600560205260405f209880518a5560018a0160208201518051906001600160401b0382116107fd5781906124638454612e7d565b601f81116128fb575b50602090601f8311600114612898575f9261288d575b50508160011b915f199060031b1c19161790555b60028a0160408201518051906001600160401b0382116107fd5781906124bc8454612e7d565b601f811161285d575b50602090601f83116001146127fa575f926127ef575b50508160011b915f199060031b1c19161790555b60600151805160038b01916001600160401b0382116107fd5781906125148454612e7d565b601f81116127bf575b50602090601f831160011461275c575f92612751575b50508160011b915f199060031b1c19161790555b5180519060048a01906001600160401b0383116107fd57600160401b83116107fd576020908254848455808510612736575b5001905f5260205f205f5b8381106127195750505050916125cc9391600c9897969593516005890155516006880155516007870155516008860155511515600985019060ff801983541691151516179055565b51600a83015551600b820155019151906125e582612fd2565b6125ee82612fd2565b60ff835491610100600160a81b03905160081b169216906affffffffffffffffffffff60a81b16171790555f5260066020528460405f20555f5b846004013581106126d957509161265e916126516020946040519860608a5260608a01916133b8565b91878303858901526133b8565b848103604086015282600401358152019060248101905f5b816004013581106126b357602085807f1d7afec4c1a739b15e4c86abb00fb46a22ff937bead18487423c21c9a505e0598988038aa2604051908152f35b909192602080600192838060a01b036126cb886130c5565b168152019401929101612676565b6001906001600160a01b036126fe6126f98360048a013560248b016132a0565b6132b0565b165f5260076020526127138760405f20613395565b01612628565b82516001600160a01b031681830155602090920191600101612584565b61274b90845f5285845f20918201910161337f565b5f612579565b015190505f80612533565b5f8581528281209350601f198516905b8181106127a7575090846001959493921061278f575b505050811b019055612547565b01515f1960f88460031b161c191690555f8080612782565b9293602060018192878601518155019501930161276c565b6127e990855f5260205f20601f850160051c810191602086106107f357601f0160051c019061337f565b5f61251d565b015190505f806124db565b5f8581528281209350601f198516905b818110612845575090846001959493921061282d575b505050811b0190556124ef565b01515f1960f88460031b161c191690555f8080612820565b9293602060018192878601518155019501930161280a565b61288790855f5260205f20601f850160051c810191602086106107f357601f0160051c019061337f565b5f6124c5565b015190505f80612482565b5f8581528281209350601f198516905b8181106128e357509084600195949392106128cb575b505050811b019055612496565b01515f1960f88460031b161c191690555f80806128be565b929360206001819287860151815501950193016128a8565b61292590855f5260205f20601f850160051c810191602086106107f357601f0160051c019061337f565b5f61246c565b8192939495506020919061293f83926130c5565b81520191018a949392916123ab565b6129766001600160a01b0361296e6126f98460048d013560248e016132a0565b1615156132c4565b60018101808211611bb6575b886004013581106129965750600101612321565b6129ab6126f9838b6004013560248d016132a0565b6001600160a01b036129c86126f98460048e013560248f016132a0565b6001600160a01b039092169116146129e257600101612982565b60405162461bcd60e51b815260206004820152601860248201527f4475706c6963617465206d656d626572206164647265737300000000000000006044820152606490fd5b60405162461bcd60e51b815260206004820152601660248201527522a729903730b6b29030b63932b0b23c903a30b5b2b760511b6044820152606490fd5b60405162461bcd60e51b815260206004820152600e60248201526d496e76616c69642071756f72756d60901b6044820152606490fd5b60405162461bcd60e51b8152602060048201526015602482015274125b9d985b1a59081d9bdd1a5b99c81c195c9a5bd9605a1b6044820152606490fd5b60405162461bcd60e51b815260206004820152601a60248201527f496e76616c69642070726f706f73616c207468726573686f6c640000000000006044820152606490fd5b60405162461bcd60e51b815260206004820152601b60248201527f4d6178696d756d20313030206d656d6265727320616c6c6f77656400000000006044820152606490fd5b60405162461bcd60e51b815260206004820152601c60248201527f4174206c65617374206f6e65206d656d626572207265717569726564000000006044820152606490fd5b60405162461bcd60e51b815260206004820152600d60248201526c13985b59481c995c5d5a5c9959609a1b6044820152606490fd5b60405162461bcd60e51b8152602060048201526011602482015270115394c81b985b59481c995c5d5a5c9959607a1b6044820152606490fd5b346101e2575f3660031901126101e2576020600254604051908152f35b346101e25760203660031901126101e257600435805f526008602052612c5d60405f20541515613177565b805f526008602052612c7960ff600960405f20015416156131c3565b805f526008602052612c9860ff600960405f20015460081c161561320f565b805f52600860205260405f206008810154421115612da157600481015460058201549081811115612d6457612cdb91612cd091613250565b600683015490613250565b600a82015411612d2e57806009600192018260ff1982541617905501545f52600560205242600b60405f2001557f712ae1383f79ac853f8d882153778e0260ef8f03b504e2866e0593e04d2b291f5f80a2005b60405162461bcd60e51b815260206004820152600e60248201526d145d5bdc9d5b481b9bdd081b595d60921b6044820152606490fd5b60405162461bcd60e51b815260206004820152601560248201527450726f706f73616c20646964206e6f74207061737360581b6044820152606490fd5b60405162461bcd60e51b815260206004820152601760248201527f566f74696e6720706572696f64206e6f7420656e6465640000000000000000006044820152606490fd5b346101e25760203660031901126101e2576004355f52600860205260405f208054610ec06001830154612e1b60028501612f0e565b90612e2860038601612f0e565b9360048601549560058101549360068201546007830154600884015491600a6009860154950154976040519b8c9b8c9660ff8960b01c169a60018060a01b038a60101c169a60ff808c60081c169b1699612fdc565b90600182811c92168015612eab575b6020831014612e9757565b634e487b7160e01b5f52602260045260245ffd5b91607f1691612e8c565b6101c081019081106001600160401b038211176107fd57604052565b61010081019081106001600160401b038211176107fd57604052565b90601f801991011681019081106001600160401b038211176107fd57604052565b9060405191825f825492612f2184612e7d565b8084529360018116908115612f8c5750600114612f48575b50612f4692500383612eed565b565b90505f9291925260205f20905f915b818310612f70575050906020612f46928201015f612f39565b6020919350806001915483858901015201910190918492612f57565b905060209250612f4694915060ff191682840152151560051b8201015f612f39565b805180835260209291819084018484015e5f828201840152601f01601f1916010190565b6008111561163357565b9a97949e9d9c999693906101a09c9996936101c060408e61301d9661300f958252602082015201526101c08d0190612fae565b908b820360608d0152612fae565b60808a019d909d5260a089015260c088015260e0870152610100860152151561012085015215156101408401526001600160a01b031661016083015261306281612fd2565b6101808201520152565b9181601f840112156101e2578235916001600160401b0383116101e257602083818601950101116101e257565b600435906001600160a01b03821682036101e257565b602435906001600160a01b03821682036101e257565b35906001600160a01b03821682036101e257565b60206040818301928281528451809452019201905f5b8181106130fc5750505090565b82518452602093840193909201916001016130ef565b8054821015613127575f5260205f2001905f90565b634e487b7160e01b5f52603260045260245ffd5b9060048210156116335752565b60409060031901126101e2576004359060243590565b8054821015613127575f5260205f209060031b01905f90565b1561317e57565b60405162461bcd60e51b815260206004820152601760248201527f50726f706f73616c20646f6573206e6f742065786973740000000000000000006044820152606490fd5b156131ca57565b60405162461bcd60e51b815260206004820152601960248201527f50726f706f73616c20616c7265616479206578656375746564000000000000006044820152606490fd5b1561321657565b60405162461bcd60e51b8152602060048201526012602482015271141c9bdc1bdcd85b0818d85b98d95b1b195960721b6044820152606490fd5b91908201809211611bb657565b1561326457565b60405162461bcd60e51b815260206004820152601460248201527311195cd8dc9a5c1d1a5bdb881c995c5d5a5c995960621b6044820152606490fd5b91908110156131275760051b0190565b356001600160a01b03811681036101e25790565b156132cb57565b60405162461bcd60e51b8152602060048201526016602482015275496e76616c6964206d656d626572206164647265737360501b6044820152606490fd5b5f198114611bb65760010190565b6001600160401b0381116107fd57601f01601f191660200190565b92919261333e82613317565b9161334c6040519384612eed565b8294818452818301116101e2578281602093845f960137010152565b6001600160401b0381116107fd5760051b60200190565b81811061338a575050565b5f815560010161337f565b90815491600160401b8310156107fd5782611b5b916001612f4695018155613112565b908060209392818452848401375f828201840152601f01601f1916010190565b156133df57565b60405162461bcd60e51b8152602060048201526012602482015271111053c8191bd95cc81b9bdd08195e1a5cdd60721b6044820152606490fd5b1561342057565b60405162461bcd60e51b815260206004820152601060248201526f2737ba1030902220a79036b2b6b132b960811b6044820152606490fd5b1561345f57565b60405162461bcd60e51b815260206004820152600e60248201526d44414f206e6f742061637469766560901b6044820152606490fd5b5f546001600160a01b031633036134a857565b63118cdaa760e01b5f523360045260245ffd5b5f52600560205260405f205f9160045f92018054925b8381106134eb575b50505050156134e757600190565b5f90565b6134f58183613112565b905460039190911b1c6001600160a01b0390811690841614613519576001016134d1565b505050505060015f8080806134d956fea2646970667358221220546a5b0790c3ae95e44dc51110008362b9db6018698e733d40f7c7a83207aa1f64736f6c634300081e0033","linkReferences":{}},"methodIdentifiers":{"addMember(uint256,address)":"74d0a676","addTreasuryTransaction(uint256,address,uint256,address,string)":"cabd8804","cancelProposal(uint256)":"e0a8f6f5","createDAO(string,string,string,address[],uint256,uint256,uint256,uint8,address)":"2062b6e9","createProposal(uint256,string,string,uint8)":"d767906d","daoProposals(uint256,uint256)":"eed1bf6c","daos(uint256)":"ccbbd260","emergencyPause()":"51858e27","ensNameToDaoId(bytes32)":"9190de8d","executeProposal(uint256)":"0d61b519","executeTreasuryTransaction(uint256,uint256)":"b5dcd124","getDAO(uint256)":"5a29426c","getDAOByENSName(string)":"62eae926","getDAOProposals(uint256)":"86693bc6","getMemberDAOs(address)":"4c1b0316","getProposal(uint256)":"c7f758a8","getTotalDAOs()":"d033e2cf","getTotalProposals()":"1a5007dd","getTreasuryTransactions(uint256)":"4b9e3fe8","getVote(uint256,address)":"bc3f931f","memberDaos(address,uint256)":"4ce4d363","owner()":"8da5cb5b","proposalTreasuryTransactions(uint256,uint256)":"98713064","proposalVotes(uint256,address)":"8e1f6a2c","proposals(uint256)":"013cf08b","removeMember(uint256,address)":"6be7658b","renounceOwnership()":"715018a6","transferOwnership(address)":"f2fde38b","vote(uint256,uint8)":"943e8216"},"id":40}