{"abi":[{"type":"constructor","inputs":[{"name":"_ensRegistry","type":"address","internalType":"address"},{"name":"_ensBaseRegistrar","type":"address","internalType":"address"},{"name":"_ensPriceOracle","type":"address","internalType":"address"},{"name":"_ensPublicResolver","type":"address","internalType":"address"}],"stateMutability":"nonpayable"},{"type":"receive","stateMutability":"payable"},{"type":"function","name":"createSubdomain","inputs":[{"name":"parentDomain","type":"string","internalType":"string"},{"name":"subdomain","type":"string","internalType":"string"},{"name":"owner","type":"address","internalType":"address"}],"outputs":[],"stateMutability":"nonpayable"},{"type":"function","name":"emergencyPause","inputs":[],"outputs":[],"stateMutability":"nonpayable"},{"type":"function","name":"emergencyWithdraw","inputs":[],"outputs":[],"stateMutability":"nonpayable"},{"type":"function","name":"ensBaseRegistrar","inputs":[],"outputs":[{"name":"","type":"address","internalType":"contract IENSBaseRegistrar"}],"stateMutability":"view"},{"type":"function","name":"ensPriceOracle","inputs":[],"outputs":[{"name":"","type":"address","internalType":"contract IENSPriceOracle"}],"stateMutability":"view"},{"type":"function","name":"ensPublicResolver","inputs":[],"outputs":[{"name":"","type":"address","internalType":"contract IENSResolver"}],"stateMutability":"view"},{"type":"function","name":"ensRegistry","inputs":[],"outputs":[{"name":"","type":"address","internalType":"contract IENSRegistry"}],"stateMutability":"view"},{"type":"function","name":"getENSNameExpiry","inputs":[{"name":"ensName","type":"string","internalType":"string"}],"outputs":[{"name":"","type":"uint256","internalType":"uint256"}],"stateMutability":"view"},{"type":"function","name":"getENSRegistrationPrice","inputs":[{"name":"ensName","type":"string","internalType":"string"},{"name":"duration","type":"uint256","internalType":"uint256"}],"outputs":[{"name":"","type":"uint256","internalType":"uint256"}],"stateMutability":"view"},{"type":"function","name":"getENSTextRecord","inputs":[{"name":"ensName","type":"string","internalType":"string"},{"name":"key","type":"string","internalType":"string"}],"outputs":[{"name":"","type":"string","internalType":"string"}],"stateMutability":"view"},{"type":"function","name":"isENSNameAvailable","inputs":[{"name":"ensName","type":"string","internalType":"string"}],"outputs":[{"name":"","type":"bool","internalType":"bool"}],"stateMutability":"view"},{"type":"function","name":"isENSNameOwnedBy","inputs":[{"name":"ensName","type":"string","internalType":"string"},{"name":"owner","type":"address","internalType":"address"}],"outputs":[{"name":"","type":"bool","internalType":"bool"}],"stateMutability":"view"},{"type":"function","name":"owner","inputs":[],"outputs":[{"name":"","type":"address","internalType":"address"}],"stateMutability":"view"},{"type":"function","name":"registerENSName","inputs":[{"name":"ensName","type":"string","internalType":"string"},{"name":"duration","type":"uint256","internalType":"uint256"},{"name":"secret","type":"bytes32","internalType":"bytes32"}],"outputs":[],"stateMutability":"payable"},{"type":"function","name":"renewENSName","inputs":[{"name":"ensName","type":"string","internalType":"string"},{"name":"duration","type":"uint256","internalType":"uint256"}],"outputs":[],"stateMutability":"payable"},{"type":"function","name":"renounceOwnership","inputs":[],"outputs":[],"stateMutability":"nonpayable"},{"type":"function","name":"resolveENSName","inputs":[{"name":"ensName","type":"string","internalType":"string"}],"outputs":[{"name":"","type":"address","internalType":"address"}],"stateMutability":"nonpayable"},{"type":"function","name":"setENSAddress","inputs":[{"name":"ensName","type":"string","internalType":"string"},{"name":"addr","type":"address","internalType":"address"}],"outputs":[],"stateMutability":"nonpayable"},{"type":"function","name":"setENSTextRecord","inputs":[{"name":"ensName","type":"string","internalType":"string"},{"name":"key","type":"string","internalType":"string"},{"name":"value","type":"string","internalType":"string"}],"outputs":[],"stateMutability":"nonpayable"},{"type":"function","name":"transferENSName","inputs":[{"name":"ensName","type":"string","internalType":"string"},{"name":"newOwner","type":"address","internalType":"address"}],"outputs":[],"stateMutability":"nonpayable"},{"type":"function","name":"transferOwnership","inputs":[{"name":"newOwner","type":"address","internalType":"address"}],"outputs":[],"stateMutability":"nonpayable"},{"type":"event","name":"ENSAddressSet","inputs":[{"name":"ensName","type":"string","indexed":false,"internalType":"string"},{"name":"addr","type":"address","indexed":false,"internalType":"address"}],"anonymous":false},{"type":"event","name":"ENSNameRegistered","inputs":[{"name":"ensName","type":"string","indexed":false,"internalType":"string"},{"name":"owner","type":"address","indexed":false,"internalType":"address"},{"name":"duration","type":"uint256","indexed":false,"internalType":"uint256"}],"anonymous":false},{"type":"event","name":"ENSNameRenewed","inputs":[{"name":"ensName","type":"string","indexed":false,"internalType":"string"},{"name":"owner","type":"address","indexed":false,"internalType":"address"},{"name":"duration","type":"uint256","indexed":false,"internalType":"uint256"}],"anonymous":false},{"type":"event","name":"ENSNameResolved","inputs":[{"name":"ensName","type":"string","indexed":false,"internalType":"string"},{"name":"resolvedAddress","type":"address","indexed":false,"internalType":"address"}],"anonymous":false},{"type":"event","name":"ENSRecordSet","inputs":[{"name":"ensName","type":"string","indexed":false,"internalType":"string"},{"name":"key","type":"string","indexed":false,"internalType":"string"},{"name":"value","type":"string","indexed":false,"internalType":"string"}],"anonymous":false},{"type":"event","name":"OwnershipTransferred","inputs":[{"name":"previousOwner","type":"address","indexed":true,"internalType":"address"},{"name":"newOwner","type":"address","indexed":true,"internalType":"address"}],"anonymous":false},{"type":"error","name":"OwnableInvalidOwner","inputs":[{"name":"owner","type":"address","internalType":"address"}]},{"type":"error","name":"OwnableUnauthorizedAccount","inputs":[{"name":"account","type":"address","internalType":"address"}]},{"type":"error","name":"ReentrancyGuardReentrantCall","inputs":[]}],"bytecode":{"object":"0x610100346101a057601f61264338819003918201601f19168301916001600160401b038311848410176101a4578084926080946040528339810103126101a057610048816101b8565b90610055602082016101b8565b9061006e6060610067604084016101b8565b92016101b8565b91331561018d575f8054336001600160a01b0319821681178355604051969290916001600160a01b0316907f8be0079c531659141344cd1fd0a4f28419497f9722a3daafe3b4186f6b6457e09080a3600180556001600160a01b0390811660805290811660a05290811660c0521660e05261247690816101cd8239608051818181610238015281816107090152818161076e0152818161113c01528181611365015281816115e601528181611b4b01528181611cba0152611de2015260a0518181816106c4015281816119ec0152611bf6015260c05181818161067f015281816108f601528181610b690152611ac8015260e0518181816103c8015281816107f101528181610ccc015281816112310152818161149201526115850152f35b631e4fbdf760e01b5f525f60045260245ffd5b5f80fd5b634e487b7160e01b5f52604160045260245ffd5b51906001600160a01b03821682036101a05756fe6080604052600436101561001a575b3615610018575f80fd5b005b5f5f3560e01c8063287dc087146115b4578063458955b81461157057806351858e271461155857806352c6f19f14611331578063536051bc146110b05780636ba41fad14610af9578063715018a614610a9f578063743faca71461089657806374da342e1461085a578063759a7cc0146107385780637d73b231146106f35780637ecd1efe146106ae57806385c553a5146106695780638da5cb5b146106425780639387b96914610620578063b1f72a0b146105da578063bd73c2981461058c578063d2639fa814610513578063db2e21bc146104c4578063eb51f3ba1461019a5763f2fde38b1461010c575061000e565b34610197576020366003190112610197576004356001600160a01b038116908190036101955761013a61211e565b80156101815781546001600160a01b03198116821783556001600160a01b03167f8be0079c531659141344cd1fd0a4f28419497f9722a3daafe3b4186f6b6457e08380a380f35b631e4fbdf760e01b82526004829052602482fd5b505b80fd5b5034610197576060366003190112610197576004356001600160401b038111610195576101cb903690600401611655565b906024356001600160401b03811161046c576101eb903690600401611655565b92906044356001600160401b0381116104c05761020c903690600401611655565b90918661022261021d36878961176a565b611f54565b6040516302571be360e01b8152600481018290527f00000000000000000000000000000000000000000000000000000000000000006001600160a01b031690602081602481855afa80156104615761028c9185916104a1575b506001600160a01b031633146117bf565b604051630178b8bf60e01b81526004810183905290602082602481845afa918215610461578492610470575b506001600160a01b038216156103c6575b506001600160a01b0316803b156103c25761031083918a83610323956040519687958694859363043c4ea360e21b855260048501526060602485015260648401908c6117fb565b8281036003190160448401528b8d6117fb565b03925af180156103b757610398575b50509061038461039293927f2b700edb6824a8794179f7d03410d8a3d5995a331cf13cd76a39527dd0aa4f8d9761037660405198899860608a5260608a01916117fb565b9187830360208901526117fb565b9184830360408601526117fb565b0390a180f35b816103a6919594939561171a565b6103b3579091865f610332565b8680fd5b6040513d84823e3d90fd5b8280fd5b7f00000000000000000000000000000000000000000000000000000000000000006001600160a01b03169150803b1561046c5760405163cf40882360e01b8152600481018490523360248201526001600160a01b03831660448201525f60648201529084908290608490829084905af190811561046157849161044c575b50505f6102c9565b816104569161171a565b6103c257825f610444565b6040513d86823e3d90fd5b8380fd5b61049391925060203d60201161049a575b61048b818361171a565b8101906117a0565b905f6102b8565b503d610481565b6104ba915060203d60201161049a5761048b818361171a565b5f61027b565b8580fd5b50346101975780600319360112610197576104dd61211e565b8080808060018060a01b03815416479082821561050a575bf1156104fe5780f35b604051903d90823e3d90fd5b506108fc6104f5565b5034610197576040366003190112610197576004356001600160401b03811161019557610544903690600401611655565b91602435906001600160401b03821161019757610588610574858561056c3660048801611655565b929091611db4565b6040519182916020835260208301906116f6565b0390f35b503461019757602036600319011261019757600435906001600160401b0382116101975760206105c86105c23660048601611655565b90611c8d565b6040516001600160a01b039091168152f35b503461019757602036600319011261019757600435906001600160401b0382116101975760206106166106103660048601611655565b90611b0a565b6040519015158152f35b503461019757602061063a610634366116c4565b91611a65565b604051908152f35b5034610197578060031936011261019757546040516001600160a01b039091168152602090f35b50346101975780600319360112610197576040517f00000000000000000000000000000000000000000000000000000000000000006001600160a01b03168152602090f35b50346101975780600319360112610197576040517f00000000000000000000000000000000000000000000000000000000000000006001600160a01b03168152602090f35b50346101975780600319360112610197576040517f00000000000000000000000000000000000000000000000000000000000000006001600160a01b03168152602090f35b5034610197578061021d61075861074e36611682565b939190369161176a565b6040516302571be360e01b8152600481018290527f00000000000000000000000000000000000000000000000000000000000000006001600160a01b0316929190602081602481875afa801561084f576107c39186916104a157506001600160a01b031633146117bf565b823b1561084a5760405163cf40882360e01b815260048101919091526001600160a01b0391821660248201527f000000000000000000000000000000000000000000000000000000000000000090911660448201525f60648201529082908290608490829084905af180156103b7576108395750f35b816108439161171a565b6101975780f35b505050fd5b6040513d87823e3d90fd5b503461019757602036600319011261019757600435906001600160401b03821161019757602061063a6108903660048601611655565b9061197d565b506108a0366116c4565b91906108aa612144565b6108c56108c06108bb36848661176a565b612175565b611844565b8215801580610a94575b6108d890611890565b6108eb6108e636848661176a565b612284565b6301e13380858102927f00000000000000000000000000000000000000000000000000000000000000006001600160a01b03169291878504141715610a80576040516383e7f6ff60e01b81528793909291906020848061094f8486600484016118cf565b0381865afa93841561084f578594610a45575b5061096f843410156118eb565b823b15610a41576109999285928560405180968195829463acf1a84160e01b8452600484016118cf565b03925af1908115610a18578391610a2c575b50508034116109f4575b50506109ea7f819263a75695a84bd19252ac4a359ac6b8bd16a8a1ee4ad0396065c43a374fbf9360405193849333918561194f565b0390a16001805580f35b8180610a0181933461192e565b818115610a23575b3390f115610a1857835f6109b5565b6040513d85823e3d90fd5b506108fc610a09565b81610a369161171a565b61019557815f6109ab565b8480fd5b945092506020843d602011610a78575b81610a626020938361171a565b81010312610a7457879351925f610962565b5f80fd5b3d9150610a55565b634e487b7160e01b87526011600452602487fd5b50600a8411156108cf565b5034610197578060031936011261019757610ab861211e565b80546001600160a01b03198116825581906001600160a01b03167f8be0079c531659141344cd1fd0a4f28419497f9722a3daafe3b4186f6b6457e08280a380f35b506060366003190112610197576004356001600160401b03811161019557610b25903690600401611655565b9060243591604435610b35612144565b610b466108c06108bb36858761176a565b83158015806110a5575b610b5990611890565b610b676108e636858761176a565b7f00000000000000000000000000000000000000000000000000000000000000006001600160a01b0316926301e13380878102938885049091141715611091576040516383e7f6ff60e01b81528894909392919060208580610bcd8787600484016118cf565b0381845afa94851561108657869561104f575b50610bed853410156118eb565b604051637a4c135f60e11b81526060600482015260208180610c1260648201886116f6565b3360248301528660448301520381855afa90811561101257879161101d575b50813b156103b35760405190631e29f97960e31b82526004820152868160248183865af1908115611012578791610ffd575b5050803b156104c057610c97858794604051968795869485936385f6d15560e01b85526080600486015260848501906116f6565b913360248501526044840152606483015203925af1908115610a18578391610fe8575b5050610cca61021d36858761176a565b7f00000000000000000000000000000000000000000000000000000000000000006001600160a01b031690813b1561046c5760405162d5fa2b60e81b815260048101829052336024820152848160448183875af190811561084f578591610fd3575b5050813b1561046c5760405163043c4ea360e21b81526004810182905260606024820152600b60648201526a3232b9b1b934b83a34b7b760a91b608482015260a06044820152602760a48201527f454e5320646f6d61696e20726567697374657265642076696120466c6f77207060c4820152666c6174666f726d60c81b60e482015284816101048183875af190811561084f578591610fbe575b5050610dd242612345565b823b15610a415784610e24916040518093819263043c4ea360e21b835286600484015260606024840152600760648401526618dc99585d195960ca1b608484015260a0604484015260a48301906116f6565b038183875af190811561084f578591610fa9575b5050813b1561046c5760405163043c4ea360e21b81526004808201839052606060248301526008606483015267706c6174666f726d60c01b608483015260a0604483015260a482015263466c6f7760e01b60c4820152848160e48183875af190811561084f578591610f94575b5050813b1561046c57839160e48392604051948593849263043c4ea360e21b845260048401526060602484015260076064840152663b32b939b4b7b760c91b608484015260a06044840152600360a4840152620312e360ec1b60c48401525af1908115610a18578391610f7f575b5050803411610f52575b50506109ea7f8e52ba220e1aa61d7fdb0f026f5f3cfc5a67f6625fe8b26e7539988cfce5f29d9360405193849333918561194f565b8180610f5f81933461192e565b818115610f76575b3390f115610a1857835f610f1d565b506108fc610f67565b81610f899161171a565b61019557815f610f13565b81610f9e9161171a565b61046c57835f610ea5565b81610fb39161171a565b61046c57835f610e38565b81610fc89161171a565b61046c57835f610dc7565b81610fdd9161171a565b61046c57835f610d2c565b81610ff29161171a565b61019557815f610cba565b816110079161171a565b6104c057855f610c63565b6040513d89823e3d90fd5b90506020813d602011611047575b816110386020938361171a565b810103126103b357515f610c31565b3d915061102b565b955093506020853d60201161107e575b8161106c6020938361171a565b81010312610a7457889451935f610be0565b3d915061105f565b6040513d88823e3d90fd5b634e487b7160e01b88526011600452602488fd5b50600a851115610b50565b5034610197576060366003190112610197576004356001600160401b038111610195576110e1903690600401611655565b906024356001600160401b03811161046c57611101903690600401611655565b6044356001600160a01b0381169392908490036104c05761112661021d36878661176a565b6040516302571be360e01b8152600481018290527f00000000000000000000000000000000000000000000000000000000000000006001600160a01b03169391929190602081602481885afa908115611326578991611307575b50336001600160a01b03909116036112cb576111d06001899660206040519a8b928688848601378187850191601760f91b858401526021830137010188838201520301601f19810189528861171a565b6111f76020604051838194838301968737810188838201520301601f19810183528261171a565b519020823b1561046c5760a484928360405195869485936305ef2c7f60e41b85526004850152602484015288604484015260018060a01b037f00000000000000000000000000000000000000000000000000000000000000001660648401528160848401525af180156103b7576112b6575b507f8e52ba220e1aa61d7fdb0f026f5f3cfc5a67f6625fe8b26e7539988cfce5f29d6112a484846040519283926060845260608401906116f6565b9060208301528460408301520390a180f35b816112c09161171a565b6103c257825f611269565b60405162461bcd60e51b81526020600482015260146024820152732737ba103a3432903830b932b73a1037bbb732b960611b6044820152606490fd5b611320915060203d60201161049a5761048b818361171a565b5f611180565b6040513d8b823e3d90fd5b5034610a745761134036611682565b9161134f61021d36848461176a565b6040516302571be360e01b8152600481018290527f00000000000000000000000000000000000000000000000000000000000000006001600160a01b03169190602081602481865afa801561152c576113b9915f916104a157506001600160a01b031633146117bf565b604051630178b8bf60e01b81526004810182905291602083602481845afa90811561152c5787935f92611537575b506001600160a01b0382161561148c575b506001600160a01b0316803b156103c25760405162d5fa2b60e81b815260048101929092526001600160a01b038616602483015282908290604490829084905af180156103b757611477575b50506103927fa6147bc77dc0841f9e393fb7f780c278db0587a334501eda1cd1a1776adf9bca936040519384938461181b565b816114819161171a565b61046c57835f611444565b919250507f00000000000000000000000000000000000000000000000000000000000000006001600160a01b031690803b15610a745760405163cf40882360e01b8152600481018490523360248201526001600160a01b03831660448201525f6064820181905290918290608490829084905af1801561152c57611515575b509085915f6113f8565b611523919296505f9061171a565b5f94905f61150b565b6040513d5f823e3d90fd5b61155191925060203d60201161049a5761048b818361171a565b905f6113e7565b34610a74575f366003190112610a745761001861211e565b34610a74575f366003190112610a74576040517f00000000000000000000000000000000000000000000000000000000000000006001600160a01b03168152602090f35b34610a745761021d6115c861074e36611682565b6040516302571be360e01b81526004810191909152906020826024817f00000000000000000000000000000000000000000000000000000000000000006001600160a01b03165afa801561152c576020925f91611638575b506040516001600160a01b0391821691909216148152f35b61164f9150833d851161049a5761048b818361171a565b83611620565b9181601f84011215610a74578235916001600160401b038311610a745760208381860195010111610a7457565b6040600319820112610a7457600435906001600160401b038211610a74576116ac91600401611655565b90916024356001600160a01b0381168103610a745790565b6040600319820112610a7457600435906001600160401b038211610a74576116ee91600401611655565b909160243590565b805180835260209291819084018484015e5f828201840152601f01601f1916010190565b90601f801991011681019081106001600160401b0382111761173b57604052565b634e487b7160e01b5f52604160045260245ffd5b6001600160401b03811161173b57601f01601f191660200190565b9291926117768261174f565b91611784604051938461171a565b829481845281830111610a74578281602093845f960137010152565b90816020910312610a7457516001600160a01b0381168103610a745790565b156117c657565b60405162461bcd60e51b815260206004820152600d60248201526c2737ba103a34329037bbb732b960991b6044820152606490fd5b908060209392818452848401375f828201840152601f01601f1916010190565b91602091611834919594956040855260408501916117fb565b6001600160a01b03909416910152565b1561184b57565b60405162461bcd60e51b815260206004820152601b60248201527f4f6e6c79202e65746820646f6d61696e7320737570706f7274656400000000006044820152606490fd5b1561189757565b60405162461bcd60e51b815260206004820152601060248201526f24b73b30b634b210323ab930ba34b7b760811b6044820152606490fd5b9291906118e66020916040865260408601906116f6565b930152565b156118f257565b60405162461bcd60e51b8152602060048201526014602482015273125b9cdd59999a58da595b9d081c185e5b595b9d60621b6044820152606490fd5b9190820391821161193b57565b634e487b7160e01b5f52601160045260245ffd5b9061196990604093969594966060845260608401916117fb565b6001600160a01b0390951660208201520152565b9061198c6108bb36838561176a565b15611a5f576119a0916108e691369161176a565b6040516119cc6020828180820195805191829101875e81015f838201520301601f19810183528261171a565b519020604051636b727d4360e11b815260048101919091526020816024817f00000000000000000000000000000000000000000000000000000000000000006001600160a01b03165afa5f9181611a2b575b50611a2857505f90565b90565b9091506020813d602011611a57575b81611a476020938361171a565b81010312610a745751905f611a1e565b3d9150611a3a565b50505f90565b90611a746108bb36838561176a565b15611b0357611a88916108e691369161176a565b6301e133808202918083046301e13380149015171561193b576040516383e7f6ff60e01b81529160209183918291611ac49190600484016118cf565b03817f00000000000000000000000000000000000000000000000000000000000000006001600160a01b03165afa5f9181611a2b5750611a2857505f90565b5050505f90565b611b186108e636848461176a565b91825115611b0357611b2e61021d36838561176a565b6040516302571be360e01b815260048101919091526020816024817f00000000000000000000000000000000000000000000000000000000000000006001600160a01b03165afa90811561152c575f91611c6e575b506001600160a01b0316611b0357611ba0916108bb91369161176a565b611baa5750600190565b604051611bd66020828180820195805191829101875e81015f838201520301601f19810183528261171a565b5190206040516312dc929d60e31b815260048101919091526020816024817f00000000000000000000000000000000000000000000000000000000000000006001600160a01b03165afa5f9181611c315750611a2857505f90565b9091506020813d602011611c66575b81611c4d6020938361171a565b81010312610a7457518015158103610a7457905f611a1e565b3d9150611c40565b611c87915060203d60201161049a5761048b818361171a565b5f611b83565b611c9b61021d36848461176a565b604051630178b8bf60e01b8152600481018290529092906020816024817f00000000000000000000000000000000000000000000000000000000000000006001600160a01b03165afa90811561152c575f91611d95575b506001600160a01b0316928315611d8d57602090602460405180968193631d9dabef60e11b835260048301525afa5f9381611d6c575b50611d34575050505f90565b7f93ebb5eef54d91ecc151dd9b8bb754db2e1c0b03c8929008fd0a6d4bc3cd451891611d66846040519384938461181b565b0390a190565b611d8691945060203d60201161049a5761048b818361171a565b925f611d28565b505050505f90565b611dae915060203d60201161049a5761048b818361171a565b5f611cf2565b61021d90611dc392369161176a565b604051630178b8bf60e01b8152600481018290529091906020816024817f00000000000000000000000000000000000000000000000000000000000000006001600160a01b03165afa90811561152c575f91611f0d575b506001600160a01b03168015611efb57611e5a935f9360405195869485938493631674750f60e21b855260048501526040602485015260448401916117fb565b03915afa5f9181611e80575b50611a285750604051611e7a60208261171a565b5f815290565b9091503d805f833e611e92818361171a565b810190602081830312610a74578051906001600160401b038211610a74570181601f82011215610a7457805190611ec88261174f565b92611ed6604051948561171a565b82845260208383010111610a7457815f9260208093018386015e83010152905f611e66565b50505050604051611e7a60208261171a565b611f26915060203d60201161049a5761048b818361171a565b5f611e1a565b8051821015611f405760209160051b010190565b634e487b7160e01b5f52603260045260245ffd5b905f918051611f605750565b5f905f5b8151811015611fa957601760f91b6001600160f81b0319611f858385612164565b511614611f95575b600101611f64565b91611fa1600191612320565b929050611f8d565b50916001820180921161193b57611fbf8261232e565b91611fcd604051938461171a565b808352611fdc601f199161232e565b015f5b81811061210d5750505f925f915f5b825181101561205d57601760f91b6001600160f81b031961200f8386612164565b51161461201f575b600101611fee565b92946120308461204b9397856123e4565b61203a8287611f2c565b526120458186611f2c565b50612320565b936001830180841161193b5792612017565b5094939061207190612082938151916123e4565b61207b8285611f2c565b5282611f2c565b50805190815b612093575091909150565b90915f19830183811161193b576120aa9083611f2c565b516040516120d76020828180820195805191829101875e81015f838201520301601f19810183528261171a565b51902060405190602082019283526040820152604081526120f960608261171a565b51902091801561193b575f19019081612088565b806060602080938701015201611fdf565b5f546001600160a01b0316330361213157565b63118cdaa760e01b5f523360045260245ffd5b600260015414612155576002600155565b633ee5aeb560e01b5f5260045ffd5b908151811015611f40570160200190565b805160048110611a5f57600319810190811161193b57601760f91b906001600160f81b0319906121a59084612164565b511614908161221f575b816121ec575b816121be575090565b80515f1981019250821161193b57600d60fb1b916001600160f81b0319916121e69190612164565b51161490565b80915051600119810190811161193b57601d60fa1b906001600160f81b0319906122169084612164565b511614906121b5565b80915051600219810190811161193b57606560f81b906001600160f81b0319906122499084612164565b511614906121af565b9061225c8261174f565b612269604051918261171a565b828152809261227a601f199161174f565b0190602036910137565b905f905f5b835181101561231957601760f91b6001600160f81b03196122aa8387612164565b5116146122b957600101612289565b9091505b8015612308576122cc81612252565b905f5b8181106122dd575090925050565b6001906001600160f81b03196122f38288612164565b51165f1a6123018286612164565b53016122cf565b509050604051611e7a60208261171a565b50906122bd565b5f19811461193b5760010190565b6001600160401b03811161173b5760051b60200190565b80156123c457805f81805b6123ac575061235e81612252565b925b61236957505090565b5f19810190811161193b578091600a8106603001918260301161193b57600a9260f81b6001600160f81b0319165f1a906123a39086612164565b53049081612360565b91506123b9600a91612320565b910480839291612350565b506040516123d360408261171a565b60018152600360fc1b602082015290565b92916123f86123f3838361192e565b612252565b91805b82811061240a57509193505050565b6001906001600160f81b03196124208289612164565b511661243961242f858461192e565b915f1a9187612164565b53016123fb56fea2646970667358221220c38fc7f0270b153cc48e2bdbf336b8ae9f2c32b1ccaa7c853958822bb18a399464736f6c634300081e0033","linkReferences":{}},"methodIdentifiers":{"createSubdomain(string,string,address)":"536051bc","emergencyPause()":"51858e27","emergencyWithdraw()":"db2e21bc","ensBaseRegistrar()":"7ecd1efe","ensPriceOracle()":"85c553a5","ensPublicResolver()":"458955b8","ensRegistry()":"7d73b231","getENSNameExpiry(string)":"74da342e","getENSRegistrationPrice(string,uint256)":"9387b969","getENSTextRecord(string,string)":"d2639fa8","isENSNameAvailable(string)":"b1f72a0b","isENSNameOwnedBy(string,address)":"287dc087","owner()":"8da5cb5b","registerENSName(string,uint256,bytes32)":"6ba41fad","renewENSName(string,uint256)":"743faca7","renounceOwnership()":"715018a6","resolveENSName(string)":"bd73c298","setENSAddress(string,address)":"52c6f19f","setENSTextRecord(string,string,string)":"eb51f3ba","transferENSName(string,address)":"759a7cc0","transferOwnership(address)":"f2fde38b"},"id":41}