{"abi":[{"type":"constructor","inputs":[],"stateMutability":"nonpayable"},{"type":"receive","stateMutability":"payable"},{"type":"function","name":"agentToWalletId","inputs":[{"name":"","type":"uint256","internalType":"uint256"}],"outputs":[{"name":"","type":"uint256","internalType":"uint256"}],"stateMutability":"view"},{"type":"function","name":"approveProposal","inputs":[{"name":"proposalId","type":"uint256","internalType":"uint256"}],"outputs":[],"stateMutability":"nonpayable"},{"type":"function","name":"autoApproveAgentProposal","inputs":[{"name":"proposalId","type":"uint256","internalType":"uint256"}],"outputs":[],"stateMutability":"nonpayable"},{"type":"function","name":"changeApprovalThreshold","inputs":[{"name":"walletId","type":"uint256","internalType":"uint256"},{"name":"newThreshold","type":"uint256","internalType":"uint256"}],"outputs":[],"stateMutability":"nonpayable"},{"type":"function","name":"changeWalletOwners","inputs":[{"name":"walletId","type":"uint256","internalType":"uint256"},{"name":"newOwners","type":"address[]","internalType":"address[]"}],"outputs":[],"stateMutability":"nonpayable"},{"type":"function","name":"createAgentWallet","inputs":[{"name":"ensName","type":"string","internalType":"string"},{"name":"description","type":"string","internalType":"string"},{"name":"agentId","type":"uint256","internalType":"uint256"},{"name":"","type":"uint256","internalType":"uint256"},{"name":"","type":"uint256","internalType":"uint256"}],"outputs":[{"name":"","type":"uint256","internalType":"uint256"}],"stateMutability":"nonpayable"},{"type":"function","name":"createProposal","inputs":[{"name":"walletId","type":"uint256","internalType":"uint256"},{"name":"recipient","type":"address","internalType":"address"},{"name":"amount","type":"uint256","internalType":"uint256"},{"name":"token","type":"address","internalType":"address"},{"name":"description","type":"string","internalType":"string"},{"name":"proposalType","type":"uint8","internalType":"enum FlowMultiSigWallet.ProposalType"}],"outputs":[{"name":"","type":"uint256","internalType":"uint256"}],"stateMutability":"nonpayable"},{"type":"function","name":"createWallet","inputs":[{"name":"ensName","type":"string","internalType":"string"},{"name":"description","type":"string","internalType":"string"},{"name":"owners","type":"address[]","internalType":"address[]"},{"name":"requiredApprovals","type":"uint256","internalType":"uint256"},{"name":"walletType","type":"uint8","internalType":"enum FlowMultiSigWallet.WalletType"}],"outputs":[{"name":"","type":"uint256","internalType":"uint256"}],"stateMutability":"nonpayable"},{"type":"function","name":"deactivateWallet","inputs":[{"name":"walletId","type":"uint256","internalType":"uint256"}],"outputs":[],"stateMutability":"nonpayable"},{"type":"function","name":"emergencyPause","inputs":[],"outputs":[],"stateMutability":"nonpayable"},{"type":"function","name":"ensNameToWalletId","inputs":[{"name":"","type":"bytes32","internalType":"bytes32"}],"outputs":[{"name":"","type":"uint256","internalType":"uint256"}],"stateMutability":"view"},{"type":"function","name":"executeAgentProposal","inputs":[{"name":"proposalId","type":"uint256","internalType":"uint256"}],"outputs":[],"stateMutability":"nonpayable"},{"type":"function","name":"executeProposal","inputs":[{"name":"proposalId","type":"uint256","internalType":"uint256"}],"outputs":[],"stateMutability":"nonpayable"},{"type":"function","name":"getProposal","inputs":[{"name":"proposalId","type":"uint256","internalType":"uint256"}],"outputs":[{"name":"id","type":"uint256","internalType":"uint256"},{"name":"walletId","type":"uint256","internalType":"uint256"},{"name":"proposer","type":"address","internalType":"address"},{"name":"recipient","type":"address","internalType":"address"},{"name":"amount","type":"uint256","internalType":"uint256"},{"name":"token","type":"address","internalType":"address"},{"name":"description","type":"string","internalType":"string"},{"name":"approvalCount","type":"uint256","internalType":"uint256"},{"name":"executed","type":"bool","internalType":"bool"},{"name":"createdAt","type":"uint256","internalType":"uint256"},{"name":"expiryTime","type":"uint256","internalType":"uint256"},{"name":"proposalType","type":"uint8","internalType":"enum FlowMultiSigWallet.ProposalType"}],"stateMutability":"view"},{"type":"function","name":"getTotalProposals","inputs":[],"outputs":[{"name":"","type":"uint256","internalType":"uint256"}],"stateMutability":"view"},{"type":"function","name":"getTotalWallets","inputs":[],"outputs":[{"name":"","type":"uint256","internalType":"uint256"}],"stateMutability":"view"},{"type":"function","name":"getWallet","inputs":[{"name":"walletId","type":"uint256","internalType":"uint256"}],"outputs":[{"name":"","type":"tuple","internalType":"struct FlowMultiSigWallet.MultiSigWallet","components":[{"name":"id","type":"uint256","internalType":"uint256"},{"name":"ensName","type":"string","internalType":"string"},{"name":"description","type":"string","internalType":"string"},{"name":"owners","type":"address[]","internalType":"address[]"},{"name":"requiredApprovals","type":"uint256","internalType":"uint256"},{"name":"balance","type":"uint256","internalType":"uint256"},{"name":"isActive","type":"bool","internalType":"bool"},{"name":"createdAt","type":"uint256","internalType":"uint256"},{"name":"lastActivity","type":"uint256","internalType":"uint256"},{"name":"walletType","type":"uint8","internalType":"enum FlowMultiSigWallet.WalletType"}]}],"stateMutability":"view"},{"type":"function","name":"getWalletByENSName","inputs":[{"name":"ensName","type":"string","internalType":"string"}],"outputs":[{"name":"","type":"uint256","internalType":"uint256"}],"stateMutability":"view"},{"type":"function","name":"getWalletProposals","inputs":[{"name":"walletId","type":"uint256","internalType":"uint256"}],"outputs":[{"name":"","type":"uint256[]","internalType":"uint256[]"}],"stateMutability":"view"},{"type":"function","name":"getWalletsByOwner","inputs":[{"name":"owner","type":"address","internalType":"address"}],"outputs":[{"name":"","type":"uint256[]","internalType":"uint256[]"}],"stateMutability":"view"},{"type":"function","name":"hasApproved","inputs":[{"name":"proposalId","type":"uint256","internalType":"uint256"},{"name":"approver","type":"address","internalType":"address"}],"outputs":[{"name":"","type":"bool","internalType":"bool"}],"stateMutability":"view"},{"type":"function","name":"hasRejected","inputs":[{"name":"proposalId","type":"uint256","internalType":"uint256"},{"name":"rejector","type":"address","internalType":"address"}],"outputs":[{"name":"","type":"bool","internalType":"bool"}],"stateMutability":"view"},{"type":"function","name":"isAgentWallet","inputs":[{"name":"","type":"uint256","internalType":"uint256"}],"outputs":[{"name":"","type":"bool","internalType":"bool"}],"stateMutability":"view"},{"type":"function","name":"owner","inputs":[],"outputs":[{"name":"","type":"address","internalType":"address"}],"stateMutability":"view"},{"type":"function","name":"ownerWallets","inputs":[{"name":"","type":"address","internalType":"address"},{"name":"","type":"uint256","internalType":"uint256"}],"outputs":[{"name":"","type":"uint256","internalType":"uint256"}],"stateMutability":"view"},{"type":"function","name":"proposalApprovals","inputs":[{"name":"","type":"uint256","internalType":"uint256"},{"name":"","type":"address","internalType":"address"}],"outputs":[{"name":"","type":"bool","internalType":"bool"}],"stateMutability":"view"},{"type":"function","name":"proposalRejections","inputs":[{"name":"","type":"uint256","internalType":"uint256"},{"name":"","type":"address","internalType":"address"}],"outputs":[{"name":"","type":"bool","internalType":"bool"}],"stateMutability":"view"},{"type":"function","name":"proposals","inputs":[{"name":"","type":"uint256","internalType":"uint256"}],"outputs":[{"name":"id","type":"uint256","internalType":"uint256"},{"name":"walletId","type":"uint256","internalType":"uint256"},{"name":"proposer","type":"address","internalType":"address"},{"name":"recipient","type":"address","internalType":"address"},{"name":"amount","type":"uint256","internalType":"uint256"},{"name":"token","type":"address","internalType":"address"},{"name":"description","type":"string","internalType":"string"},{"name":"approvalCount","type":"uint256","internalType":"uint256"},{"name":"executed","type":"bool","internalType":"bool"},{"name":"createdAt","type":"uint256","internalType":"uint256"},{"name":"expiryTime","type":"uint256","internalType":"uint256"},{"name":"proposalType","type":"uint8","internalType":"enum FlowMultiSigWallet.ProposalType"}],"stateMutability":"view"},{"type":"function","name":"rejectProposal","inputs":[{"name":"proposalId","type":"uint256","internalType":"uint256"}],"outputs":[],"stateMutability":"nonpayable"},{"type":"function","name":"renounceOwnership","inputs":[],"outputs":[],"stateMutability":"nonpayable"},{"type":"function","name":"submitAgentProposal","inputs":[{"name":"walletId","type":"uint256","internalType":"uint256"},{"name":"target","type":"address","internalType":"address"},{"name":"amount","type":"uint256","internalType":"uint256"},{"name":"description","type":"string","internalType":"string"},{"name":"agentId","type":"uint256","internalType":"uint256"}],"outputs":[{"name":"","type":"uint256","internalType":"uint256"}],"stateMutability":"nonpayable"},{"type":"function","name":"transferOwnership","inputs":[{"name":"newOwner","type":"address","internalType":"address"}],"outputs":[],"stateMutability":"nonpayable"},{"type":"function","name":"walletProposals","inputs":[{"name":"","type":"uint256","internalType":"uint256"},{"name":"","type":"uint256","internalType":"uint256"}],"outputs":[{"name":"","type":"uint256","internalType":"uint256"}],"stateMutability":"view"},{"type":"function","name":"walletToAgentId","inputs":[{"name":"","type":"uint256","internalType":"uint256"}],"outputs":[{"name":"","type":"uint256","internalType":"uint256"}],"stateMutability":"view"},{"type":"function","name":"wallets","inputs":[{"name":"","type":"uint256","internalType":"uint256"}],"outputs":[{"name":"id","type":"uint256","internalType":"uint256"},{"name":"ensName","type":"string","internalType":"string"},{"name":"description","type":"string","internalType":"string"},{"name":"requiredApprovals","type":"uint256","internalType":"uint256"},{"name":"balance","type":"uint256","internalType":"uint256"},{"name":"isActive","type":"bool","internalType":"bool"},{"name":"createdAt","type":"uint256","internalType":"uint256"},{"name":"lastActivity","type":"uint256","internalType":"uint256"},{"name":"walletType","type":"uint8","internalType":"enum FlowMultiSigWallet.WalletType"}],"stateMutability":"view"},{"type":"event","name":"AgentProposalSubmitted","inputs":[{"name":"proposalId","type":"uint256","indexed":true,"internalType":"uint256"},{"name":"walletId","type":"uint256","indexed":true,"internalType":"uint256"},{"name":"agentId","type":"uint256","indexed":true,"internalType":"uint256"},{"name":"description","type":"string","indexed":false,"internalType":"string"}],"anonymous":false},{"type":"event","name":"AgentWalletCreated","inputs":[{"name":"walletId","type":"uint256","indexed":true,"internalType":"uint256"},{"name":"agentId","type":"uint256","indexed":true,"internalType":"uint256"},{"name":"ensName","type":"string","indexed":false,"internalType":"string"}],"anonymous":false},{"type":"event","name":"OwnershipTransferred","inputs":[{"name":"previousOwner","type":"address","indexed":true,"internalType":"address"},{"name":"newOwner","type":"address","indexed":true,"internalType":"address"}],"anonymous":false},{"type":"event","name":"ProposalApproved","inputs":[{"name":"proposalId","type":"uint256","indexed":true,"internalType":"uint256"},{"name":"approver","type":"address","indexed":true,"internalType":"address"}],"anonymous":false},{"type":"event","name":"ProposalCreated","inputs":[{"name":"proposalId","type":"uint256","indexed":true,"internalType":"uint256"},{"name":"walletId","type":"uint256","indexed":true,"internalType":"uint256"},{"name":"proposer","type":"address","indexed":false,"internalType":"address"},{"name":"proposalType","type":"uint8","indexed":false,"internalType":"enum FlowMultiSigWallet.ProposalType"}],"anonymous":false},{"type":"event","name":"ProposalExecuted","inputs":[{"name":"proposalId","type":"uint256","indexed":true,"internalType":"uint256"}],"anonymous":false},{"type":"event","name":"ProposalReadyForExecution","inputs":[{"name":"proposalId","type":"uint256","indexed":true,"internalType":"uint256"},{"name":"walletId","type":"uint256","indexed":true,"internalType":"uint256"}],"anonymous":false},{"type":"event","name":"ProposalRejected","inputs":[{"name":"proposalId","type":"uint256","indexed":true,"internalType":"uint256"},{"name":"rejector","type":"address","indexed":true,"internalType":"address"}],"anonymous":false},{"type":"event","name":"ThresholdChanged","inputs":[{"name":"walletId","type":"uint256","indexed":true,"internalType":"uint256"},{"name":"newThreshold","type":"uint256","indexed":false,"internalType":"uint256"}],"anonymous":false},{"type":"event","name":"WalletCreated","inputs":[{"name":"walletId","type":"uint256","indexed":true,"internalType":"uint256"},{"name":"ensName","type":"string","indexed":false,"internalType":"string"},{"name":"owners","type":"address[]","indexed":false,"internalType":"address[]"},{"name":"requiredApprovals","type":"uint256","indexed":false,"internalType":"uint256"}],"anonymous":false},{"type":"event","name":"WalletOwnersChanged","inputs":[{"name":"walletId","type":"uint256","indexed":true,"internalType":"uint256"},{"name":"newOwners","type":"address[]","indexed":false,"internalType":"address[]"}],"anonymous":false},{"type":"error","name":"OwnableInvalidOwner","inputs":[{"name":"owner","type":"address","internalType":"address"}]},{"type":"error","name":"OwnableUnauthorizedAccount","inputs":[{"name":"account","type":"address","internalType":"address"}]},{"type":"error","name":"ReentrancyGuardReentrantCall","inputs":[]},{"type":"error","name":"SafeERC20FailedOperation","inputs":[{"name":"token","type":"address","internalType":"address"}]}],"bytecode":{"object":"0x6080806040523460755733156062575f8054336001600160a01b0319821681178355916001600160a01b03909116907f8be0079c531659141344cd1fd0a4f28419497f9722a3daafe3b4186f6b6457e09080a360018055613691908161007a8239f35b631e4fbdf760e01b5f525f60045260245ffd5b5f80fdfe6080604052600436101561001a575b3615610018575f80fd5b005b5f3560e01c8063013889bf1461251c578063013cf08b1461248a578063076a447f146124605780630d61b5191461238f5780631a5007dd1461237257806320fb5629146101a05780632358d5a8146122cb5780632d5b75fa1461234357806332007f37146123145780634733c271146122cb5780634a0c21731461221c57806351858e27146122045780635470b13b14611fdc578063574f5e3f14611f6c578063616285ae14611f425780636347ff0814611d49578063715018a614611cf257806379a44cf414611c8e5780637ad71f7214611bd45780637ead6caf14611b7c5780638da5cb5b14611b5557806393fd9cb514611a445780639688dc48146116cf57806398951b5614611532578063ad39a9e5146113dd578063b436636714610e25578063ba79906614610da7578063bc28d87814610c3e578063bc86bc1814610c14578063c7f758a814610b64578063d886078f14610772578063e08a31af1461028f578063f2fde38b1461020a578063f5f50eb1146101ed5763fdd1cd4a0361000e575b346101e95760403660031901126101e9576101b9612d6d565b6004355f52600d60205260405f209060018060a01b03165f52602052602060ff60405f2054166040519015158152f35b5f80fd5b346101e9575f3660031901126101e9576020600354604051908152f35b346101e95760203660031901126101e957610223612d83565b61022b6135a7565b6001600160a01b0316801561027c575f80546001600160a01b03198116831782556001600160a01b0316907f8be0079c531659141344cd1fd0a4f28419497f9722a3daafe3b4186f6b6457e09080a3005b631e4fbdf760e01b5f525f60045260245ffd5b346101e95760c03660031901126101e9576004356102ab612d6d565b604435916064356001600160a01b0381169291908390036101e9576084356001600160401b0381116101e9576102e5903690600401612b30565b9360a43595600687109283156101e957845f52600460205260405f20965f60035f99018054995b8a8110610734575b50506103279192939495969798506131b6565b855f52600460205261033e60405f205415156131f7565b855f52600460205261035960ff600660405f200154166133c8565b80156106f857871580156106ee575b61066b575b610378600254612faa565b968760025562093a80420193844211610657576040519561039887612be1565b8987526103d260208801958a8752604089019533875260608a019560018060a01b0316865260808a0194855260a08a019384523691612fd3565b9160c0880192835260e08801935f85526101008901955f87526101208a01974289526101408b01998a526101608b019b1561057b578e8c525f8e81526007602052604090209a518b555160018b01555160028a0180546001600160a01b03199081166001600160a01b0393841617909155915160038b0180548416918316919091179055915160048a01559151600589018054909316911617905551805160068701916001600160401b0382116106435761048d8354612b8d565b601f8111610608575b50602090601f831160011461059a579180600b9998979694926104ed96945f9261058f575b50508160011b915f199060031b1c19161790555b516007860155511515600885019060ff801983541691151516179055565b51600983015551600a820155019051600681101561057b5760209484927fa9b7501054ec8150de9dd4c4819fea4051fa3f26ac91d7d08bfb403ea9a9c2169260ff80198354169116179055835f526008865261054c8360405f2061305d565b835f526004865242600860405f20015561056f6040519133835287830190612ce2565b604090a3604051908152f35b634e487b7160e01b5f52602160045260245ffd5b015190508e806104bb565b90601f19831691845f52815f20925f5b8181106105f057509260019285926104ed9896600b9d9c9b9a9896106105d8575b505050811b0190556104cf565b01515f1960f88460031b161c191690558e80806105cb565b929360206001819287860151815501950193016105aa565b61063390845f5260205f20601f850160051c81019160208610610639575b601f0160051c0190613015565b8c610496565b9091508190610626565b634e487b7160e01b5f52604160045260245ffd5b634e487b7160e01b5f52601160045260245ffd5b6001600160a01b038716156106b5578261036d5760405162461bcd60e51b815260206004820152600e60248201526d125b9d985b1a5908185b5bdd5b9d60921b6044820152606490fd5b60405162461bcd60e51b8152602060048201526011602482015270125b9d985b1a59081c9958da5c1a595b9d607a1b6044820152606490fd5b5060018814610368565b60405162461bcd60e51b815260206004820152601460248201527311195cd8dc9a5c1d1a5bdb881c995c5d5a5c995960621b6044820152606490fd5b61073e8183612dc3565b905460039190911b1c6001600160a01b0316331461075e5760010161030c565b50979850889750600190506103278b610314565b346101e95760a03660031901126101e95760043561078e612d6d565b906064356001600160401b0381116101e9576107ae903690600401612b30565b929091608435918115610b2b57815f5260096020526107d360ff60405f20541661327d565b815f52600a6020528260405f205403610ada57815f52600460205261080160ff600660405f200154166133c8565b61080c600254612faa565b938460025562015180420191824211610657575f92866040519261082f84612be1565b81845260208401908782526040850190338252606086019060018060a01b031681528b60808701604435815261086e60a08901928b845236908b612fd3565b60c0890190815260e089018b81526101008a018c8152426101208c019081526101408c019a8b526101608c019d8e525f998a52600760205260409099209a518b55965160018b0155945160028a0180546001600160a01b03199081166001600160a01b0393841617909155945160038b0180548716918316919091179055915160048a0155915160058901805490941691161790915551805160068701916001600160401b038211610643576109248354612b8d565b601f8111610aaa575b50602090601f8311600114610a3d579180600b99989796949261098296945f92610a325750508160011b915f199060031b1c1916179055516007860155511515600885019060ff801983541691151516179055565b51600983015551600a82015501915190600682101561057b5760209686937f80c1808b4ed68b00b1fd7570fd25b177c981de577691626d28279daa972998899360ff80198354169116179055845f52600888526109e28460405f2061305d565b84847fa9b7501054ec8150de9dd4c4819fea4051fa3f26ac91d7d08bfb403ea9a9c216604080513381525f8d820152a3610a276040519283928a84528a840191613080565b0390a4604051908152f35b015190505f806104bb565b90601f19831691845f52815f20925f5b818110610a9257509260019285926109829896600b9d9c9b9a989610610a7a57505050811b0190556104cf565b01515f1960f88460031b161c191690555f80806105cb565b92936020600181928786015181550195019301610a4d565b610ad490845f5260205f20601f850160051c8101916020861061063957601f0160051c0190613015565b8e61092d565b60405162461bcd60e51b8152602060048201526024808201527f4167656e74206e6f7420617574686f72697a656420666f7220746869732077616044820152631b1b195d60e21b6064820152608490fd5b60405162461bcd60e51b8152602060048201526011602482015270125b9d985b1a59081dd85b1b195d081251607a1b6044820152606490fd5b346101e95760203660031901126101e957600435805f526007602052610b8f60405f205415156130df565b5f52600760205260405f208054610c1060018301549260018060a01b0360028201541660018060a01b036003830154169060048301549060018060a01b036005850154169060078501549060ff60088701541692600987015494600a88015496610c03600660ff600b8c0154169a01612c1e565b936040519c8d9c8d612cef565b0390f35b346101e95760203660031901126101e9576004355f526005602052602060405f2054604051908152f35b346101e95760203660031901126101e957600435805f526007602052610c6960405f205415156130df565b805f526007602052610c8560ff600860405f200154161561312b565b805f526007602052610c9f600a60405f2001544210613177565b805f526007602052600160405f2001545f52600460205260405f205f60035f92018054925b838110610d6d575b84610cd6846131b6565b5f818152600c60209081526040808320338452909152902054610cfc9060ff1615613408565b5f818152600d60209081526040808320338452909152902054610d229060ff1615613447565b5f818152600d602090815260408083203380855292528220805460ff1916600117905591907fff556cafc8033c441c6fea0e40d12f0ec0c8c9168f6bac576e84800331b1a52f9080a3005b610d778183612dc3565b905460039190911b1c6001600160a01b03163314610d9757600101610cc4565b50505050610cd660018380610ccc565b346101e95760203660031901126101e9576001600160a01b03610dc8612d83565b165f52600660205260405f206040519081602082549182815201915f5260205f20905f5b818110610e0f57610c1085610e0381870382612bfd565b60405191829182612de5565b8254845260209093019260019283019201610dec565b346101e95760a03660031901126101e9576004356001600160401b0381116101e957610e55903690600401612b30565b6024356001600160401b0381116101e957610e74903690600401612b30565b91909260443591610e86811515612e1e565b821561139857825f52600b60205260405f205461135357610ea8600354612faa565b938460035560609060405190610ebe8383612bfd565b600282526020820197601f198401368a3782511561133f5733895282516001101561133f5787916101236040850152610f1a60405192610efd84612bc5565b848452610f0b36898b612fd3565b92602085019384523691612fd3565b60408301908152858301858152608084016002815260a08501905f825260c08601926001845260e08701944286526101008801964288526101208901995f8b525f52600460205260405f20985189556001890190518051906001600160401b038211610643578190610f8c8454612b8d565b601f811161130f575b50602090601f83116001146112ac575f926112a1575b50508160011b915f199060031b1c19161790555b51805160028901916001600160401b038211610643578190610fe18454612b8d565b601f8111611271575b50602090601f831160011461120e575f92611203575b50508160011b915f199060031b1c19161790555b5180519060038801906001600160401b03831161064357602090611038848461302b565b01905f5260205f205f5b8381106111e657505050509161107c91600996959493516004870155516005860155511515600685019060ff801983541691151516179055565b516007830155516008820155019051600881101561057b5760ff80198354169116179055855f52600960205260405f20600160ff19825416179055855f52600a6020528460405f2055845f52600b6020528560405f20556040516020810190848683376110fc6020828781015f838201520301601f198101835282612bfd565b5190205f5260056020528560405f2055335f5260066020526111218660405f2061305d565b60206111366040519380855284018587613080565b918383038285015251918281520196905f5b8181106111c757505050917ff1abec323ae1185da04ecc11a5d716e1be6868197a3b8489533339238158a35b91857fe9cf0e917430bac45c4a9bf190ea209f5cf648bea051a9f22154d4e892c6c22a858060209a60026040869a01520390a26111bc60405192839289845289840191613080565b0390a3604051908152f35b82516001600160a01b0316895260209889019890920191600101611148565b82516001600160a01b031681830155602090920191600101611042565b015190505f80611000565b5f8581528281209350601f198516905b8181106112595750908460019594939210611241575b505050811b019055611014565b01515f1960f88460031b161c191690555f8080611234565b9293602060018192878601518155019501930161121e565b61129b90855f5260205f20601f850160051c8101916020861061063957601f0160051c0190613015565b5f610fea565b015190505f80610fab565b5f8581528281209350601f198516905b8181106112f757509084600195949392106112df575b505050811b019055610fbf565b01515f1960f88460031b161c191690555f80806112d2565b929360206001819287860151815501950193016112bc565b61133990855f5260205f20601f850160051c8101916020861061063957601f0160051c0190613015565b5f610f95565b634e487b7160e01b5f52603260045260245ffd5b60405162461bcd60e51b815260206004820152601a60248201527f4167656e7420616c72656164792068617320612077616c6c65740000000000006044820152606490fd5b60405162461bcd60e51b815260206004820152601760248201527f56616c6964206167656e742049442072657175697265640000000000000000006044820152606490fd5b346101e9576113eb36612dad565b815f52600460205260405f20905f60035f93018054935b8481106114f6575b50506114179192506131b6565b815f52600460205261142e60405f205415156131f7565b815f52600460205261144960ff600660405f200154166133c8565b801515806114dd575b156114a45760207f3164947cf0f49f08dd0cd80e671535b1e11590d347c55dcaa97ba3c24a96b33a91835f526004825280600460405f200155835f526004825242600860405f200155604051908152a2005b60405162461bcd60e51b8152602060048201526011602482015270125b9d985b1a59081d1a1c995cda1bdb19607a1b6044820152606490fd5b50815f526004602052600360405f200154811115611452565b6115008183612dc3565b905460039190911b1c6001600160a01b0316331461152057600101611402565b5050509050611417600182918561140a565b346101e95760203660031901126101e957600435805f52600760205261155d60405f205415156130df565b805f52600760205261157960ff600860405f200154161561312b565b805f526007602052611593600a60405f2001544210613177565b805f52600760205260405f2060018101545f52600460205260405f205f915f600383018054915b828110611691575b5050506007906115d4600493946131b6565b5f858152600c602090815260408083203384529091529020546115fa9060ff1615613408565b5f858152600d602090815260408083203384529091529020546116209060ff1615613447565b845f52600c60205260405f2060018060a01b0333165f5260205260405f20600160ff1982541617905501916116558354612faa565b80935533847f049c28adfe50bcf1b76fd95273b6a24566b9f377e52fddc653c3355248dad07a5f80a30154111561168857005b61001890613486565b61169b8183612dc3565b905460039190911b1c6001600160a01b031633146116bb576001016115ba565b50600194508291506115d4905060046115c2565b346101e95760403660031901126101e9576004356024356001600160401b0381116101e957611702903690600401612b5d565b9190815f52600460205260405f205f9060035f91018054915b8281106119f8575b50505061172f906131b6565b815f52600460205261174660405f205415156131f7565b815f52600460205261176160ff600660405f200154166133c8565b61176c831515612e5e565b611779600a841115612eaa565b5f5b8381106119775750815f526004602052600360405f2001925f915b845483101561188b576117a98386612dc3565b60018060a01b0391549060031b1c165f52600660205260405f20945f5b86548082101561187e57866117db838a612dc3565b90549060031b1c146117f057506001016117c6565b9296919491925f19810191908211610657576118206118126118389386612dc3565b90549060031b1c9185612dc3565b90919082549060031b91821b915f19901b1916179055565b815491821561186a576001925f1901906118528282612dc3565b8154905f199060031b1b19169055555b019193611796565b634e487b7160e01b5f52603160045260245ffd5b5050926001919550611862565b8390815f526004602052600360405f20016001600160401b038411610643576118b4848261302b565b81905f5260205f20905f5b85811061195c575050505f5b838110611923575081927f9b0ba46e41feea03907f50008f0fa668194386aed6c9fc6a8f5dae360f660a04925f52600460205242600860405f20015561191e6040519283926020845260208401916130a0565b0390a2005b6001906001600160a01b0361194161193c838887612ef6565b612f06565b165f5260066020526119568460405f2061305d565b016118cb565b600190602061196a84612f06565b93019281850155016118bf565b90929061199b6001600160a01b0361199361193c848689612ef6565b161515612f1a565b60018101808211610657575b8281106119ba575060010192909261177b565b6001906119f26119ce61193c85878a612ef6565b838060a01b036119e261193c85898c612ef6565b1690848060a01b03161415612f5e565b016119a7565b611a088183989594979698612dc3565b905460039190911b1c6001600160a01b03163314611a2e5760010195939491929561171b565b50505090915061172f6001908580959395611723565b346101e95760203660031901126101e957600435611a6381151561323b565b805f52600760205260405f2090611a7c825415156130df565b600182015491825f526009602052611a9a60ff60405f20541661327d565b5f828152600c6020908152604080832033845290915290205460ff1615611abd57005b5f828152600c602090815260408083203384529091529020805460ff191660011790556007018054611aee90612faa565b80915533827f049c28adfe50bcf1b76fd95273b6a24566b9f377e52fddc653c3355248dad07a5f80a3825f526004602052600460405f2001541115611b2f57005b7fad5806056cff5e0a2fb2c75c8cc7a9cfbca251cd9928dfcba01f1f74d39e164d5f80a3005b346101e9575f3660031901126101e9575f546040516001600160a01b039091168152602090f35b346101e95760403660031901126101e957611b95612d83565b6001600160a01b03165f908152600660205260409020805460243591908210156101e957602091611bc591612dc3565b90549060031b1c604051908152f35b346101e95760203660031901126101e9576004355f52600460205260405f208054611c0160018301612c1e565b91610c10611c1160028301612c1e565b600483015492600581015460ff600683015416600783015491611c6760ff600960088701549601541695611c596040519b8c9b8c5261012060208d01526101208c0190612cbe565b908a820360408c0152612cbe565b9660608901526080880152151560a087015260c086015260e0850152610100840190612dd8565b346101e95760203660031901126101e9576004355f52600860205260405f206040519081602082549182815201915f5260205f20905f5b818110611cdc57610c1085610e0381870382612bfd565b8254845260209093019260019283019201611cc5565b346101e9575f3660031901126101e957611d0a6135a7565b5f80546001600160a01b0319811682556001600160a01b03167f8be0079c531659141344cd1fd0a4f28419497f9722a3daafe3b4186f6b6457e08280a3005b346101e95760203660031901126101e957600435611d6881151561323b565b805f52600760205260405f20611d80815415156130df565b6008810190815491611d9560ff84161561312b565b600182015492835f526009602052611db360ff60405f20541661327d565b6007830154845f526004602052600460405f20015411611f0457600190611de0600a850154421115613177565b60ff191617905560058101546001600160a01b031680611e6957505f808080611e33944790611e1660048201548093101561330b565b600301546001600160a01b03165af1611e2d613357565b50613386565b5f52600460205242600860405f2001557f712ae1383f79ac853f8d882153778e0260ef8f03b504e2866e0593e04d2b291f5f80a2005b6040516370a0823160e01b81523060048201529190602083602481845afa918215611ef9575f92611ec3575b611ebe9350611eab6004820154809410156132bf565b600301546001600160a01b0316906135cd565b611e33565b91506020833d602011611ef1575b81611ede60209383612bfd565b810103126101e957611ebe925191611e95565b3d9150611ed1565b6040513d5f823e3d90fd5b60405162461bcd60e51b8152602060048201526016602482015275496e73756666696369656e7420617070726f76616c7360501b6044820152606490fd5b346101e95760203660031901126101e9576004355f52600a602052602060405f2054604051908152f35b346101e95760203660031901126101e9576004356001600160401b0381116101e957611f9c903690600401612b30565b611fc3602060405183819483830196873781015f838201520301601f198101835282612bfd565b5190205f526005602052602060405f2054604051908152f35b346101e95760203660031901126101e9576004355f61012060405161200081612bc5565b82815260606020820152606060408201526060808201528260808201528260a08201528260c08201528260e0820152826101008201520152805f52600460205261204f60405f205415156131f7565b5f52600460205260405f2060405161206681612bc5565b8154815261207660018301612c1e565b916020820192835261208a60028201612c1e565b90604083019182526003810191604051808460208296549384815201905f5260205f20925f5b8181106121e25750506120c592500384612bfd565b60608401928352600482015460808501908152600583015460a0860190815260ff6006850154169160c08701921515835261216360078601549460e0890195865261215060ff600960088a0154996101008d019a8b520154169a61212e6101208c019c8d613009565b6040519a60208c525160208c01525161014060408c01526101608b0190612cbe565b9051898203601f190160608b0152612cbe565b955195601f19888203016080890152602080885192838152019701905f5b8181106121c3575050509186979391610c1095935160a08901525160c088015251151560e0870152516101008601525161012085015251610140840190612dd8565b82516001600160a01b0316895260209889019890920191600101612181565b84546001600160a01b03168352600194850194889450602090930192016120b0565b346101e9575f3660031901126101e9576100186135a7565b346101e95760203660031901126101e957600435805f52600460205260405f205f60035f92018054925b838110612291575b84612258846131b6565b805f52600460205261226f60405f205415156131f7565b5f90815260046020526040902060068101805460ff1916905542600890910155005b61229b8183612dc3565b905460039190911b1c6001600160a01b031633146122bb57600101612246565b505050506122586001838061224e565b346101e95760403660031901126101e9576122e4612d6d565b6004355f52600c60205260405f209060018060a01b03165f52602052602060ff60405f2054166040519015158152f35b346101e95761232236612dad565b905f52600860205260405f2080548210156101e957602091611bc591612dc3565b346101e95760203660031901126101e9576004355f526009602052602060ff60405f2054166040519015158152f35b346101e9575f3660031901126101e9576020600254604051908152f35b346101e95760203660031901126101e957600435805f5260076020526123ba60405f205415156130df565b805f5260076020526123d660ff600860405f200154161561312b565b805f5260076020526123f0600a60405f2001544210613177565b805f52600760205260405f2060018101545f5260046020526004600760405f20920154910154116124245761001890613486565b60405162461bcd60e51b81526020600482015260146024820152734e6f7420656e6f75676820617070726f76616c7360601b6044820152606490fd5b346101e95760203660031901126101e9576004355f52600b602052602060405f2054604051908152f35b346101e95760203660031901126101e9576004355f52600760205260405f208054610c1060018301549260018060a01b036002820154169060018060a01b03600382015416600482015460018060a01b036005840154166124ed60068501612c1e565b60078501549160ff6008870154169360098701549560ff600b600a8a015499015416986040519c8d9c8d612cef565b346101e95760a03660031901126101e9576004356001600160401b0381116101e95761254c903690600401612b30565b6024356001600160401b0381116101e95761256b903690600401612b30565b91906044356001600160401b0381116101e95761258c903690600401612b5d565b6064359260843560088110156101e9576125a7861515612e1e565b6125b2831515612e5e565b84151580612b26575b15612ae1576125cd600a841115612eaa565b6040516020810190878a83376125f66020828a81015f838201520301601f198101835282612bfd565b51902091825f52600560205260405f2054612aa3575f5b848110612a3f5750612620600354612faa565b97886003556126436040519261263584612bc5565b8a8452610f0b368b8e612fd3565b604083019081526001600160401b03861161064357604051600587901b61266d6020820183612bfd565b8782528801602082013682116101e957908c949392918a905b828210612a1a5750505060608501908152608085018a815260a08601915f835260c08701936001855260e08801954287526101008901974289526126cf6101208b019b8c613009565b5f52600460205260405f20985189556001890190518051906001600160401b0382116106435781906127018454612b8d565b601f81116129ea575b50602090601f8311600114612987575f9261297c575b50508160011b915f199060031b1c19161790555b51805160028901916001600160401b0382116106435781906127568454612b8d565b601f811161294c575b50602090601f83116001146128e9575f926128de575b50508160011b915f199060031b1c19161790555b5180519060038801906001600160401b038311610643576020906127ad848461302b565b01905f5260205f205f5b8381106128c15750505050916127f191600996959493516004870155516005860155511515600685019060ff801983541691151516179055565b516007830155516008820155019051600881101561057b5760ff801983541691161790555f5260056020528460405f20555f5b81811061288d5750927fe9cf0e917430bac45c4a9bf190ea209f5cf648bea051a9f22154d4e892c6c22a9261287c60209793879661286f604051968796606088526060880191613080565b918583038b8701526130a0565b9060408301520390a2604051908152f35b6001906001600160a01b036128a661193c838688612ef6565b165f5260066020526128bb8760405f2061305d565b01612824565b82516001600160a01b0316818301556020909201916001016127b7565b015190505f80612775565b5f8581528281209350601f198516905b818110612934575090846001959493921061291c575b505050811b019055612789565b01515f1960f88460031b161c191690555f808061290f565b929360206001819287860151815501950193016128f9565b61297690855f5260205f20601f850160051c8101916020861061063957601f0160051c0190613015565b5f61275f565b015190505f80612720565b5f8581528281209350601f198516905b8181106129d257509084600195949392106129ba575b505050811b019055612734565b01515f1960f88460031b161c191690555f80806129ad565b92936020600181928786015181550195019301612997565b612a1490855f5260205f20601f850160051c8101916020861061063957601f0160051c0190613015565b5f61270a565b8192939495965060209190612a2f8392612d99565b81520191018d9594939291612686565b612a586001600160a01b0361199361193c84898b612ef6565b60018101808211610657575b858110612a74575060010161260d565b600190612a9d612a8861193c858a8c612ef6565b896119e261193c858c888060a01b0394612ef6565b01612a64565b60405162461bcd60e51b815260206004820152601660248201527522a729903730b6b29030b63932b0b23c903a30b5b2b760511b6044820152606490fd5b60405162461bcd60e51b815260206004820152601a60248201527f496e76616c696420617070726f76616c207468726573686f6c640000000000006044820152606490fd5b50828511156125bb565b9181601f840112156101e9578235916001600160401b0383116101e957602083818601950101116101e957565b9181601f840112156101e9578235916001600160401b0383116101e9576020808501948460051b0101116101e957565b90600182811c92168015612bbb575b6020831014612ba757565b634e487b7160e01b5f52602260045260245ffd5b91607f1691612b9c565b61014081019081106001600160401b0382111761064357604052565b61018081019081106001600160401b0382111761064357604052565b90601f801991011681019081106001600160401b0382111761064357604052565b9060405191825f825492612c3184612b8d565b8084529360018116908115612c9c5750600114612c58575b50612c5692500383612bfd565b565b90505f9291925260205f20905f915b818310612c80575050906020612c56928201015f612c49565b6020919350806001915483858901015201910190918492612c67565b905060209250612c5694915060ff191682840152151560051b8201015f612c49565b805180835260209291819084018484015e5f828201840152601f01601f1916010190565b90600682101561057b5752565b979c9b99959193612c569b9793612d4c956101609b97938b5260208b015260018060a01b031660408a015260018060a01b03166060890152608088015260018060a01b031660a087015261018060c0870152610180860190612cbe565b9860e085015215156101008401526101208301526101408201520190612ce2565b602435906001600160a01b03821682036101e957565b600435906001600160a01b03821682036101e957565b35906001600160a01b03821682036101e957565b60409060031901126101e9576004359060243590565b805482101561133f575f5260205f2001905f90565b90600882101561057b5752565b60206040818301928281528451809452019201905f5b818110612e085750505090565b8251845260209384019390920191600101612dfb565b15612e2557565b60405162461bcd60e51b8152602060048201526011602482015270115394c81b985b59481c995c5d5a5c9959607a1b6044820152606490fd5b15612e6557565b60405162461bcd60e51b815260206004820152601b60248201527f4174206c65617374206f6e65206f776e657220726571756972656400000000006044820152606490fd5b15612eb157565b60405162461bcd60e51b815260206004820152601960248201527f4d6178696d756d203130206f776e65727320616c6c6f776564000000000000006044820152606490fd5b919081101561133f5760051b0190565b356001600160a01b03811681036101e95790565b15612f2157565b60405162461bcd60e51b8152602060048201526015602482015274496e76616c6964206f776e6572206164647265737360581b6044820152606490fd5b15612f6557565b60405162461bcd60e51b815260206004820152601760248201527f4475706c6963617465206f776e657220616464726573730000000000000000006044820152606490fd5b5f1981146106575760010190565b6001600160401b03811161064357601f01601f191660200190565b929192612fdf82612fb8565b91612fed6040519384612bfd565b8294818452818301116101e9578281602093845f960137010152565b600882101561057b5752565b818110613020575050565b5f8155600101613015565b90600160401b81116106435781549080835581811061304957505050565b612c56925f5260205f209182019101613015565b90815491600160401b8310156106435782611820916001612c5695018155612dc3565b908060209392818452848401375f828201840152601f01601f1916010190565b916020908281520191905f5b8181106130b95750505090565b909192602080600192838060a01b036130d188612d99565b1681520194019291016130ac565b156130e657565b60405162461bcd60e51b815260206004820152601760248201527f50726f706f73616c20646f6573206e6f742065786973740000000000000000006044820152606490fd5b1561313257565b60405162461bcd60e51b815260206004820152601960248201527f50726f706f73616c20616c7265616479206578656375746564000000000000006044820152606490fd5b1561317e57565b60405162461bcd60e51b815260206004820152601060248201526f141c9bdc1bdcd85b08195e1c1a5c995960821b6044820152606490fd5b156131bd57565b60405162461bcd60e51b81526020600482015260126024820152712737ba1030903bb0b63632ba1037bbb732b960711b6044820152606490fd5b156131fe57565b60405162461bcd60e51b815260206004820152601560248201527415d85b1b195d08191bd95cc81b9bdd08195e1a5cdd605a1b6044820152606490fd5b1561324257565b60405162461bcd60e51b8152602060048201526013602482015272125b9d985b1a59081c1c9bdc1bdcd85b081251606a1b6044820152606490fd5b1561328457565b60405162461bcd60e51b8152602060048201526013602482015272139bdd08185b881859d95b9d081dd85b1b195d606a1b6044820152606490fd5b156132c657565b60405162461bcd60e51b815260206004820152601a60248201527f496e73756666696369656e7420746f6b656e2062616c616e63650000000000006044820152606490fd5b1561331257565b60405162461bcd60e51b815260206004820152601860248201527f496e73756666696369656e74204554482062616c616e636500000000000000006044820152606490fd5b3d15613381573d9061336882612fb8565b916133766040519384612bfd565b82523d5f602084013e565b606090565b1561338d57565b60405162461bcd60e51b8152602060048201526013602482015272115512081d1c985b9cd9995c8819985a5b1959606a1b6044820152606490fd5b156133cf57565b60405162461bcd60e51b815260206004820152601160248201527057616c6c6574206e6f742061637469766560781b6044820152606490fd5b1561340f57565b60405162461bcd60e51b815260206004820152601060248201526f105b1c9958591e48185c1c1c9bdd995960821b6044820152606490fd5b1561344e57565b60405162461bcd60e51b815260206004820152601060248201526f105b1c9958591e481c995a9958dd195960821b6044820152606490fd5b805f52600760205260405f2060018101545f52600460205260405f2060088201600160ff1982541617905560084291015560ff600b82015416600681101561057b57156134f5575b507f712ae1383f79ac853f8d882153778e0260ef8f03b504e2866e0593e04d2b291f5f80a2565b60058101546001600160a01b03168061352a57505f808080613524944790611e1660048201548093101561330b565b5f6134ce565b6040516370a0823160e01b81523060048201529190602083602481845afa918215611ef9575f92613571575b61356c9350611eab6004820154809410156132bf565b613524565b91506020833d60201161359f575b8161358c60209383612bfd565b810103126101e95761356c925191613556565b3d915061357f565b5f546001600160a01b031633036135ba57565b63118cdaa760e01b5f523360045260245ffd5b60405163a9059cbb60e01b60208281019182526001600160a01b03909416602483015260448083019590955293815290925f9161360b606482612bfd565b519082855af115611ef9575f513d61365257506001600160a01b0381163b155b6136325750565b635274afe760e01b5f9081526001600160a01b0391909116600452602490fd5b6001141561362b56fea26469706673582212202192ce8bc5ee8f908ae15b0cc4d018b9d1f0293b8cddf6bd91a6cde85646820f64736f6c634300081e0033","linkReferences":{}},"methodIdentifiers":{"agentToWalletId(uint256)":"076a447f","approveProposal(uint256)":"98951b56","autoApproveAgentProposal(uint256)":"93fd9cb5","changeApprovalThreshold(uint256,uint256)":"ad39a9e5","changeWalletOwners(uint256,address[])":"9688dc48","createAgentWallet(string,string,uint256,uint256,uint256)":"b4366367","createProposal(uint256,address,uint256,address,string,uint8)":"e08a31af","createWallet(string,string,address[],uint256,uint8)":"013889bf","deactivateWallet(uint256)":"4a0c2173","emergencyPause()":"51858e27","ensNameToWalletId(bytes32)":"bc86bc18","executeAgentProposal(uint256)":"6347ff08","executeProposal(uint256)":"0d61b519","getProposal(uint256)":"c7f758a8","getTotalProposals()":"1a5007dd","getTotalWallets()":"f5f50eb1","getWallet(uint256)":"5470b13b","getWalletByENSName(string)":"574f5e3f","getWalletProposals(uint256)":"79a44cf4","getWalletsByOwner(address)":"ba799066","hasApproved(uint256,address)":"2358d5a8","hasRejected(uint256,address)":"20fb5629","isAgentWallet(uint256)":"2d5b75fa","owner()":"8da5cb5b","ownerWallets(address,uint256)":"7ead6caf","proposalApprovals(uint256,address)":"4733c271","proposalRejections(uint256,address)":"fdd1cd4a","proposals(uint256)":"013cf08b","rejectProposal(uint256)":"bc28d878","renounceOwnership()":"715018a6","submitAgentProposal(uint256,address,uint256,string,uint256)":"d886078f","transferOwnership(address)":"f2fde38b","walletProposals(uint256,uint256)":"32007f37","walletToAgentId(uint256)":"616285ae","wallets(uint256)":"7ad71f72"},"id":42}