{"abi":[{"type":"constructor","inputs":[{"name":"_agentRegistry","type":"address","internalType":"address"}],"stateMutability":"nonpayable"},{"type":"function","name":"FEE_DENOMINATOR","inputs":[],"outputs":[{"name":"","type":"uint256","internalType":"uint256"}],"stateMutability":"view"},{"type":"function","name":"addSupportedToken","inputs":[{"name":"tokenAddress","type":"address","internalType":"address"},{"name":"symbol","type":"string","internalType":"string"},{"name":"name","type":"string","internalType":"string"},{"name":"decimals","type":"uint8","internalType":"uint8"},{"name":"isStablecoin","type":"bool","internalType":"bool"},{"name":"minAmount","type":"uint256","internalType":"uint256"},{"name":"maxAmount","type":"uint256","internalType":"uint256"}],"outputs":[],"stateMutability":"nonpayable"},{"type":"function","name":"agentRegistry","inputs":[],"outputs":[{"name":"","type":"address","internalType":"address"}],"stateMutability":"view"},{"type":"function","name":"agentTransactions","inputs":[{"name":"","type":"bytes32","internalType":"bytes32"},{"name":"","type":"uint256","internalType":"uint256"}],"outputs":[{"name":"","type":"uint256","internalType":"uint256"}],"stateMutability":"view"},{"type":"function","name":"createPaymentRoute","inputs":[{"name":"path","type":"address[]","internalType":"address[]"},{"name":"tokens","type":"address[]","internalType":"address[]"},{"name":"amounts","type":"uint256[]","internalType":"uint256[]"},{"name":"totalFee","type":"uint256","internalType":"uint256"}],"outputs":[{"name":"","type":"uint256","internalType":"uint256"}],"stateMutability":"nonpayable"},{"type":"function","name":"emergencyPause","inputs":[],"outputs":[],"stateMutability":"nonpayable"},{"type":"function","name":"emergencyWithdraw","inputs":[{"name":"token","type":"address","internalType":"address"},{"name":"to","type":"address","internalType":"address"}],"outputs":[],"stateMutability":"nonpayable"},{"type":"function","name":"estimatedGasLimit","inputs":[],"outputs":[{"name":"","type":"uint256","internalType":"uint256"}],"stateMutability":"view"},{"type":"function","name":"estimatedGasPrice","inputs":[],"outputs":[{"name":"","type":"uint256","internalType":"uint256"}],"stateMutability":"view"},{"type":"function","name":"executePaymentRoute","inputs":[{"name":"routeId","type":"uint256","internalType":"uint256"},{"name":"agentId","type":"bytes32","internalType":"bytes32"}],"outputs":[{"name":"","type":"bool","internalType":"bool"}],"stateMutability":"nonpayable"},{"type":"function","name":"getAgentTransactions","inputs":[{"name":"agentId","type":"bytes32","internalType":"bytes32"}],"outputs":[{"name":"","type":"uint256[]","internalType":"uint256[]"}],"stateMutability":"view"},{"type":"function","name":"getEstimatedGasCost","inputs":[],"outputs":[{"name":"","type":"uint256","internalType":"uint256"}],"stateMutability":"view"},{"type":"function","name":"getSupportedTokens","inputs":[],"outputs":[{"name":"","type":"address[]","internalType":"address[]"}],"stateMutability":"view"},{"type":"function","name":"getTotalTransactions","inputs":[],"outputs":[{"name":"","type":"uint256","internalType":"uint256"}],"stateMutability":"view"},{"type":"function","name":"getTransaction","inputs":[{"name":"transactionId","type":"uint256","internalType":"uint256"}],"outputs":[{"name":"","type":"tuple","internalType":"struct FlowPayments.Transaction","components":[{"name":"id","type":"uint256","internalType":"uint256"},{"name":"from","type":"address","internalType":"address"},{"name":"to","type":"address","internalType":"address"},{"name":"amount","type":"uint256","internalType":"uint256"},{"name":"token","type":"address","internalType":"address"},{"name":"txType","type":"uint8","internalType":"enum FlowPayments.TransactionType"},{"name":"status","type":"uint8","internalType":"enum FlowPayments.TransactionStatus"},{"name":"gasFee","type":"uint256","internalType":"uint256"},{"name":"blockNumber","type":"uint256","internalType":"uint256"},{"name":"timestamp","type":"uint256","internalType":"uint256"},{"name":"description","type":"string","internalType":"string"},{"name":"agentId","type":"bytes32","internalType":"bytes32"},{"name":"isAgentTransaction","type":"bool","internalType":"bool"}]}],"stateMutability":"view"},{"type":"function","name":"getUserTransactions","inputs":[{"name":"user","type":"address","internalType":"address"}],"outputs":[{"name":"","type":"uint256[]","internalType":"uint256[]"}],"stateMutability":"view"},{"type":"function","name":"owner","inputs":[],"outputs":[{"name":"","type":"address","internalType":"address"}],"stateMutability":"view"},{"type":"function","name":"paymentRoutes","inputs":[{"name":"","type":"uint256","internalType":"uint256"}],"outputs":[{"name":"routeId","type":"uint256","internalType":"uint256"},{"name":"totalFee","type":"uint256","internalType":"uint256"},{"name":"isActive","type":"bool","internalType":"bool"}],"stateMutability":"view"},{"type":"function","name":"platformFee","inputs":[],"outputs":[{"name":"","type":"uint256","internalType":"uint256"}],"stateMutability":"view"},{"type":"function","name":"removeSupportedToken","inputs":[{"name":"tokenAddress","type":"address","internalType":"address"}],"outputs":[],"stateMutability":"nonpayable"},{"type":"function","name":"renounceOwnership","inputs":[],"outputs":[],"stateMutability":"nonpayable"},{"type":"function","name":"sendPayment","inputs":[{"name":"to","type":"address","internalType":"address"},{"name":"amount","type":"uint256","internalType":"uint256"},{"name":"token","type":"address","internalType":"address"},{"name":"description","type":"string","internalType":"string"},{"name":"agentId","type":"bytes32","internalType":"bytes32"}],"outputs":[],"stateMutability":"nonpayable"},{"type":"function","name":"sendPaymentToENS","inputs":[{"name":"ensName","type":"string","internalType":"string"},{"name":"amount","type":"uint256","internalType":"uint256"},{"name":"token","type":"address","internalType":"address"},{"name":"description","type":"string","internalType":"string"},{"name":"agentId","type":"bytes32","internalType":"bytes32"}],"outputs":[],"stateMutability":"nonpayable"},{"type":"function","name":"stakeTokens","inputs":[{"name":"token","type":"address","internalType":"address"},{"name":"amount","type":"uint256","internalType":"uint256"},{"name":"agentId","type":"bytes32","internalType":"bytes32"}],"outputs":[],"stateMutability":"nonpayable"},{"type":"function","name":"supportedTokenAddresses","inputs":[{"name":"","type":"uint256","internalType":"uint256"}],"outputs":[{"name":"","type":"address","internalType":"address"}],"stateMutability":"view"},{"type":"function","name":"supportedTokens","inputs":[{"name":"","type":"address","internalType":"address"}],"outputs":[{"name":"tokenAddress","type":"address","internalType":"address"},{"name":"symbol","type":"string","internalType":"string"},{"name":"name","type":"string","internalType":"string"},{"name":"decimals","type":"uint8","internalType":"uint8"},{"name":"isStablecoin","type":"bool","internalType":"bool"},{"name":"isActive","type":"bool","internalType":"bool"},{"name":"minAmount","type":"uint256","internalType":"uint256"},{"name":"maxAmount","type":"uint256","internalType":"uint256"}],"stateMutability":"view"},{"type":"function","name":"swapTokens","inputs":[{"name":"tokenIn","type":"address","internalType":"address"},{"name":"tokenOut","type":"address","internalType":"address"},{"name":"amountIn","type":"uint256","internalType":"uint256"},{"name":"minAmountOut","type":"uint256","internalType":"uint256"},{"name":"agentId","type":"bytes32","internalType":"bytes32"}],"outputs":[],"stateMutability":"nonpayable"},{"type":"function","name":"transactions","inputs":[{"name":"","type":"uint256","internalType":"uint256"}],"outputs":[{"name":"id","type":"uint256","internalType":"uint256"},{"name":"from","type":"address","internalType":"address"},{"name":"to","type":"address","internalType":"address"},{"name":"amount","type":"uint256","internalType":"uint256"},{"name":"token","type":"address","internalType":"address"},{"name":"txType","type":"uint8","internalType":"enum FlowPayments.TransactionType"},{"name":"status","type":"uint8","internalType":"enum FlowPayments.TransactionStatus"},{"name":"gasFee","type":"uint256","internalType":"uint256"},{"name":"blockNumber","type":"uint256","internalType":"uint256"},{"name":"timestamp","type":"uint256","internalType":"uint256"},{"name":"description","type":"string","internalType":"string"},{"name":"agentId","type":"bytes32","internalType":"bytes32"},{"name":"isAgentTransaction","type":"bool","internalType":"bool"}],"stateMutability":"view"},{"type":"function","name":"transferOwnership","inputs":[{"name":"newOwner","type":"address","internalType":"address"}],"outputs":[],"stateMutability":"nonpayable"},{"type":"function","name":"updatePlatformFee","inputs":[{"name":"newFee","type":"uint256","internalType":"uint256"}],"outputs":[],"stateMutability":"nonpayable"},{"type":"function","name":"userTransactions","inputs":[{"name":"","type":"address","internalType":"address"},{"name":"","type":"uint256","internalType":"uint256"}],"outputs":[{"name":"","type":"uint256","internalType":"uint256"}],"stateMutability":"view"},{"type":"event","name":"OwnershipTransferred","inputs":[{"name":"previousOwner","type":"address","indexed":true,"internalType":"address"},{"name":"newOwner","type":"address","indexed":true,"internalType":"address"}],"anonymous":false},{"type":"event","name":"PaymentReceived","inputs":[{"name":"transactionId","type":"uint256","indexed":true,"internalType":"uint256"},{"name":"from","type":"address","indexed":true,"internalType":"address"},{"name":"to","type":"address","indexed":true,"internalType":"address"},{"name":"amount","type":"uint256","indexed":false,"internalType":"uint256"},{"name":"token","type":"address","indexed":false,"internalType":"address"}],"anonymous":false},{"type":"event","name":"PaymentRouteCreated","inputs":[{"name":"routeId","type":"uint256","indexed":true,"internalType":"uint256"},{"name":"path","type":"address[]","indexed":false,"internalType":"address[]"}],"anonymous":false},{"type":"event","name":"PaymentSent","inputs":[{"name":"transactionId","type":"uint256","indexed":true,"internalType":"uint256"},{"name":"from","type":"address","indexed":true,"internalType":"address"},{"name":"to","type":"address","indexed":true,"internalType":"address"},{"name":"amount","type":"uint256","indexed":false,"internalType":"uint256"},{"name":"token","type":"address","indexed":false,"internalType":"address"}],"anonymous":false},{"type":"event","name":"PlatformFeeUpdated","inputs":[{"name":"newFee","type":"uint256","indexed":false,"internalType":"uint256"}],"anonymous":false},{"type":"event","name":"TokenAdded","inputs":[{"name":"token","type":"address","indexed":true,"internalType":"address"},{"name":"symbol","type":"string","indexed":false,"internalType":"string"},{"name":"name","type":"string","indexed":false,"internalType":"string"}],"anonymous":false},{"type":"event","name":"TokenRemoved","inputs":[{"name":"token","type":"address","indexed":true,"internalType":"address"}],"anonymous":false},{"type":"event","name":"TransactionStatusUpdated","inputs":[{"name":"transactionId","type":"uint256","indexed":true,"internalType":"uint256"},{"name":"newStatus","type":"uint8","indexed":false,"internalType":"enum FlowPayments.TransactionStatus"}],"anonymous":false},{"type":"error","name":"OwnableInvalidOwner","inputs":[{"name":"owner","type":"address","internalType":"address"}]},{"type":"error","name":"OwnableUnauthorizedAccount","inputs":[{"name":"account","type":"address","internalType":"address"}]},{"type":"error","name":"ReentrancyGuardReentrantCall","inputs":[]},{"type":"error","name":"SafeERC20FailedOperation","inputs":[{"name":"token","type":"address","internalType":"address"}]}],"bytecode":{"object":"0x60806040523461095657613bf06020813803918261001c8161097a565b93849283398101031261095657516001600160a01b03811690819003610956573315610943575f8054336001600160a01b0319821681178355916001600160a01b03909116907f8be0079c531659141344cd1fd0a4f28419497f9722a3daafe3b4186f6b6457e09080a3600180556019600a556404a817c800600b55615208600c55600380546001600160a01b0319169190911790556100bc604061097a565b60048152635553444360e01b60208201526100d7604061097a565b9060088252672aa9a21021b7b4b760c11b60208301526100f561095a565b73a0b86a33e6441b8c4c1c2c3c4d5e6f7a8b9c0d1e80825260208083018481526040840186815260066060860190815260016080870181815260a08801918252620f424060c0890190815264e8d4a5100060e08a019081525f98909852600790965296517fa475f9ef752fe0f256df109692ce78418a46d5a30bef5fa5a13ffa552e1251c280546001600160a01b0319166001600160a01b0392909216919091178155935180519399979496959492937fa475f9ef752fe0f256df109692ce78418a46d5a30bef5fa5a13ffa552e1251c3916001600160401b03821161060957825490600182811c92168015610939575b60208310146106d45781601f8493116108e9575b50602090601f8311600114610886575f9261087b575b50508160011b915f199060031b1c19161790555b9751805190989060028701906001600160401b038111610609578154600181811c91168015610871575b60208210146106d457601f811161082c575b506020601f82116001146107c55781906005999a9b9c5f926107ba575b50508160011b915f199060031b1c19161790555b60ff6003880193511662ff000061ff0085549451151560081b169251151560101b169262ffffff191617171790555160048401555191015560085490680100000000000000008210156106095760018201806008558210156105f55760085f525f516020613bb05f395f51905f5290910180546001600160a01b03191673a0b86a33e6441b8c4c1c2c3c4d5e6f7a8b9c0d1e9081179091556040805181815291935f516020613bd05f395f51905f52938392610361926103539185019061099f565b90838203602085015261099f565b0390a261036e604061097a565b600381526208aa8960eb1b6020820152610388604061097a565b906008825267457468657265756d60c01b60208301526103a661095a565b5f80825260208083018481526040840186815260126060860190815260808601858152600160a0880190815266038d7ea4c6800060c08901908152683635c9adc5dea0000060e08a01908152978052600790965296517f6d5257204ebe7d88fd91ae87941cb2dd9d8062b64ae5a2bd2d28ec40b9fbf6df80546001600160a01b0319166001600160a01b0392909216919091178155935180519399979496959492939192917f6d5257204ebe7d88fd91ae87941cb2dd9d8062b64ae5a2bd2d28ec40b9fbf6e0916001600160401b03821161060957825490600182811c921680156107b0575b60208310146106d45781601f849311610760575b50602090601f83116001146106fd575f926106f2575b50508160011b915f199060031b1c19161790555b9751805190989060028701906001600160401b038111610609578154600181811c911680156106e8575b60208210146106d457601f811161068f575b506020601f82116001146106285781906005999a9b9c5f9261061d575b50508160011b915f199060031b1c19161790555b60ff6003880193511662ff000061ff0085549451151560081b169251151560101b169262ffffff191617171790555160048401555191015560085490680100000000000000008210156106095760018201806008558210156105f55760085f9081525f516020613bb05f395f51905f5290920180546001600160a01b03191690556040805181815292935f516020613bd05f395f51905f52939283926105e3926103539185019061099f565b0390a26040516131ec90816109c48239f35b634e487b7160e01b5f52603260045260245ffd5b634e487b7160e01b5f52604160045260245ffd5b015190505f80610523565b601f1982169b835f52815f209c5f5b81811061067757509160059a9b9c9d9184600195941061065f575b505050811b019055610537565b01515f1960f88460031b161c191690555f8080610652565b838301518f556001909e019d60209384019301610637565b825f5260205f20601f830160051c810191602084106106ca575b601f0160051c01905b8181106106bf5750610506565b5f81556001016106b2565b90915081906106a9565b634e487b7160e01b5f52602260045260245ffd5b90607f16906104f4565b015190505f806104b6565b5f8581528281209350601f198516905b8181106107485750908460019594939210610730575b505050811b0190556104ca565b01515f1960f88460031b161c191690555f8080610723565b9293602060018192878601518155019501930161070d565b909150835f5260205f20601f840160051c810191602085106107a6575b90601f859493920160051c01905b81811061079857506104a0565b5f815584935060010161078b565b909150819061077d565b91607f169161048c565b015190505f8061027d565b601f1982169b835f52815f209c5f5b81811061081457509160059a9b9c9d918460019594106107fc575b505050811b019055610291565b01515f1960f88460031b161c191690555f80806107ef565b838301518f556001909e019d602093840193016107d4565b825f5260205f20601f830160051c81019160208410610867575b601f0160051c01905b81811061085c5750610260565b5f815560010161084f565b9091508190610846565b90607f169061024e565b015190505f80610210565b5f8581528281209350601f198516905b8181106108d157509084600195949392106108b9575b505050811b019055610224565b01515f1960f88460031b161c191690555f80806108ac565b92936020600181928786015181550195019301610896565b909150835f5260205f20601f840160051c8101916020851061092f575b90601f859493920160051c01905b81811061092157506101fa565b5f8155849350600101610914565b9091508190610906565b91607f16916101e6565b631e4fbdf760e01b5f525f60045260245ffd5b5f80fd5b6040519061010082016001600160401b0381118382101761060957604052565b6040519190601f01601f191682016001600160401b0381118382101761060957604052565b805180835260209291819084018484015e5f828201840152601f01601f191601019056fe60806040526004361015610011575f80fd5b5f3560e01c806307cd6753146125055780630d1cfcae146124dd578063236e404d1461208f57806325d2682f14611faf57806326232a2e14611f925780632707b9a614611d655780632d1c821814611d1f57806333ea3dc814611ac85780633c1f269214611a8657806351858e2714611a6e5780636382d9ad146119ca57806368c4ac2614611906578063715018a6146118af57806376319190146117745780637a4e5aae146117575780637c2481951461138c5780638da5cb5b1461136557806395050a201461132e5780639778cbc4146112ca5780639ab88b3014610dfe5780639ace38c214610d06578063a0fa696014610890578063aa0b5988146107fd578063b5c604ff146107e0578063b842ec4414610788578063c871e14c1461076b578063d3c7c2c7146106a3578063d73792a914610687578063ef92539914610605578063f2fde38b146105805763f847d77a1461016e575f80fd5b346104a25760803660031901126104a2576004356001600160401b0381116104a25761019e90369060040161277e565b906024356001600160401b0381116104a2576101be90369060040161277e565b91906044356001600160401b0381116104a2576101df90369060040161277e565b93906101e9613118565b600186111561052f578186036104ea578486036104a6576002549461020d86612908565b6002556040519360c08501908582106001600160401b038311176104445761024f91604052878652610240368a8961292d565b9460208701958652369161292d565b916040850192835261026082612916565b9161026e6040519384612684565b808352602083019060051b8201913683116104a257905b82821061049257505050606084019081526080840191606435835260a085019360018552875f52600960205260405f2095518655600186019051908151916001600160401b03831161044457600160401b8311610444576020906102ee84845481865585612997565b01905f5260205f205f5b8381106104755750505050600285019051908151916001600160401b03831161044457600160401b83116104445760209061033884845481865585612997565b01905f5260205f205f5b8381106104585750505050600384019051908151916001600160401b03831161044457600160401b83116104445760209061038284845481865585612997565b01905f5260205f205f5b83811061043057505050506103bb929160059151600484015551151591019060ff801983541691151516179055565b60405192806020850160208652526040840191905f5b81811061040a57602085807f581a3f5db3fa8eeb9d79a70922202e07a64d899ba1d932d716757aa483bc9ab48988038aa2604051908152f35b909192602080600192838060a01b0361042288612570565b1681520194019291016103d1565b60019060208451940193818401550161038c565b634e487b7160e01b5f52604160045260245ffd5b82516001600160a01b031681830155602090920191600101610342565b82516001600160a01b0316818301556020909201916001016102f8565b8135815260209182019101610285565b5f80fd5b606460405162461bcd60e51b815260206004820152602060248201527f5061746820616e6420616d6f756e7473206c656e677468206d69736d617463686044820152fd5b60405162461bcd60e51b815260206004820152601f60248201527f5061746820616e6420746f6b656e73206c656e677468206d69736d61746368006044820152606490fd5b60405162461bcd60e51b815260206004820152602360248201527f50617468206d7573742068617665206174206c6561737420322061646472657360448201526273657360e81b6064820152608490fd5b346104a25760203660031901126104a25761059961252e565b6105a1613118565b6001600160a01b031680156105f2575f80546001600160a01b03198116831782556001600160a01b0316907f8be0079c531659141344cd1fd0a4f28419497f9722a3daafe3b4186f6b6457e09080a3005b631e4fbdf760e01b5f525f60045260245ffd5b346104a25760203660031901126104a2576001600160a01b0361062661252e565b165f52600560205260405f206040519081602082549182815201915f5260205f20905f5b8181106106715761066d8561066181870382612684565b60405191829182612745565b0390f35b825484526020909301926001928301920161064a565b346104a2575f3660031901126104a25760206040516127108152f35b346104a2575f3660031901126104a2576040518060206008549283815201809260085f527ff3f7a9fe364faab93b216da50a3214154f22a0a2b415b23a84c8169e8b636ee3905f5b81811061074c5750505081610701910382612684565b604051918291602083019060208452518091526040830191905f5b81811061072a575050500390f35b82516001600160a01b031684528594506020938401939092019160010161071c565b82546001600160a01b03168452602090930192600192830192016106eb565b346104a2575f3660031901126104a2576020600b54604051908152f35b346104a25760403660031901126104a2576107a161252e565b6001600160a01b03165f908152600560205260409020805460243591908210156104a2576020916107d19161261b565b90549060031b1c604051908152f35b346104a2575f3660031901126104a2576020600254604051908152f35b346104a25760203660031901126104a257600435610819613118565b6103e88111610853576020817f45610d581145924dd7090a5017e5f2b1d6f42213bb2e95707ff86846bbfcb1ca92600a55604051908152a1005b60405162461bcd60e51b81526020600482015260156024820152744665652063616e6e6f74206578636565642031302560581b6044820152606490fd5b346104a25760403660031901126104a2576108a96129b8565b6004355f52600960205260405f2060ff60058201541615610cce576001810180548015610c99575f198101908111610c85576108e49161261b565b60018060a01b0391549060031b1c1690600381018054905f198201918211610c85576002916109129161261b565b90549060031b1c910180545f198101908111610c85576109319161261b565b60018060a01b0391549060031b1c16916040918251936109518486612684565b601785527f5061796d656e7420726f75746520657865637574696f6e0000000000000000006020860152610986600254612908565b908160025584519561099787612668565b82875233602088015285870185905260608701849052608087018290525f60a0880152600160c088018190525f60e08901819052436101008a0152426101208a015261014089019290925260243561016089018181529015156101808a0190815285845260046020818152948a90208b518155948b015193850180546001600160a01b03199081166001600160a01b03968716179091558a8c0151600287018054831691871691909117905560608c0151600387015560808c015191860180549091169190941617835560a08a01519092906008811015610c7157815460c08c01516005811015610c715760ff60a81b9060a81b169160ff60a01b9060a01b169061ffff60a01b19161717905560e0890151600584015561010089015160068401556101208901516007840155610140600884019901519889516001600160401b0381116104445760209a610aec8354612630565b601f8111610c38575b508b90601f8311600114610bcd579180610b4797969492600a96945f92610bc2575b50508160011b915f199060031b1c19161790555b51600984015551151591019060ff801983541691151516179055565b335f5260058652610b5a82865f20612a5c565b308403610baa575b602435610b90575b8451928352858301525f5160206131975f395f51905f52843393a4600180555160018152f35b6024355f5260068652610ba582865f20612a5c565b610b6a565b835f5260058652610bbd82865f20612a5c565b610b62565b015190508e80610b17565b90601f19831691845f52815f20925f5b818110610c215750926001928592600a9896610b479b9a989610610c09575b505050811b019055610b2b565b01515f1960f88460031b161c191690558e8080610bfc565b92938f600181928786015181550195019301610bdd565b610c6190845f528d5f20601f850160051c8101918f8610610c67575b601f0160051c0190612981565b8c610af5565b9091508190610c54565b634e487b7160e01b5f52602160045260245ffd5b634e487b7160e01b5f52601160045260245ffd5b60405162461bcd60e51b815260206004820152600d60248201526c496e76616c696420726f75746560981b6044820152606490fd5b60405162461bcd60e51b815260206004820152601060248201526f526f757465206e6f742061637469766560801b6044820152606490fd5b346104a25760203660031901126104a2576004355f52600460205260405f20805460018060a01b036001830154169160018060a01b03600282015416610deb600383015460048401546005850154600686015490610dc6600788015493610d6f60088a016126a5565b9560ff600a60098c01549b015416986040519c8d9c8d5260208d015260408c015260608b015260018060a01b03811660808b0152610db660a08b0160ff8360a01c166125b1565b60ff60c08b019160a81c166125be565b60e08801526101008701526101208601526101a06101408601526101a08501906125cb565b9161016084015215156101808301520390f35b346104a25760e03660031901126104a257610e1761252e565b6024356001600160401b0381116104a257610e36903690600401612584565b916044356001600160401b0381116104a257610e56903690600401612584565b926064359160ff83168093036104a257608435958615158097036104a257610e7c613118565b6001600160a01b0385161561128d576001600160a01b0385165f9081526007602052604090206003015460101c60ff1661124857610ec792610ebf9136916128ba565b9436916128ba565b936040519061010082018281106001600160401b038211176104445760409081526001600160a01b0385811680855260208086018981528685018b81526060880198895260808801968752600160a0890181815260a43560c08b0190815260c43560e08c01525f968752600790955296909420885181546001600160a01b031916961695909517855590518051949892969295949293919291890191906001600160401b038211610444578190610f7e8454612630565b601f8111611218575b50602090601f83116001146111b5575f926111aa575b50508160011b915f199060031b1c19161790555b518051906001600160401b03821161044457610fd06002890154612630565b601f8111611177575b50602090601f831160011461110357918060059896949260e09896945f926110f8575b50508160011b915f199060031b1c19161760028901555b60ff6003890193511661ff0084549251151560081b169161ffff19161717825551151562ff000082549160101b169062ff00001916179055516004850155015191015560085491600160401b831015610444576110f3826110c66110da946110a28760017f2fb34ce114a136590b874d8cf80e7652adda576578bacfa4f8023f720f56939499016008556125ef565b81546001600160a01b0393841660039290921b91821b9390911b1916919091179055565b6040519384936040855260408501906125cb565b83810360208501526001600160a01b03909116956125cb565b0390a2005b015190508d80610ffc565b90600289015f52805f20915f5b601f198516811061115f57509260059896949260019260e099979583601f19811610611147575b505050811b016002890155611013565b01515f1960f88460031b161c191690558d8080611137565b91926020600181928685015181550194019201611110565b6111a49060028a015f5260205f20601f850160051c81019160208610610c6757601f0160051c0190612981565b8b610fd9565b015190508d80610f9d565b5f8581528281209350601f198516905b81811061120057509084600195949392106111e8575b505050811b019055610fb1565b01515f1960f88460031b161c191690558d80806111db565b929360206001819287860151815501950193016111c5565b61124290855f5260205f20601f850160051c81019160208610610c6757601f0160051c0190612981565b8e610f87565b60405162461bcd60e51b815260206004820152601760248201527f546f6b656e20616c726561647920737570706f727465640000000000000000006044820152606490fd5b60405162461bcd60e51b8152602060048201526015602482015274496e76616c696420746f6b656e206164647265737360581b6044820152606490fd5b346104a25760203660031901126104a2576004355f52600660205260405f206040519081602082549182815201915f5260205f20905f5b8181106113185761066d8561066181870382612684565b8254845260209093019260019283019201611301565b346104a25760403660031901126104a2576024356004355f52600660205260405f2080548210156104a2576020916107d19161261b565b346104a2575f3660031901126104a2575f546040516001600160a01b039091168152602090f35b346104a25760603660031901126104a2576113a561252e565b602435604435916113b46129b8565b60018060a01b031691825f5260076020526113db60ff600360405f20015460101c166127c1565b6113e6821515612803565b6040516370a0823160e01b8152336004820152602081602481875afa801561174c5783905f90611716575b61141d9250101561284f565b611429823033866129d8565b6040928351916114398584612684565b600d83526c546f6b656e207374616b696e6760981b602084015261145e600254612908565b92836002558115159086519061147382612668565b85825233602083019081523089840190815260608401898152608085018881529360a086019390926003855260c0870195868a968f93958a968f9660018e9c5260e08901965f88526101008a0198438a526101806101208c019b428d5261014081019d8e5261016081019e8f52019d8e525f5260046020525f209c518d5560018060a01b0390511660018d019060018060a01b03166001600160601b0360a01b82541617905560018060a01b0390511660028c019060018060a01b03166001600160601b0360a01b8254161790555160038b015560048a019260018060a01b039060018060a01b03905116166001600160601b0360a01b84541617835551906008821015610c7157825490516005811015610c715761ffff60a01b1990911660a09290921b60ff60a01b169190911760a89190911b60ff60a81b1617905551600587015551600686015551600785015551805160088501916001600160401b038211610444576115e38354612630565b601f81116116e6575b50602090601f831160011461169357918061163d97969492600a96945f92610bc25750508160011b915f199060031b1c191617905551600984015551151591019060ff801983541691151516179055565b335f52600560205261165184875f20612a5c565b61167a575b50835192835260208301525f5160206131975f395f51905f5230933393a460018055005b5f52600660205261168d82855f20612a5c565b84611656565b90601f19831691845f52815f20925f5b8181106116ce5750926001928592600a989661163d9b9a989610610c0957505050811b019055610b2b565b929360206001819287860151815501950193016116a3565b61171090845f5260205f20601f850160051c81019160208610610c6757601f0160051c0190612981565b8c6115ec565b50506020813d602011611744575b8161173160209383612684565b810103126104a2578261141d9151611411565b3d9150611724565b6040513d5f823e3d90fd5b346104a2575f3660031901126104a2576020600c54604051908152f35b346104a25760203660031901126104a25761178d61252e565b611795613118565b6001600160a01b03165f818152600760205260409020600301546117be9060101c60ff166127c1565b5f818152600760205260408120600301805462ff0000191690555b60085490818110156118a857826117ef826125ef565b905460039190911b1c6001600160a01b0316146118105760019150016117d9565b5f198201918211610c85576110a261182a611842936125ef565b905460039190911b1c6001600160a01b0316916125ef565b6008548015611894575f1901611857816125ef565b81549060018060a01b039060031b1b191690556008555b7f4c910b69fe65a61f7531b9c5042b2329ca7179c77290aa7e2eb3afa3c8511fd35f80a2005b634e487b7160e01b5f52603160045260245ffd5b505061186e565b346104a2575f3660031901126104a2576118c7613118565b5f80546001600160a01b0319811682556001600160a01b03167f8be0079c531659141344cd1fd0a4f28419497f9722a3daafe3b4186f6b6457e08280a3005b346104a25760203660031901126104a2576001600160a01b0361192761252e565b165f90815260076020526040902080546001600160a01b031661194c600183016126a5565b91611959600282016126a5565b60038201549160ff61199b600560048401549301549361198d604051988998895261010060208a01526101008901906125cb565b9087820360408901526125cb565b938181166060870152818160081c161515608087015260101c16151560a085015260c084015260e08301520390f35b346104a25760403660031901126104a2576119e361252e565b6119eb612544565b906119f4613118565b6040516370a0823160e01b8152306004820152916001600160a01b039190911690602083602481855afa91821561174c575f92611a38575b611a369350612a21565b005b91506020833d602011611a66575b81611a5360209383612684565b810103126104a257611a36925191611a2c565b3d9150611a46565b346104a2575f3660031901126104a257611a36613118565b346104a25760203660031901126104a2576004356008548110156104a257611aaf6020916125ef565b905460405160039290921b1c6001600160a01b03168152f35b346104a25760203660031901126104a2576004355f610180604051611aec81612668565b8281528260208201528260408201528260608201528260808201528260a08201528260c08201528260e082015282610100820152826101208201526060610140820152826101608201520152805f52600460205260405f205415611cda575f52600460205260405f20604051611b6181612668565b8154815260018201546001600160a01b039081166020830190815260028401548216604084019081526003850154606085019081526004860154938416608086019081529295939192909160a08087019190611bc39082901c60ff16836128f0565b60c087019060a81c60ff16611bd890826128fc565b60058601549060e0880191825260068701549261010089019384526007880154946101208a0195865260088901611c0e906126a5565b6101408b0190815260098a01546101608c01908152600a909a015460ff1615156101808c019081526040805160208082529d519d81019d909d529c516001600160a01b039081169d8d019d909d5298518c1660608c0152965160808b01525190991660a0890152975196978897611c899060c08a01906125b1565b5160e08801611c97916125be565b5161010087015251610120860152516101408501525161016084016101a090526101c08401611cc5916125cb565b91516101808401525115156101a08301520390f35b60405162461bcd60e51b815260206004820152601a60248201527f5472616e73616374696f6e20646f6573206e6f742065786973740000000000006044820152606490fd5b346104a25760203660031901126104a2576004355f526009602052606060405f2080549060ff600560048301549201541690604051928352602083015215156040820152f35b346104a25760a03660031901126104a2576004356001600160401b0381116104a257611d95903690600401612584565b60243590611da161255a565b6064356001600160401b0381116104a257611dc0903690600401612584565b939094611dcb6129b8565b611e12611e0d60018060a01b03851692835f526007602052611df960ff600360405f20015460101c166127c1565b84151596611e0688612803565b36916128ba565b612e39565b936001600160a01b0385168015611f5557611e2b6129b8565b3314611f1a57611e5890825f526007602052611e5360ff600360405f20015460101c166127c1565b612803565b6040516370a0823160e01b8152336004820152602081602481855afa90811561174c575f91611ee0575b5095611ec88386611ed394611e9f611ec397611eda9c101561284f565b611eb8612710611eb1600a54866127ae565b04846128ad565b9687933033846129d8565b612a21565b6084359536916128ba565b9233612a90565b60018055005b919690506020823d602011611f12575b81611efd60209383612684565b810103126104a2579051909590611ec8611e82565b3d9150611ef0565b60405162461bcd60e51b815260206004820152601360248201527221b0b73737ba1039b2b732103a379039b2b63360691b6044820152606490fd5b60405162461bcd60e51b8152602060048201526015602482015274115394c81b985b59481b9bdd081c995cdbdb1d9959605a1b6044820152606490fd5b346104a2575f3660031901126104a2576020600a54604051908152f35b346104a25760a03660031901126104a257611fc861252e565b60243590611fd461255a565b906064356001600160401b0381116104a257611ff4903690600401612584565b929093611fff6129b8565b6001600160a01b038316801561204a573314611f1a576001600160a01b0382165f8181526007602052604090206003015461203f9060101c60ff166127c1565b611e58821515612803565b60405162461bcd60e51b815260206004820152601960248201527f496e76616c696420726563697069656e742061646472657373000000000000006044820152606490fd5b346104a25760a03660031901126104a2576120a861252e565b6120b0612544565b9060443590608435906120c16129b8565b60018060a01b031692835f5260076020526120e860ff600360405f20015460101c166127c1565b6001600160a01b03165f818152600760205260409020600301546121119060101c60ff166127c1565b821561211d8115612803565b81851461249f576040516370a0823160e01b8152336004820152602081602481895afa801561174c5785905f90612469575b61215b9250101561284f565b605f840290848204605f141715610c85576064900460643581106124245761219091612189853033896129d8565b3390612a21565b6040928351916121a08584612684565b600a8352690546f6b656e20737761760b41b60208401526121c2600254612908565b9283600255811515908651906121d782612668565b85825233602083019081523089840190815260608401898152608085018881529360a086019390926002855260c0870195868a968f93958a968f9660018e9c5260e08901965f88526101008a0198438a526101806101208c019b428d5261014081019d8e5261016081019e8f52019d8e525f5260046020525f209c518d5560018060a01b0390511660018d019060018060a01b03166001600160601b0360a01b82541617905560018060a01b0390511660028c019060018060a01b03166001600160601b0360a01b8254161790555160038b015560048a019260018060a01b039060018060a01b03905116166001600160601b0360a01b84541617835551906008821015610c7157825490516005811015610c715761ffff60a01b1990911660a09290921b60ff60a01b169190911760a89190911b60ff60a81b1617905551600587015551600686015551600785015551805160088501916001600160401b038211610444576123478354612630565b601f81116123f4575b50602090601f83116001146123a157918061163d97969492600a96945f92610bc25750508160011b915f199060031b1c191617905551600984015551151591019060ff801983541691151516179055565b90601f19831691845f52815f20925f5b8181106123dc5750926001928592600a989661163d9b9a989610610c0957505050811b019055610b2b565b929360206001819287860151815501950193016123b1565b61241e90845f5260205f20601f850160051c81019160208610610c6757601f0160051c0190612981565b8c612350565b60405162461bcd60e51b815260206004820152601a60248201527f496e73756666696369656e74206f757470757420616d6f756e740000000000006044820152606490fd5b50506020813d602011612497575b8161248460209383612684565b810103126104a2578461215b915161214f565b3d9150612477565b60405162461bcd60e51b815260206004820152601660248201527521b0b73737ba1039bbb0b81039b0b6b2903a37b5b2b760511b6044820152606490fd5b346104a2575f3660031901126104a2576003546040516001600160a01b039091168152602090f35b346104a2575f3660031901126104a2576020612526600b54600c54906127ae565b604051908152f35b600435906001600160a01b03821682036104a257565b602435906001600160a01b03821682036104a257565b604435906001600160a01b03821682036104a257565b35906001600160a01b03821682036104a257565b9181601f840112156104a2578235916001600160401b0383116104a257602083818601950101116104a257565b906008821015610c715752565b906005821015610c715752565b805180835260209291819084018484015e5f828201840152601f01601f1916010190565b6008548110156126075760085f5260205f2001905f90565b634e487b7160e01b5f52603260045260245ffd5b8054821015612607575f5260205f2001905f90565b90600182811c9216801561265e575b602083101461264a57565b634e487b7160e01b5f52602260045260245ffd5b91607f169161263f565b6101a081019081106001600160401b0382111761044457604052565b90601f801991011681019081106001600160401b0382111761044457604052565b9060405191825f8254926126b884612630565b808452936001811690811561272357506001146126df575b506126dd92500383612684565b565b90505f9291925260205f20905f915b8183106127075750509060206126dd928201015f6126d0565b60209193508060019154838589010152019101909184926126ee565b9050602092506126dd94915060ff191682840152151560051b8201015f6126d0565b60206040818301928281528451809452019201905f5b8181106127685750505090565b825184526020938401939092019160010161275b565b9181601f840112156104a2578235916001600160401b0383116104a2576020808501948460051b0101116104a257565b81810292918115918404141715610c8557565b156127c857565b60405162461bcd60e51b8152602060048201526013602482015272151bdad95b881b9bdd081cdd5c1c1bdc9d1959606a1b6044820152606490fd5b1561280a57565b60405162461bcd60e51b815260206004820152601d60248201527f416d6f756e74206d7573742062652067726561746572207468616e20300000006044820152606490fd5b1561285657565b60405162461bcd60e51b8152602060048201526014602482015273496e73756666696369656e742062616c616e636560601b6044820152606490fd5b6001600160401b03811161044457601f01601f191660200190565b91908203918211610c8557565b9291926128c682612892565b916128d46040519384612684565b8294818452818301116104a2578281602093845f960137010152565b6008821015610c715752565b6005821015610c715752565b5f198114610c855760010190565b6001600160401b0381116104445760051b60200190565b92919061293981612916565b936129476040519586612684565b602085838152019160051b81019283116104a257905b82821061296957505050565b6020809161297684612570565b81520191019061295d565b81811061298c575050565b5f8155600101612981565b918181106129a457505050565b6126dd925f5260205f209182019101612981565b6002600154146129c9576002600155565b633ee5aeb560e01b5f5260045ffd5b6040516323b872dd60e01b60208201526001600160a01b0392831660248201529290911660448301526064808301939093529181526126dd91612a1c608483612684565b61313e565b60405163a9059cbb60e01b60208201526001600160a01b0390921660248301526044808301939093529181526126dd91612a1c606483612684565b8054600160401b81101561044457612a799160018201815561261b565b819291549060031b91821b915f19901b1916179055565b9394612a9d600254612908565b93846002558115159060405190612ab382612668565b8682526001600160a01b0397881660208301818152958916604084018181526060850189815293909a1660808501818152919b929a9097919360a0860193929091905f855260c0870195868a9689958f9560018d9b5260e08801955f87526101008901974389526101806101208b019a428c5261014081019c8d5261016081019d8e52019c8d525f52600460205260405f209c518d5560018060a01b0390511660018d019060018060a01b03166001600160601b0360a01b82541617905560018060a01b0390511660028c019060018060a01b03166001600160601b0360a01b8254161790555160038b015560048a019260018060a01b039060018060a01b03905116166001600160601b0360a01b84541617835551906008821015610c7157825490516005811015610c715761ffff60a01b1990911660a09290921b60ff60a01b169190911760a89190911b60ff60a81b1617905551600587015551600686015551600785015551805160088501916001600160401b03821161044457612c3b8354612630565b601f8111612d94575b50602090601f8311600114612d1557935f5160206131975f395f51905f529a98969383600a9460409c9a9894612ca9985f92612d0a5750508160011b915f199060031b1c191617905551600984015551151591019060ff801983541691151516179055565b875f526005602052612cbd87865f20612a5c565b308903612cf1575b612cd8575b5082519182526020820152a4565b5f526006602052612ceb85845f20612a5c565b5f612cca565b885f526005602052612d0587865f20612a5c565b612cc5565b015190505f80610b17565b90601f19831691845f52815f20925f5b818110612d7c57508460409c9a9894612ca998945f5160206131975f395f51905f529f9d9b9894600a9860019510612d6457505050811b019055610b2b565b01515f1960f88460031b161c191690555f8080610bfc565b92936020600181928786015181550195019301612d25565b612dbe90845f5260205f20601f850160051c81019160208610610c6757601f0160051c0190612981565b5f612c44565b81601f820112156104a257805190612ddb82612892565b92612de96040519485612684565b828452602083830101116104a257815f9260208093018386015e8301015290565b519060ff821682036104a257565b51906001600160a01b03821682036104a257565b519081151582036104a257565b604051612e656020828180820195805191829101875e81015f838201520301601f198101835282612684565b519020600354604051638d93461760e01b815260048101929092526001600160a01b031690602081602481855afa90811561174c575f916130e6575b5080156130e0575f90602460405180948193630a270ad960e31b835260048301525afa90811561174c575f91612eea575b506001600160a01b03811615612ee55790565b505f90565b90503d805f833e612efb8183612684565b8101906102e0818303126104a25760208101516001600160401b0381116104a25782612f28918301612dc4565b5060408101516001600160401b0381116104a25782612f48918301612dc4565b50612f5560608201612e0a565b50612f6260808201612e0a565b50612f6f60a08201612e18565b91612f7c60c08301612e18565b506101208201516001600160401b0381116104a257820181601f820112156104a257805190602080612fad84612916565b612fba6040519182612684565b848152019260051b820101918383116104a25760208201905b8382106130b35750505050612feb6101808301612e2c565b506101a08201516001600160401b0381116104a2578161300c918401612dc4565b506102008201516001600160401b0381116104a257820181601f820112156104a25780519060208061303d84612916565b61304a6040519182612684565b848152019260051b8201019283116104a257602001905b82821061309b575050506102a08161307f6102206130949401612e2c565b5061308d6102408201612e2c565b5001612e2c565b505f612ed2565b602080916130a884612e18565b815201910190613061565b81516001600160401b0381116104a2576020916130d587848094880101612dc4565b815201910190612fd3565b50505f90565b90506020813d602011613110575b8161310160209383612684565b810103126104a257515f612ea1565b3d91506130f4565b5f546001600160a01b0316330361312b57565b63118cdaa760e01b5f523360045260245ffd5b905f602091828151910182855af11561174c575f513d61318d57506001600160a01b0381163b155b61316d5750565b635274afe760e01b5f9081526001600160a01b0391909116600452602490fd5b6001141561316656fe95b79c9f9bab289801c0e8c15bd35f6b3ea116e8b4962471baa7d726289bc000a26469706673582212201ea79d330f071f9d66f8cae71dd67d0d09fbd6c10f40db18fc9e52b5bd81984064736f6c634300081e0033f3f7a9fe364faab93b216da50a3214154f22a0a2b415b23a84c8169e8b636ee32fb34ce114a136590b874d8cf80e7652adda576578bacfa4f8023f720f569394","linkReferences":{}},"methodIdentifiers":{"FEE_DENOMINATOR()":"d73792a9","addSupportedToken(address,string,string,uint8,bool,uint256,uint256)":"9ab88b30","agentRegistry()":"0d1cfcae","agentTransactions(bytes32,uint256)":"95050a20","createPaymentRoute(address[],address[],uint256[],uint256)":"f847d77a","emergencyPause()":"51858e27","emergencyWithdraw(address,address)":"6382d9ad","estimatedGasLimit()":"7a4e5aae","estimatedGasPrice()":"c871e14c","executePaymentRoute(uint256,bytes32)":"a0fa6960","getAgentTransactions(bytes32)":"9778cbc4","getEstimatedGasCost()":"07cd6753","getSupportedTokens()":"d3c7c2c7","getTotalTransactions()":"b5c604ff","getTransaction(uint256)":"33ea3dc8","getUserTransactions(address)":"ef925399","owner()":"8da5cb5b","paymentRoutes(uint256)":"2d1c8218","platformFee()":"26232a2e","removeSupportedToken(address)":"76319190","renounceOwnership()":"715018a6","sendPayment(address,uint256,address,string,bytes32)":"25d2682f","sendPaymentToENS(string,uint256,address,string,bytes32)":"2707b9a6","stakeTokens(address,uint256,bytes32)":"7c248195","supportedTokenAddresses(uint256)":"3c1f2692","supportedTokens(address)":"68c4ac26","swapTokens(address,address,uint256,uint256,bytes32)":"236e404d","transactions(uint256)":"9ace38c2","transferOwnership(address)":"f2fde38b","updatePlatformFee(uint256)":"aa0b5988","userTransactions(address,uint256)":"b842ec44"},"id":43}