{"abi":[{"type":"constructor","inputs":[],"stateMutability":"nonpayable"},{"type":"function","name":"agentAddressToId","inputs":[{"name":"","type":"address","internalType":"address"}],"outputs":[{"name":"","type":"uint256","internalType":"uint256"}],"stateMutability":"view"},{"type":"function","name":"agentPermissions","inputs":[{"name":"","type":"uint256","internalType":"uint256"}],"outputs":[{"name":"dailySpendingLimit","type":"uint256","internalType":"uint256"},{"name":"maxTransactionAmount","type":"uint256","internalType":"uint256"},{"name":"canSwapTokens","type":"bool","internalType":"bool"},{"name":"canStakeTokens","type":"bool","internalType":"bool"},{"name":"activeStartTime","type":"uint256","internalType":"uint256"},{"name":"activeEndTime","type":"uint256","internalType":"uint256"},{"name":"isActive","type":"bool","internalType":"bool"},{"name":"multiSigWalletId","type":"uint256","internalType":"uint256"}],"stateMutability":"view"},{"type":"function","name":"agents","inputs":[{"name":"","type":"uint256","internalType":"uint256"}],"outputs":[{"name":"id","type":"uint256","internalType":"uint256"},{"name":"ensName","type":"string","internalType":"string"},{"name":"description","type":"string","internalType":"string"},{"name":"agentType","type":"uint8","internalType":"enum FlowAgentRegistry.AgentType"},{"name":"status","type":"uint8","internalType":"enum FlowAgentRegistry.AgentStatus"},{"name":"owner","type":"address","internalType":"address"},{"name":"agentAddress","type":"address","internalType":"address"},{"name":"reputationScore","type":"uint256","internalType":"uint256"},{"name":"trustScore","type":"uint256","internalType":"uint256"},{"name":"createdAt","type":"uint256","internalType":"uint256"},{"name":"lastActive","type":"uint256","internalType":"uint256"},{"name":"isVerified","type":"bool","internalType":"bool"},{"name":"metadata","type":"string","internalType":"string"},{"name":"dailySpendingLimit","type":"uint256","internalType":"uint256"},{"name":"maxTransactionAmount","type":"uint256","internalType":"uint256"},{"name":"canSwapTokens","type":"bool","internalType":"bool"},{"name":"canStakeTokens","type":"bool","internalType":"bool"},{"name":"activeStartTime","type":"uint256","internalType":"uint256"},{"name":"activeEndTime","type":"uint256","internalType":"uint256"},{"name":"isActive","type":"bool","internalType":"bool"},{"name":"multiSigWalletId","type":"uint256","internalType":"uint256"}],"stateMutability":"view"},{"type":"function","name":"canAgentExecuteTransaction","inputs":[{"name":"agentId","type":"uint256","internalType":"uint256"},{"name":"amount","type":"uint256","internalType":"uint256"},{"name":"recipient","type":"address","internalType":"address"},{"name":"transactionType","type":"string","internalType":"string"}],"outputs":[{"name":"canExecute","type":"bool","internalType":"bool"},{"name":"reason","type":"string","internalType":"string"}],"stateMutability":"view"},{"type":"function","name":"dailySpending","inputs":[{"name":"","type":"uint256","internalType":"uint256"},{"name":"","type":"uint256","internalType":"uint256"}],"outputs":[{"name":"","type":"uint256","internalType":"uint256"}],"stateMutability":"view"},{"type":"function","name":"emergencyBanAgent","inputs":[{"name":"agentId","type":"uint256","internalType":"uint256"}],"outputs":[],"stateMutability":"nonpayable"},{"type":"function","name":"emergencyPauseAgent","inputs":[{"name":"agentId","type":"uint256","internalType":"uint256"}],"outputs":[],"stateMutability":"nonpayable"},{"type":"function","name":"ensNameToAgentId","inputs":[{"name":"","type":"bytes32","internalType":"bytes32"}],"outputs":[{"name":"","type":"uint256","internalType":"uint256"}],"stateMutability":"view"},{"type":"function","name":"getAgent","inputs":[{"name":"agentId","type":"uint256","internalType":"uint256"}],"outputs":[{"name":"","type":"tuple","internalType":"struct FlowAgentRegistry.Agent","components":[{"name":"id","type":"uint256","internalType":"uint256"},{"name":"ensName","type":"string","internalType":"string"},{"name":"description","type":"string","internalType":"string"},{"name":"agentType","type":"uint8","internalType":"enum FlowAgentRegistry.AgentType"},{"name":"status","type":"uint8","internalType":"enum FlowAgentRegistry.AgentStatus"},{"name":"owner","type":"address","internalType":"address"},{"name":"agentAddress","type":"address","internalType":"address"},{"name":"reputationScore","type":"uint256","internalType":"uint256"},{"name":"trustScore","type":"uint256","internalType":"uint256"},{"name":"capabilities","type":"string[]","internalType":"string[]"},{"name":"createdAt","type":"uint256","internalType":"uint256"},{"name":"lastActive","type":"uint256","internalType":"uint256"},{"name":"isVerified","type":"bool","internalType":"bool"},{"name":"metadata","type":"string","internalType":"string"},{"name":"dailySpendingLimit","type":"uint256","internalType":"uint256"},{"name":"maxTransactionAmount","type":"uint256","internalType":"uint256"},{"name":"allowedRecipients","type":"address[]","internalType":"address[]"},{"name":"canSwapTokens","type":"bool","internalType":"bool"},{"name":"canStakeTokens","type":"bool","internalType":"bool"},{"name":"activeStartTime","type":"uint256","internalType":"uint256"},{"name":"activeEndTime","type":"uint256","internalType":"uint256"},{"name":"isActive","type":"bool","internalType":"bool"},{"name":"multiSigWalletId","type":"uint256","internalType":"uint256"}]}],"stateMutability":"view"},{"type":"function","name":"getAgentByENSName","inputs":[{"name":"ensName","type":"string","internalType":"string"}],"outputs":[{"name":"","type":"uint256","internalType":"uint256"}],"stateMutability":"view"},{"type":"function","name":"getAgentsByOwner","inputs":[{"name":"owner","type":"address","internalType":"address"}],"outputs":[{"name":"","type":"uint256[]","internalType":"uint256[]"}],"stateMutability":"view"},{"type":"function","name":"getTotalAgents","inputs":[],"outputs":[{"name":"","type":"uint256","internalType":"uint256"}],"stateMutability":"view"},{"type":"function","name":"isAgentActiveAndVerified","inputs":[{"name":"agentId","type":"uint256","internalType":"uint256"}],"outputs":[{"name":"","type":"bool","internalType":"bool"}],"stateMutability":"view"},{"type":"function","name":"linkAgentToWallet","inputs":[{"name":"agentId","type":"uint256","internalType":"uint256"},{"name":"walletId","type":"uint256","internalType":"uint256"}],"outputs":[],"stateMutability":"nonpayable"},{"type":"function","name":"owner","inputs":[],"outputs":[{"name":"","type":"address","internalType":"address"}],"stateMutability":"view"},{"type":"function","name":"ownerAgents","inputs":[{"name":"","type":"address","internalType":"address"},{"name":"","type":"uint256","internalType":"uint256"}],"outputs":[{"name":"","type":"uint256","internalType":"uint256"}],"stateMutability":"view"},{"type":"function","name":"registerAgent","inputs":[{"name":"ensName","type":"string","internalType":"string"},{"name":"description","type":"string","internalType":"string"},{"name":"agentType","type":"uint8","internalType":"enum FlowAgentRegistry.AgentType"},{"name":"capabilities","type":"string[]","internalType":"string[]"},{"name":"metadata","type":"string","internalType":"string"}],"outputs":[{"name":"","type":"uint256","internalType":"uint256"}],"stateMutability":"nonpayable"},{"type":"function","name":"renounceOwnership","inputs":[],"outputs":[],"stateMutability":"nonpayable"},{"type":"function","name":"setAgentAddress","inputs":[{"name":"agentId","type":"uint256","internalType":"uint256"},{"name":"agentAddress","type":"address","internalType":"address"}],"outputs":[],"stateMutability":"nonpayable"},{"type":"function","name":"setAgentPermissions","inputs":[{"name":"agentId","type":"uint256","internalType":"uint256"},{"name":"dailyLimit","type":"uint256","internalType":"uint256"},{"name":"maxTxAmount","type":"uint256","internalType":"uint256"},{"name":"recipients","type":"address[]","internalType":"address[]"},{"name":"canSwap","type":"bool","internalType":"bool"},{"name":"canStake","type":"bool","internalType":"bool"},{"name":"startTime","type":"uint256","internalType":"uint256"},{"name":"endTime","type":"uint256","internalType":"uint256"}],"outputs":[],"stateMutability":"nonpayable"},{"type":"function","name":"transferOwnership","inputs":[{"name":"newOwner","type":"address","internalType":"address"}],"outputs":[],"stateMutability":"nonpayable"},{"type":"function","name":"updateAgent","inputs":[{"name":"agentId","type":"uint256","internalType":"uint256"},{"name":"newCapabilities","type":"string[]","internalType":"string[]"},{"name":"newMetadata","type":"string","internalType":"string"}],"outputs":[],"stateMutability":"nonpayable"},{"type":"function","name":"updateAgentStatus","inputs":[{"name":"agentId","type":"uint256","internalType":"uint256"},{"name":"newStatus","type":"uint8","internalType":"enum FlowAgentRegistry.AgentStatus"}],"outputs":[],"stateMutability":"nonpayable"},{"type":"function","name":"updateDailySpending","inputs":[{"name":"agentId","type":"uint256","internalType":"uint256"},{"name":"amount","type":"uint256","internalType":"uint256"}],"outputs":[],"stateMutability":"nonpayable"},{"type":"function","name":"updateReputationScore","inputs":[{"name":"agentId","type":"uint256","internalType":"uint256"},{"name":"newScore","type":"uint256","internalType":"uint256"}],"outputs":[],"stateMutability":"nonpayable"},{"type":"function","name":"updateTrustScore","inputs":[{"name":"agentId","type":"uint256","internalType":"uint256"},{"name":"newScore","type":"uint256","internalType":"uint256"}],"outputs":[],"stateMutability":"nonpayable"},{"type":"function","name":"verifyAgent","inputs":[{"name":"agentId","type":"uint256","internalType":"uint256"},{"name":"verified","type":"bool","internalType":"bool"}],"outputs":[],"stateMutability":"nonpayable"},{"type":"event","name":"AgentEmergencyPaused","inputs":[{"name":"agentId","type":"uint256","indexed":true,"internalType":"uint256"},{"name":"pauser","type":"address","indexed":true,"internalType":"address"}],"anonymous":false},{"type":"event","name":"AgentPermissionsUpdated","inputs":[{"name":"agentId","type":"uint256","indexed":true,"internalType":"uint256"},{"name":"dailyLimit","type":"uint256","indexed":false,"internalType":"uint256"},{"name":"maxTxAmount","type":"uint256","indexed":false,"internalType":"uint256"}],"anonymous":false},{"type":"event","name":"AgentRegistered","inputs":[{"name":"agentId","type":"uint256","indexed":true,"internalType":"uint256"},{"name":"ensName","type":"string","indexed":false,"internalType":"string"},{"name":"owner","type":"address","indexed":true,"internalType":"address"},{"name":"agentType","type":"uint8","indexed":false,"internalType":"enum FlowAgentRegistry.AgentType"}],"anonymous":false},{"type":"event","name":"AgentStatusChanged","inputs":[{"name":"agentId","type":"uint256","indexed":true,"internalType":"uint256"},{"name":"newStatus","type":"uint8","indexed":false,"internalType":"enum FlowAgentRegistry.AgentStatus"}],"anonymous":false},{"type":"event","name":"AgentUpdated","inputs":[{"name":"agentId","type":"uint256","indexed":true,"internalType":"uint256"},{"name":"ensName","type":"string","indexed":false,"internalType":"string"}],"anonymous":false},{"type":"event","name":"AgentVerified","inputs":[{"name":"agentId","type":"uint256","indexed":true,"internalType":"uint256"},{"name":"verified","type":"bool","indexed":false,"internalType":"bool"}],"anonymous":false},{"type":"event","name":"AgentWalletLinked","inputs":[{"name":"agentId","type":"uint256","indexed":true,"internalType":"uint256"},{"name":"walletId","type":"uint256","indexed":true,"internalType":"uint256"}],"anonymous":false},{"type":"event","name":"OwnershipTransferred","inputs":[{"name":"previousOwner","type":"address","indexed":true,"internalType":"address"},{"name":"newOwner","type":"address","indexed":true,"internalType":"address"}],"anonymous":false},{"type":"event","name":"ReputationUpdated","inputs":[{"name":"agentId","type":"uint256","indexed":true,"internalType":"uint256"},{"name":"newScore","type":"uint256","indexed":false,"internalType":"uint256"}],"anonymous":false},{"type":"event","name":"TrustScoreUpdated","inputs":[{"name":"agentId","type":"uint256","indexed":true,"internalType":"uint256"},{"name":"newScore","type":"uint256","indexed":false,"internalType":"uint256"}],"anonymous":false},{"type":"error","name":"OwnableInvalidOwner","inputs":[{"name":"owner","type":"address","internalType":"address"}]},{"type":"error","name":"OwnableUnauthorizedAccount","inputs":[{"name":"account","type":"address","internalType":"address"}]},{"type":"error","name":"ReentrancyGuardReentrantCall","inputs":[]}],"bytecode":{"object":"0x6080806040523460755733156062575f8054336001600160a01b0319821681178355916001600160a01b03909116907f8be0079c531659141344cd1fd0a4f28419497f9722a3daafe3b4186f6b6457e09080a360018055612ca0908161007a8239f35b631e4fbdf760e01b5f525f60045260245ffd5b5f80fdfe6101206040526004361015610012575f80fd5b5f3560e01c8063020470ef146121af57806302193cc31461214d578063029ba33b146120bc5780631ab6f8881461200857806320c7c58414611f8e57806321b218ce14611f56578063292dba2514611ed45780632de5aaf714611a3d5780633731a16f14611a205780633911ea71146119f15780634570b1b914611055578063513856c814610e385780635f2709ba14610dc857806362febe4f14610d70578063630d290614610a79578063715018a614610a225780637a7425bd1461096d5780638baf6b71146108fe5780638d934617146108d45780638da5cb5b146108ad578063a868c26114610831578063bb4ab06c1461051d578063c30c84f214610419578063cddd6c63146102a3578063e7de2a451461022d578063f2fde38b146101a85763fdf488f714610143575f80fd5b346101a45760207ea4f8488cd701f9a77136eb5c91d5e2edef3c38001ca7148525acf8a26264816101733661227a565b61017e939193612c44565b61018b606482111561251c565b835f526005825280600560405f200155604051908152a2005b5f80fd5b346101a45760203660031901126101a4576101c1612290565b6101c9612c44565b6001600160a01b0316801561021a575f80546001600160a01b03198116831782556001600160a01b0316907f8be0079c531659141344cd1fd0a4f28419497f9722a3daafe3b4186f6b6457e09080a3005b631e4fbdf760e01b5f525f60045260245ffd5b346101a45760803660031901126101a4576044356001600160a01b03811681036101a457606435906001600160401b0382116101a4576102746102809236906004016122e4565b9160243560043561279f565b9061029f604051928392151583526040602084015260408301906122a6565b0390f35b346101a45760403660031901126101a4576004356024356001600160a01b038116908190036101a457815f5260056020526102f160018060a01b03600360405f20015460101c16331461247c565b815f52600560205261030860405f2054151561256c565b80156103dc57805f52600860205260405f205461039e57815f526005602052600460405f2001816bffffffffffffffffffffffff60a01b8254161790555f5260086020528060405f2055805f5260056020527ff0677ec077e6eec8e31d4e8be0cb20b797f3a9dc243e2ddc641532c0ff412036610399600160405f2001604051918291602083526020830190612379565b0390a2005b60405162461bcd60e51b81526020600482015260166024820152754164647265737320616c726561647920696e2075736560501b6044820152606490fd5b60405162461bcd60e51b8152602060048201526015602482015274496e76616c6964206167656e74206164647265737360581b6044820152606490fd5b346101a45760403660031901126101a45760043560243560048110156101a457815f52600560205261045e60018060a01b03600360405f20015460101c16331461247c565b815f52600560205261047560405f2054151561256c565b600381146104d85760207fb9f5f3c9c3fed644472f1753bf6622a05e4d68ae1d4e193a7c930c43c51dd0e891835f52600582526104b881600360405f20016124fd565b835f526005825242600960405f2001556104d560405180926122d7565ba2005b60405162461bcd60e51b815260206004820152601860248201527f43616e6e6f74207365742062616e6e65642073746174757300000000000000006044820152606490fd5b346101a4576101003660031901126101a4576004356024356044356064356001600160401b0381116101a457610557903690600401612311565b608435918215158093036101a45760a435928315158094036101a45760c43560e43591885f52600560205261059f60018060a01b03600360405f20015460101c16331461247c565b6105aa8915156124be565b828210156107f757610937821115806107eb575b156107b057604051956105d087612416565b88875260208701958887526105e4816125bb565b956105f26040519788612432565b818752602087019160051b8101903682116101a457915b8183106107905750505060408701948552606087019182526080870190815260a0870192835260c0870193845260e0870194600186526101008801965f88528b5f52600460205260405f2098518955516001890155600288019051908151916001600160401b03831161077c57600160401b831161077c576020908254848455808510610761575b5001905f5260205f205f5b838110610744575050505093600793604098969361070f610733948a986106f860037f8d38344f03706649c10df11139591713b23b17e19869883df6ca631f3c03c5a99f9d0192511515839060ff801983541691151516179055565b51815461ff00191690151560081b61ff0016179055565b516004870155516005860155511515600685019060ff801983541691151516179055565b5191015582519182526020820152a2005b82516001600160a01b03168183015560209092019160010161069c565b61077690845f5285845f2091820191016126b5565b8e610691565b634e487b7160e01b5f52604160045260245ffd5b82356001600160a01b03811681036101a457815260209283019201610609565b60405162461bcd60e51b8152602060048201526013602482015272125b9d985b1a59081d1a5b5948199bdc9b585d606a1b6044820152606490fd5b506109378311156105be565b60405162461bcd60e51b8152602060048201526012602482015271496e76616c69642074696d652072616e676560701b6044820152606490fd5b346101a45760203660031901126101a45760043561084d612c44565b805f52600560205261086460405f2054151561256c565b805f526005602052600360405f200161030061ff00198254161790557fb9f5f3c9c3fed644472f1753bf6622a05e4d68ae1d4e193a7c930c43c51dd0e8602060405160038152a2005b346101a4575f3660031901126101a4575f546040516001600160a01b039091168152602090f35b346101a45760203660031901126101a4576004355f526006602052602060405f2054604051908152f35b346101a45760203660031901126101a4576004355f52600560205260405f2060ff600382015460081c1690600482101561095957600160209214908161094a575b506040519015158152f35b60ff9150600a0154168261093f565b634e487b7160e01b5f52602160045260245ffd5b346101a45761097b3661227a565b90805f5260056020526109a160018060a01b03600360405f20015460101c16331461247c565b6109ac8115156124be565b81156109e957805f52600460205281600760405f2001557fcc5ae9e07fa5f23f92aad87139b374642d7423b98262c948aad32e64778d2f5f5f80a3005b60405162461bcd60e51b8152602060048201526011602482015270125b9d985b1a59081dd85b1b195d081251607a1b6044820152606490fd5b346101a4575f3660031901126101a457610a3a612c44565b5f80546001600160a01b0319811682556001600160a01b03167f8be0079c531659141344cd1fd0a4f28419497f9722a3daafe3b4186f6b6457e08280a3005b346101a45760603660031901126101a4576004356024356001600160401b0381116101a457610aac903690600401612311565b6044929192356001600160401b0381116101a45783610ad0849236906004016122e4565b919093835f526005602052610af860018060a01b03600360405f20015460101c16331461247c565b835f526005602052610b0f60405f2054151561256c565b610b1a811515612625565b835f526005602052600760405f200191610b34828461270e565b80925f5260205f20925f91601e1981360301915b848410610c7457888888815f526005602052600b60405f2001906001600160401b03811161077c57610b8481610b7e8454612341565b846126cb565b5f601f8211600114610c12578190610bb39394955f92610c07575b50508160011b915f199060031b1c19161790565b90555b5f8181526005602090815260409182902042600982015591518181527ff0677ec077e6eec8e31d4e8be0cb20b797f3a9dc243e2ddc641532c0ff412036929091829161039991830190600101612379565b013590508580610b9f565b601f19821694835f5260205f20915f5b878110610c5c575083600195969710610c43575b505050811b019055610bb6565b01355f19600384901b60f8161c19169055848080610c36565b90926020600181928686013581550194019101610c22565b8035838112156101a45782018035906001600160401b0382116101a45781360360208201136101a457610cb182610cab8a54612341565b8a6126cb565b5f90601f8311600114610d025792610ce6836001959460209487965f92610cf55750508160011b915f199060031b1c19161790565b89555b01960193019294610b48565b8692500101358f80610b9f565b601f19831691895f5260205f20925f5b818110610d565750936020936001969387969383889510610d3b575b505050811b018955610ce9565b018501355f19600384901b60f8161c191690558e8080610d2e565b919360206001819282888801013581550195019201610d12565b346101a45760403660031901126101a457610d89612290565b6001600160a01b03165f908152600760205260409020805460243591908210156101a457602091610db991612453565b90549060031b1c604051908152f35b346101a45760203660031901126101a4576004356001600160401b0381116101a457610df89036906004016122e4565b610e1f602060405183819483830196873781015f838201520301601f198101835282612432565b5190205f526006602052602060405f2054604051908152f35b346101a45760203660031901126101a4576004355f52600560205260405f2080549060405160e05260e05160e0516001830190610e7491612379565b0360e05190610e8291612432565b604051610100819052610e988160028401612379565b036101005190610ea791612432565b600381015491600160a01b6001900360048301541660058301546006840154946008850154906009860154600a87015460ff1690604051938480600b8b0190610eef91612379565b03610efa9086612432565b600c89015460a052600d89015499600f8a01549660108b01549860118c01549a60128d015460ff169c6013015460805260405160c05260c0515260c0516020016102a0905260c0516102a00160e05190610f53916122a6565b60c051810360c051604001526101005190610f6d916122a6565b9660c05160600160ff821690610f82916122ca565b60c0516080018160081c60ff1690610f99916122d7565b600160a01b600190039060101c1660c05160a0015260c05160c0015260c05160e0015260c051610100015260c051610120015260c0516101400152151560c051610160015260c051810360c0516101800152610ff4916122a6565b9460a05160c0516101a0015260c0516101c0015260ff8116151560c0516101e0015260081c60ff16151560c051610200015260c051610220015260c0516102400152151560c051610260015260805160c051610280015260c051900360c051f35b346101a45760a03660031901126101a4576004356001600160401b0381116101a4576110859036906004016122e4565b906024356001600160401b0381116101a4576110a59036906004016122e4565b919092600860443510156101a4576064356001600160401b0381116101a4576110d2903690600401612311565b9490936084356001600160401b0381116101a4576110f49036906004016122e4565b92906002600154146119e257600260015584156119a957821561196d5761111c881515612625565b6040516020810190868883376111456020828981015f838201520301601f198101835282612432565b51902093845f52600660205260405f205461192857600254975f19891461191457600189016002556020996111b2604051956111818d88612432565b5f87525f36813760405197611195896123fa565b60018d0189528d6111a7368d8f612670565b908a01523691612670565b60408701526111c6604435606088016125af565b600160808701523360a08701525f60c08701525f60e087015260326101008701526111f0816125bb565b916111fe6040519384612432565b8183528b830190368360051b8201116101a45780915b8360051b820183106118d957505050509061124c929161012086015242610140860152426101608601525f6101808601523691612670565b6101a08301525f6101c08301525f6101e08301526102008201525f6102208201525f6102408201525f6102608201525f61028082015260016102a08201525f6102c0820152600185015f526005865260405f209080518255868101518051906001600160401b03821161077c576112d3826112ca6001870154612341565b600187016126cb565b8890601f831160011461186c5761130092915f91836117f45750508160011b915f199060031b1c19161790565b60018301555b60408101518051906001600160401b03821161077c576113368261132d6002870154612341565b600287016126cb565b8890601f83116001146117ff5761136392915f91836117f45750508160011b915f199060031b1c19161790565b60028301555b60038201606082015160088110156109595760ff80198354169116178155608082015160048110156109595761139f90826124fd565b60a0820151815462010000600160b01b03191660109190911b62010000600160b01b031617905560c08101516004830180546001600160a01b0319166001600160a01b039290921691909117905560e08101516005830155610100810151600683015561012081015180516007840191899061141b838561270e565b01915f52885f205f925b82841061170a5750505050610140810151600883015561016081015160098301556114666101808201511515600a84019060ff801983541691151516179055565b600b82016101a08201518051906001600160401b03821161077c576114958261148f8554612341565b856126cb565b8990601f83116001146116a7576114c292915f918361169c5750508160011b915f199060031b1c19161790565b90555b6101c0810151600c8301556101e0810151600d830155600e8201610200820151908151916001600160401b03831161077c57600160401b831161077c5789908254848455808510611681575b5001905f52885f205f5b83811061166657505050506102c060139161156c600f85016115506102208401511515829060ff801983541691151516179055565b610240830151815461ff00191690151560081b61ff0016179055565b610260810151601085015561028081015160118501556115a26102a08201511515601286019060ff801983541691151516179055565b01519101555f52600684526001830160405f2055335f526007845260405f208054600160401b81101561077c576115de91600182018155612453565b81549060031b9060018601821b915f19901b191617905580604051926040845281604085015260608401375f6060828401015261161f8483016044356122ca565b7ffde76925ff7cfdeae138b1f062e0e438b91494d0e5a05d38ea1bcc8704e51dd233926060816001870194601f80199101168101030190a360018055600160405191018152f35b82516001600160a01b031682820155918a019160010161151b565b61169690845f5285845f2091820191016126b5565b8b611511565b015190508b80610b9f565b90601f19831691845f528b5f20925f5b8d8282106116f45750509084600195949392106116dc575b505050811b0190556114c5565b01515f1960f88460031b161c191690558a80806116cf565b60018596829396860151815501950193016116b7565b80519081516001600160401b03811161077c578c926117338261172d8754612341565b876126cb565b8390601f8311600114611780578260019593869593611766935f926117755750508160011b915f199060031b1c19161790565b85555b01920193019290611425565b015190505f80610b9f565b90855f95949552835f20915f5b601f19851681106117d55750926001959286959492869383601f198116106117bd575b505050811b018555611769565b01515f1960f88460031b161c191690555f80806117b0565b9294600183959683948394015181550194019201908f9493929161178d565b015190508a80610b9f565b9190600285015f52895f20905f935b8b601f198516861061185357506001945083601f1981161061183b575b505050811b016002830155611369565b01515f1960f88460031b161c1916905589808061182b565b828201518455948501946001909301929091019061180e565b9190600185015f52895f20905f935b8b601f19851686106118c057506001945083601f198116106118a8575b505050811b016001830155611306565b01515f1960f88460031b161c19169055898080611898565b828201518455948501946001909301929091019061187b565b82356001600160401b0381116101a457820136601f820112156101a4578e91611909839236908481359101612670565b815201920191611214565b634e487b7160e01b5f52601160045260245ffd5b60405162461bcd60e51b815260206004820152601b60248201527f454e53206e616d6520616c7265616479207265676973746572656400000000006044820152606490fd5b60405162461bcd60e51b815260206004820152601460248201527311195cd8dc9a5c1d1a5bdb881c995c5d5a5c995960621b6044820152606490fd5b60405162461bcd60e51b8152602060048201526011602482015270115394c81b985b59481c995c5d5a5c9959607a1b6044820152606490fd5b633ee5aeb560e01b5f5260045ffd5b346101a4576119ff3661227a565b905f52600360205260405f20905f52602052602060405f2054604051908152f35b346101a4575f3660031901126101a4576020600254604051908152f35b346101a45760203660031901126101a4576004355f6102c0604051611a61816123fa565b82815260606020820152606060408201528260608201528260808201528260a08201528260c08201528260e082015282610100820152606061012082015282610140820152826101608201528261018082015260606101a0820152826101c0820152826101e0820152606061020082015282610220820152826102408201528261026082015282610280820152826102a08201520152805f526005602052611b0e60405f2054151561256c565b5f52600560205260405f2060405190611b26826123fa565b80548252604051611b4581611b3e8160018601612379565b0382612432565b6020830152604051611b5e81611b3e8160028601612379565b60408301526003810154611b7860ff8216606085016125af565b60ff8160081c16600481101561095957608084015260101c6001600160a01b0390811660a084015260048201541660c0830152600581015460e08301526006810154610100830152600781018054611bcf816125bb565b91611bdd6040519384612432565b81835260208301905f5260205f205f915b838310611eaf5786601387876101208401526008810154610140840152600981015461016084015260ff600a820154161515610180840152604051611c3a81611b3e81600b8601612379565b6101a0840152600c8101546101c0840152600d8101546101e0840152611c62600e82016125d2565b61020084015260ff600f820154818116151561022086015260081c1615156102408401526010810154610260840152601181015461028084015260ff60128201541615156102a084015201546102c08201526040516020815281516020820152611cf6611ce060208401516102e060408501526103008401906122a6565b6040840151838203601f190160608501526122a6565b611d08606084015160808401906122ca565b611d1a608084015160a08401906122d7565b60018060a01b0360a08401511660c083015260018060a01b0360c08401511660e083015260e0830151610100830152610100830151610120830152610120830151601f1983830301610140840152805180835260208301926020808360051b8301019301935f915b838310611e82578787611dcd8761014084015161016084015261016084015161018084015261018084015115156101a08401526101a0840151601f19848303016101c08501526122a6565b6101c08301516101e08301526101e083015161020083015261020083015190601f1983820301610220840152602080835192838152019201905f5b818110611e63575050506102c08361022084950151151561024085015261024081015115156102608501526102608101516102808501526102808101516102a08501526102a081015115158285015201516102e08301520390f35b82516001600160a01b0316845260209384019390920191600101611e08565b90919293602080611e9f600193601f1986820301875289516122a6565b9701930193019194939290611d82565b600160208192604051611ec681611b3e8189612379565b815201920192019190611bee565b346101a45760203660031901126101a4576004355f52600460205261010060405f208054906001810154906003810154600482015460ff6005840154926007826006870154169501549560405197885260208801528181161515604088015260081c1615156060860152608085015260a0840152151560c083015260e0820152f35b346101a45760203660031901126101a4576001600160a01b03611f77612290565b165f526008602052602060405f2054604051908152f35b346101a45760403660031901126101a457600435602435801515908181036101a4577f07b67051c437b5dd99de36ff246630b7a3ff0f0957906bfa86c26d44cb5e976691611fff602092611fe0612c44565b855f5260058452600a60405f20019060ff801983541691151516179055565b604051908152a2005b346101a45760203660031901126101a4576001600160a01b03612029612290565b165f52600760205260405f20604051806020835491828152019081935f5260205f20905f5b8181106120a65750505081612064910382612432565b604051918291602083019060208452518091526040830191905f5b81811061208d575050500390f35b825184528594506020938401939092019160010161207f565b825484526020909301926001928301920161204e565b346101a4576120ca3661227a565b9060018060a01b035f541633148015612142575b1561210c575f52600360205260405f206201518042045f5260205261210860405f2091825461255f565b9055005b60405162461bcd60e51b815260206004820152600e60248201526d139bdd08185d5d1a1bdc9a5e995960921b6044820152606490fd5b5061012333146120de565b346101a45760207f20d456995c74d5114f87879b10c5214b9c28e11ea422eeb922cc2e755095669f61217e3661227a565b612189939193612c44565b612196606482111561251c565b835f526005825280600660405f200155604051908152a2005b346101a45760203660031901126101a457600435805f5260056020526121e860018060a01b03600360405f20015460101c16331461247c565b6121f38115156124be565b805f526005602052600360405f200161020061ff0019825416179055805f526004602052600660405f200160ff198154169055807fb9f5f3c9c3fed644472f1753bf6622a05e4d68ae1d4e193a7c930c43c51dd0e8602060405160028152a233907ffdfc1be933c359b4faa611f5ff7aeda184db8439ad5da4677a5955a504e345625f80a3005b60409060031901126101a4576004359060243590565b600435906001600160a01b03821682036101a457565b805180835260209291819084018484015e5f828201840152601f01601f1916010190565b9060088210156109595752565b9060048210156109595752565b9181601f840112156101a4578235916001600160401b0383116101a457602083818601950101116101a457565b9181601f840112156101a4578235916001600160401b0383116101a4576020808501948460051b0101116101a457565b90600182811c9216801561236f575b602083101461235b57565b634e487b7160e01b5f52602260045260245ffd5b91607f1691612350565b5f929181549161238883612341565b80835292600181169081156123dd57506001146123a457505050565b5f9081526020812093945091925b8383106123c3575060209250010190565b6001816020929493945483858701015201910191906123b2565b915050602093945060ff929192191683830152151560051b010190565b6102e081019081106001600160401b0382111761077c57604052565b61012081019081106001600160401b0382111761077c57604052565b90601f801991011681019081106001600160401b0382111761077c57604052565b8054821015612468575f5260205f2001905f90565b634e487b7160e01b5f52603260045260245ffd5b1561248357565b60405162461bcd60e51b81526020600482015260136024820152722737ba103a34329030b3b2b73a1037bbb732b960691b6044820152606490fd5b156124c557565b60405162461bcd60e51b815260206004820152601060248201526f125b9d985b1a59081859d95b9d08125160821b6044820152606490fd5b9060048110156109595761ff0082549160081b169061ff001916179055565b1561252357565b60405162461bcd60e51b8152602060048201526014602482015273053636f7265206d757374206265203c3d203130360641b6044820152606490fd5b9190820180921161191457565b1561257357565b60405162461bcd60e51b81526020600482015260146024820152731059d95b9d08191bd95cc81b9bdd08195e1a5cdd60621b6044820152606490fd5b60088210156109595752565b6001600160401b03811161077c5760051b60200190565b90604051918281549182825260208201905f5260205f20925f5b81811061260357505061260192500383612432565b565b84546001600160a01b03168352600194850194879450602090930192016125ec565b1561262c57565b606460405162461bcd60e51b815260206004820152602060248201527f4174206c65617374206f6e65206361706162696c6974792072657175697265646044820152fd5b9291926001600160401b03821161077c5760405191612699601f8201601f191660200184612432565b8294818452818301116101a4578281602093845f960137010152565b8181106126c0575050565b5f81556001016126b5565b9190601f81116126da57505050565b612601925f5260205f20906020601f840160051c83019310612704575b601f0160051c01906126b5565b90915081906126f7565b90600160401b811161077c5781549181815582821061272c57505050565b5f5260205f2091820191015b818110612743575050565b8061275060019254612341565b8061275d575b5001612738565b601f8111831461277257505f81555b5f612756565b61278e90825f5283601f60205f20920160051c820191016126b5565b805f525f602081208183555561276c565b93909291936060936127b28215156124be565b815f52600460205260405f2091604051906127cc82612416565b83548252600184015492602083019384526127e9600286016125d2565b936040840194855260038601549884019560ff8a161515875260ff608086019a60081c1615158a5260048101549060a0860191825260058101549060c08701918252600760ff6006830154161591821560e08a01520154610100880152612c0557603c62015180420604916064815104603c810290808204603c149015171561191457606461287a9251069061255f565b906064815104603c810290808204603c14901517156119145760646128a19251069061255f565b908210918215612bfb575b5050612bb457518111612b5d576128dd915f52600360205260405f206201518042045f5260205260405f205461255f565b905110612b0e578051805196905f805b89811015612aff57600581901b8301602001516001600160a01b0385811691161461291a576001016128ed565b5050505090919293945060015b159081612af3575b50612ab25760405160208101908385833761295d6020828681015f838201520301601f198101835282612432565b5190206040516020810190630737761760e41b825260048152612981602482612432565b519020149081612aa8575b50612a68576129b8602060405183819483830196873781015f838201520301601f198101835282612432565b5190206040516020810190647374616b6560d81b8252600581526129dd602582612432565b519020149081612a5e575b50612a21576001906040516129fe604082612432565b6013815272151c985b9cd858dd1a5bdb88185b1b1bddd959606a1b602082015290565b5f90604051612a31604082612432565b601c81527f4167656e742063616e6e6f7420706572666f726d207374616b696e6700000000602082015290565b905051155f6129e8565b5050505f90604051612a7b604082612432565b602081527f4167656e742063616e6e6f7420706572666f726d20746f6b656e207377617073602082015290565b905051155f61298c565b505050505f90604051612ac6604082612432565b601d81527f526563697069656e74206e6f7420696e20616c6c6f776564206c697374000000602082015290565b9050515115155f61292f565b50929394959697505050612927565b5050505050505f90604051612b24606082612432565b602381527f416d6f756e742065786365656473206461696c79207370656e64696e67206c696020820152621b5a5d60ea1b604082015290565b5050505050505050505f90604051612b76606082612432565b602881527f416d6f756e742065786365656473206d6178696d756d207472616e73616374696020820152671bdb881b1a5b5a5d60c21b604082015290565b505050505050505050505f90604051612bce604082612432565b602081527f4167656e74206973206e6f742061637469766520617420746869732074696d65602082015290565b1190505f806128ac565b5050505050505050505050505f90604051612c21604082612432565b60138152724167656e74206973206e6f742061637469766560681b602082015290565b5f546001600160a01b03163303612c5757565b63118cdaa760e01b5f523360045260245ffdfea264697066735822122013af83eed110f95c979ce1e4e0cd5197e4060254f68b8d76f5bb5d69c340fe6964736f6c634300081e0033","linkReferences":{}},"methodIdentifiers":{"agentAddressToId(address)":"21b218ce","agentPermissions(uint256)":"292dba25","agents(uint256)":"513856c8","canAgentExecuteTransaction(uint256,uint256,address,string)":"e7de2a45","dailySpending(uint256,uint256)":"3911ea71","emergencyBanAgent(uint256)":"a868c261","emergencyPauseAgent(uint256)":"020470ef","ensNameToAgentId(bytes32)":"8d934617","getAgent(uint256)":"2de5aaf7","getAgentByENSName(string)":"5f2709ba","getAgentsByOwner(address)":"1ab6f888","getTotalAgents()":"3731a16f","isAgentActiveAndVerified(uint256)":"8baf6b71","linkAgentToWallet(uint256,uint256)":"7a7425bd","owner()":"8da5cb5b","ownerAgents(address,uint256)":"62febe4f","registerAgent(string,string,uint8,string[],string)":"4570b1b9","renounceOwnership()":"715018a6","setAgentAddress(uint256,address)":"cddd6c63","setAgentPermissions(uint256,uint256,uint256,address[],bool,bool,uint256,uint256)":"bb4ab06c","transferOwnership(address)":"f2fde38b","updateAgent(uint256,string[],string)":"630d2906","updateAgentStatus(uint256,uint8)":"c30c84f2","updateDailySpending(uint256,uint256)":"029ba33b","updateReputationScore(uint256,uint256)":"fdf488f7","updateTrustScore(uint256,uint256)":"02193cc3","verifyAgent(uint256,bool)":"20c7c584"},"id":38}