{"abi":[{"type":"constructor","inputs":[],"stateMutability":"nonpayable"},{"type":"receive","stateMutability":"payable"},{"type":"function","name":"agentRegistry","inputs":[],"outputs":[{"name":"","type":"address","internalType":"address"}],"stateMutability":"view"},{"type":"function","name":"createPlatform","inputs":[{"name":"name","type":"string","internalType":"string"},{"name":"description","type":"string","internalType":"string"},{"name":"platformType","type":"uint8","internalType":"enum Flow.PlatformType"},{"name":"metadata","type":"string","internalType":"string"}],"outputs":[{"name":"","type":"uint256","internalType":"uint256"}],"stateMutability":"nonpayable"},{"type":"function","name":"credentials","inputs":[],"outputs":[{"name":"","type":"address","internalType":"address"}],"stateMutability":"view"},{"type":"function","name":"dao","inputs":[],"outputs":[{"name":"","type":"address","internalType":"address payable"}],"stateMutability":"view"},{"type":"function","name":"deactivatePlatform","inputs":[{"name":"platformId","type":"uint256","internalType":"uint256"}],"outputs":[],"stateMutability":"nonpayable"},{"type":"function","name":"emergencyPause","inputs":[],"outputs":[],"stateMutability":"nonpayable"},{"type":"function","name":"emergencyUpdateContracts","inputs":[{"name":"_agentRegistry","type":"address","internalType":"address"},{"name":"_credentials","type":"address","internalType":"address"},{"name":"_payments","type":"address","internalType":"address"},{"name":"_multiSigWallet","type":"address","internalType":"address payable"},{"name":"_dao","type":"address","internalType":"address payable"}],"outputs":[],"stateMutability":"nonpayable"},{"type":"function","name":"getContractAddresses","inputs":[],"outputs":[{"name":"agentRegistryAddr","type":"address","internalType":"address"},{"name":"credentialsAddr","type":"address","internalType":"address"},{"name":"paymentsAddr","type":"address","internalType":"address"},{"name":"multiSigWalletAddr","type":"address","internalType":"address"},{"name":"daoAddr","type":"address","internalType":"address"}],"stateMutability":"view"},{"type":"function","name":"getPlatform","inputs":[{"name":"platformId","type":"uint256","internalType":"uint256"}],"outputs":[{"name":"","type":"tuple","internalType":"struct Flow.FlowPlatform","components":[{"name":"id","type":"uint256","internalType":"uint256"},{"name":"name","type":"string","internalType":"string"},{"name":"description","type":"string","internalType":"string"},{"name":"owner","type":"address","internalType":"address"},{"name":"isActive","type":"bool","internalType":"bool"},{"name":"createdAt","type":"uint256","internalType":"uint256"},{"name":"lastActivity","type":"uint256","internalType":"uint256"},{"name":"platformType","type":"uint8","internalType":"enum Flow.PlatformType"},{"name":"metadata","type":"string","internalType":"string"}]}],"stateMutability":"view"},{"type":"function","name":"getPlatformByName","inputs":[{"name":"name","type":"string","internalType":"string"}],"outputs":[{"name":"","type":"uint256","internalType":"uint256"}],"stateMutability":"view"},{"type":"function","name":"getPlatformStats","inputs":[{"name":"platformId","type":"uint256","internalType":"uint256"}],"outputs":[{"name":"","type":"tuple","internalType":"struct Flow.PlatformStats","components":[{"name":"totalAgents","type":"uint256","internalType":"uint256"},{"name":"totalCredentials","type":"uint256","internalType":"uint256"},{"name":"totalTransactions","type":"uint256","internalType":"uint256"},{"name":"totalWallets","type":"uint256","internalType":"uint256"},{"name":"totalDAOs","type":"uint256","internalType":"uint256"},{"name":"activeUsers","type":"uint256","internalType":"uint256"},{"name":"totalVolume","type":"uint256","internalType":"uint256"}]}],"stateMutability":"view"},{"type":"function","name":"getTotalPlatforms","inputs":[],"outputs":[{"name":"","type":"uint256","internalType":"uint256"}],"stateMutability":"view"},{"type":"function","name":"getUserPlatformSummary","inputs":[{"name":"user","type":"address","internalType":"address"}],"outputs":[{"name":"totalPlatforms","type":"uint256","internalType":"uint256"},{"name":"activePlatforms","type":"uint256","internalType":"uint256"},{"name":"totalAgents","type":"uint256","internalType":"uint256"},{"name":"totalCredentials","type":"uint256","internalType":"uint256"},{"name":"totalTransactions","type":"uint256","internalType":"uint256"}],"stateMutability":"view"},{"type":"function","name":"getUserPlatforms","inputs":[{"name":"user","type":"address","internalType":"address"}],"outputs":[{"name":"","type":"uint256[]","internalType":"uint256[]"}],"stateMutability":"view"},{"type":"function","name":"initializeContracts","inputs":[{"name":"_agentRegistry","type":"address","internalType":"address"},{"name":"_credentials","type":"address","internalType":"address"},{"name":"_payments","type":"address","internalType":"address"},{"name":"_multiSigWallet","type":"address","internalType":"address payable"},{"name":"_dao","type":"address","internalType":"address payable"}],"outputs":[],"stateMutability":"nonpayable"},{"type":"function","name":"isInitialized","inputs":[],"outputs":[{"name":"","type":"bool","internalType":"bool"}],"stateMutability":"view"},{"type":"function","name":"multiSigWallet","inputs":[],"outputs":[{"name":"","type":"address","internalType":"address payable"}],"stateMutability":"view"},{"type":"function","name":"owner","inputs":[],"outputs":[{"name":"","type":"address","internalType":"address"}],"stateMutability":"view"},{"type":"function","name":"payments","inputs":[],"outputs":[{"name":"","type":"address","internalType":"address"}],"stateMutability":"view"},{"type":"function","name":"platformNameToId","inputs":[{"name":"","type":"string","internalType":"string"}],"outputs":[{"name":"","type":"uint256","internalType":"uint256"}],"stateMutability":"view"},{"type":"function","name":"platformStats","inputs":[{"name":"","type":"uint256","internalType":"uint256"}],"outputs":[{"name":"totalAgents","type":"uint256","internalType":"uint256"},{"name":"totalCredentials","type":"uint256","internalType":"uint256"},{"name":"totalTransactions","type":"uint256","internalType":"uint256"},{"name":"totalWallets","type":"uint256","internalType":"uint256"},{"name":"totalDAOs","type":"uint256","internalType":"uint256"},{"name":"activeUsers","type":"uint256","internalType":"uint256"},{"name":"totalVolume","type":"uint256","internalType":"uint256"}],"stateMutability":"view"},{"type":"function","name":"platforms","inputs":[{"name":"","type":"uint256","internalType":"uint256"}],"outputs":[{"name":"id","type":"uint256","internalType":"uint256"},{"name":"name","type":"string","internalType":"string"},{"name":"description","type":"string","internalType":"string"},{"name":"owner","type":"address","internalType":"address"},{"name":"isActive","type":"bool","internalType":"bool"},{"name":"createdAt","type":"uint256","internalType":"uint256"},{"name":"lastActivity","type":"uint256","internalType":"uint256"},{"name":"platformType","type":"uint8","internalType":"enum Flow.PlatformType"},{"name":"metadata","type":"string","internalType":"string"}],"stateMutability":"view"},{"type":"function","name":"renounceOwnership","inputs":[],"outputs":[],"stateMutability":"nonpayable"},{"type":"function","name":"transferOwnership","inputs":[{"name":"newOwner","type":"address","internalType":"address"}],"outputs":[],"stateMutability":"nonpayable"},{"type":"function","name":"updatePlatform","inputs":[{"name":"platformId","type":"uint256","internalType":"uint256"},{"name":"newDescription","type":"string","internalType":"string"},{"name":"newMetadata","type":"string","internalType":"string"}],"outputs":[],"stateMutability":"nonpayable"},{"type":"function","name":"updatePlatformStats","inputs":[{"name":"platformId","type":"uint256","internalType":"uint256"}],"outputs":[],"stateMutability":"nonpayable"},{"type":"function","name":"userPlatforms","inputs":[{"name":"","type":"address","internalType":"address"},{"name":"","type":"uint256","internalType":"uint256"}],"outputs":[{"name":"","type":"uint256","internalType":"uint256"}],"stateMutability":"view"},{"type":"event","name":"OwnershipTransferred","inputs":[{"name":"previousOwner","type":"address","indexed":true,"internalType":"address"},{"name":"newOwner","type":"address","indexed":true,"internalType":"address"}],"anonymous":false},{"type":"event","name":"PlatformCreated","inputs":[{"name":"platformId","type":"uint256","indexed":true,"internalType":"uint256"},{"name":"name","type":"string","indexed":false,"internalType":"string"},{"name":"owner","type":"address","indexed":true,"internalType":"address"},{"name":"platformType","type":"uint8","indexed":false,"internalType":"enum Flow.PlatformType"}],"anonymous":false},{"type":"event","name":"PlatformDeactivated","inputs":[{"name":"platformId","type":"uint256","indexed":true,"internalType":"uint256"}],"anonymous":false},{"type":"event","name":"PlatformUpdated","inputs":[{"name":"platformId","type":"uint256","indexed":true,"internalType":"uint256"},{"name":"name","type":"string","indexed":false,"internalType":"string"}],"anonymous":false},{"type":"event","name":"StatsUpdated","inputs":[{"name":"platformId","type":"uint256","indexed":true,"internalType":"uint256"},{"name":"stats","type":"tuple","indexed":false,"internalType":"struct Flow.PlatformStats","components":[{"name":"totalAgents","type":"uint256","internalType":"uint256"},{"name":"totalCredentials","type":"uint256","internalType":"uint256"},{"name":"totalTransactions","type":"uint256","internalType":"uint256"},{"name":"totalWallets","type":"uint256","internalType":"uint256"},{"name":"totalDAOs","type":"uint256","internalType":"uint256"},{"name":"activeUsers","type":"uint256","internalType":"uint256"},{"name":"totalVolume","type":"uint256","internalType":"uint256"}]}],"anonymous":false},{"type":"error","name":"OwnableInvalidOwner","inputs":[{"name":"owner","type":"address","internalType":"address"}]},{"type":"error","name":"OwnableUnauthorizedAccount","inputs":[{"name":"account","type":"address","internalType":"address"}]},{"type":"error","name":"ReentrancyGuardReentrantCall","inputs":[]}],"bytecode":{"object":"0x6080806040523460755733156062575f8054336001600160a01b0319821681178355916001600160a01b03909116907f8be0079c531659141344cd1fd0a4f28419497f9722a3daafe3b4186f6b6457e09080a360018055611ed4908161007a8239f35b631e4fbdf760e01b5f525f60045260245ffd5b5f80fdfe608080604052600436101561001c575b50361561001a575f80fd5b005b5f3560e01c9081630c8fcacd14611796575080630d1cfcae1461176e5780630d3c1842146116ba578063302ebb0e1461169d578063392e53cd1461160a5780633a8e35e21461033a5780634162169f146115e25780634b8feb4f146115ba57806351858e27146115a25780635bd22c98146113e95780635e6b79f714610f78578063715018a614610f215780638c4c163714610eb65780638da5cb5b14610e8f578063927df99814610e67578063953874d214610e11578063980bc61e14610d1f5780639a11adc114610c89578063a6d23e1014610c61578063a8e4b248146109d5578063abf534d114610413578063ba02c8e7146103c2578063cc7d58761461035c578063d32488f71461033a578063f2fde38b146102b5578063faa992d3146101ad5763fdbe673f14610151575f61000f565b346101a95760403660031901126101a95761016a6118b3565b6001600160a01b03165f908152600960205260409020805460243591908210156101a95760209161019a91611aef565b90549060031b1c604051908152f35b5f80fd5b346101a95760203660031901126101a9576004355f526008602052602060405f206102b181549160076102a3604051926101f5846101ee8160018501611a6e565b03856119d0565b604051936102118561020a8160028601611a6e565b03866119d0565b60038201549460ff61027560048501549261026760058701549561024d8560068a01541698610246604051809d819301611a6e565b038b6119d0565b6101206040519e8f9e8f90815201526101208d019061193b565b908b820360408d015261193b565b9660018060a01b03811660608b015260a01c161515608089015260a088015260c087015260e086019061195f565b83820361010085015261193b565b0390f35b346101a95760203660031901126101a9576102ce6118b3565b6102d6611e78565b6001600160a01b03168015610327575f80546001600160a01b03198116831782556001600160a01b0316907f8be0079c531659141344cd1fd0a4f28419497f9722a3daafe3b4186f6b6457e09080a3005b631e4fbdf760e01b5f525f60045260245ffd5b346101a95761001a61034b366118c9565b93610357939193611e78565b611b47565b346101a95760203660031901126101a9576004356001600160401b0381116101a957366023820112156101a9576020806103a1819336906024816004013591016119f1565b604051928184925191829101835e8101600a81520301902054604051908152f35b346101a95760203660031901126101a9576004356001600160401b0381116101a95760206103f58192369060040161196c565b91908260405193849283378101600a81520301902054604051908152f35b346101a95760803660031901126101a9576004356001600160401b0381116101a95761044390369060040161196c565b6024356001600160401b0381116101a95761046290369060040161196c565b6044929192359060068210156101a9576064356001600160401b0381116101a95761049190369060040161196c565b909484156109a0576104a4831515611de6565b60405185888237602081878101600a8152030190205461095b576104c9600254611b18565b95866002556104fb604051926104de84611999565b8884526104ec36898c6119f1565b956020850196875236916119f1565b6040830190815260608301338152608084016001815260a085019242845261053a60c087019542875260e08801986105338c8b611d95565b36916119f1565b9761010087019889528b5f52600860205260405f20965187556001870190518051906001600160401b0382116107e95761057e826105788554611a36565b85611e29565b602090601f83116001146108f8576105ad92915f91836108ed575b50508160011b915f199060031b1c19161790565b90555b51805160028701916001600160401b0382116107e9576105d4826105788554611a36565b602090601f831160011461088a5761060292915f918361087f5750508160011b915f199060031b1c19161790565b90555b9051600385018054925160ff60a01b90151560a01b166001600160a01b039092166001600160a81b03199093169290921717905551600483015551600582015590519060068082019083101561086b5760079260ff801983541691161790550190518051906001600160401b0382116107e957610686826105788554611a36565b602090601f8311600114610808576106b492915f91836107fd5750508160011b915f199060031b1c19161790565b90555b8260405183868237602081858101600a81520301902055335f52600960205260405f20805494680100000000000000008610156107e9576107ce8593610726887fde5bfba3bd6798d57f7b337bf512ea7747a2b6bae8fc29b751697e0959d0961f95600160209b018155611aef565b81549060031b9087821b915f19901b1916179055604051610746816119b5565b5f815260068982015f8152604083015f8152606084015f815260808501905f825260a08601925f845260c08701945f86528c5f528f600b905260405f20975188555160018801555160028701555160038601555160048501555160058401555191015585604051936040855281604086015260608501375f606087850101528783019061195f565b3393601f01601f1916810181900360600190a3604051908152f35b634e487b7160e01b5f52604160045260245ffd5b015190508880610599565b90601f19831691845f52815f20925f5b818110610853575090846001959493921061083b575b505050811b0190556106b7565b01515f1960f88460031b161c1916905587808061082e565b92936020600181928786015181550195019301610818565b634e487b7160e01b5f52602160045260245ffd5b015190508f80610599565b90601f19831691845f52815f20925f5b8181106108d557509084600195949392106108bd575b505050811b019055610605565b01515f1960f88460031b161c191690558e80806108b0565b9293602060018192878601518155019501930161089a565b015190505f80610599565b90601f19831691845f52815f20925f5b818110610943575090846001959493921061092b575b505050811b0190556105b0565b01515f1960f88460031b161c191690558f808061091e565b92936020600181928786015181550195019301610908565b60405162461bcd60e51b815260206004820152601b60248201527f506c6174666f726d206e616d6520616c72656164792074616b656e00000000006044820152606490fd5b60405162461bcd60e51b815260206004820152600d60248201526c13985b59481c995c5d5a5c9959609a1b6044820152606490fd5b346101a95760603660031901126101a9576004356024356001600160401b0381116101a957610a0890369060040161196c565b91906044356001600160401b0381116101a957610a2990369060040161196c565b919093835f526008602052610a4e60018060a01b03600360405f200154163314611da1565b835f526008602052610a6560405f20541515611d49565b610a70811515611de6565b835f526008602052600260405f2001916001600160401b0382116107e957610a9c826105788554611a36565b5f90601f8311600114610bfd57610ac992915f9183610bf25750508160011b915f199060031b1c19161790565b90555b815f526008602052600760405f2001906001600160401b0381116107e957610afe81610af88454611a36565b84611e29565b5f601f8211600114610b90578190610b2c9394955f92610b855750508160011b915f199060031b1c19161790565b90555b5f8181526008602090815260409182902042600582015591518181527f477ae7b38694937c05cecfca58ff8ec2c1843e8731a969b556af3036d04295de9290918291610b8091830190600101611a6e565b0390a2005b013590508580610599565b601f19821694835f5260205f20915f5b878110610bda575083600195969710610bc1575b505050811b019055610b2f565b01355f19600384901b60f8161c19169055848080610bb4565b90926020600181928686013581550194019101610ba0565b013590508780610599565b601f19831691845f5260205f20925f5b818110610c495750908460019594939210610c30575b505050811b019055610acc565b01355f19600384901b60f8161c19169055868080610c23565b91936020600181928787013581550195019201610c0d565b346101a9575f3660031901126101a9576005546040516001600160a01b039091168152602090f35b346101a95760203660031901126101a957600435805f526008602052610cbf60018060a01b03600360405f200154163314611da1565b805f526008602052610cd660405f20541515611d49565b5f81815260086020526040812060038101805460ff60a01b19169055426005909101557f2d72c35cba4ecb3b60d031170c9aa5aa6e9496d601bc879d0eb20c390c86a0f89080a2005b346101a95760203660031901126101a9576004355f60c0604051610d42816119b5565b8281528260208201528260408201528260608201528260808201528260a08201520152805f526008602052610d7c60405f20541515611d49565b5f52600b60205260e060405f20604051610d95816119b5565b815491828252600181015460208301908152600282015460408401908152600383015490606085019182526004840154926080860193845260c0600660058701549660a08901978852015496019586526040519687525160208701525160408601525160608501525160808401525160a08301525160c0820152f35b346101a9575f3660031901126101a957600354600454600554600654600754604080516001600160a01b03968716815294861660208601529285169284019290925283166060830152909116608082015260a090f35b346101a9575f3660031901126101a9576004546040516001600160a01b039091168152602090f35b346101a9575f3660031901126101a9575f546040516001600160a01b039091168152602090f35b346101a95760203660031901126101a9576004355f52600b60205260e060405f20805490600181015490600281015460038201546004830154916006600585015494015494604051968752602087015260408601526060850152608084015260a083015260c0820152f35b346101a9575f3660031901126101a957610f39611e78565b5f80546001600160a01b0319811682556001600160a01b03167f8be0079c531659141344cd1fd0a4f28419497f9722a3daafe3b4186f6b6457e08280a3005b346101a95760203660031901126101a957600354600435906001600160a01b031680156113a4576004546001600160a01b0316801561135f576005546001600160a01b031691821561131a576006546001600160a01b031680156112d6576007546001600160a01b031690811561129b57855f52600860205261100060405f20541515611d49565b855f52600b6020526004602060405f209460405192838092633731a16f60e01b82525afa9081156111ba575f91611268575b50835560405163f1470a3560e01b815293602090859060049082905afa9384156111ba575f94611231575b506020600495600185019586556040519687809263b5c604ff60e01b82525afa9485156111ba575f956111fa575b50906020600492600285019687556040519384809263f5f50eb160e01b82525afa9182156111ba575f926111c5575b50906020600492600385019283556040519384809263d033e2cf60e01b82525afa9182156111ba575f92611160575b509160069160e094937f3a640353b07bb6b79f4fcdc11738de641d7de83ed0409578956bcba1c56a7acf9660048401928355885f52600860205242600560405f2001556040519584548752546020870152546040860152546060850152546080840152600581015460a0840152015460c0820152a2005b915092916020823d6020116111b2575b8161117d602093836119d0565b810103126101a957905191929091907f3a640353b07bb6b79f4fcdc11738de641d7de83ed0409578956bcba1c56a7acf6110e9565b3d9150611170565b6040513d5f823e3d90fd5b91506020823d6020116111f2575b816111e0602093836119d0565b810103126101a95790519060206110ba565b3d91506111d3565b919094506020823d602011611229575b81611217602093836119d0565b810103126101a957905193602061108b565b3d915061120a565b9493506020853d602011611260575b8161124d602093836119d0565b810103126101a95793519293602061105d565b3d9150611240565b90506020813d602011611293575b81611283602093836119d0565b810103126101a957516004611032565b3d9150611276565b60405162461bcd60e51b8152602060048201526013602482015272111053c81b9bdd081a5b9a5d1a585b1a5e9959606a1b6044820152606490fd5b606460405162461bcd60e51b815260206004820152602060248201527f4d756c74692d7369672077616c6c6574206e6f7420696e697469616c697a65646044820152fd5b60405162461bcd60e51b815260206004820152601860248201527f5061796d656e7473206e6f7420696e697469616c697a656400000000000000006044820152606490fd5b60405162461bcd60e51b815260206004820152601b60248201527f43726564656e7469616c73206e6f7420696e697469616c697a656400000000006044820152606490fd5b60405162461bcd60e51b815260206004820152601e60248201527f4167656e74207265676973747279206e6f7420696e697469616c697a656400006044820152606490fd5b346101a95760203660031901126101a957600435606061010060405161140e81611999565b5f81528260208201528260408201525f838201525f60808201525f60a08201525f60c08201525f60e08201520152805f52600860205261145360405f20541515611d49565b5f5260086020526040805f206102b1825161146d81611999565b82548152600761158f8551946114918661148a8160018501611a6e565b03876119d0565b602084019586528651936114ac8561020a8160028601611a6e565b878101948552600382015494606082019560018060a01b038116875260ff608084019160a01c161515815261155f60048501549260a0850193845261154c60058701549560c0810196875261152160ff60068a0154169861151160e084019a8b611d95565b8f6102469051809d819301611a6e565b6101008101998a526101208e519e8f9e8f9360208552516020850152519201526101408d019061193b565b90518b8203601f190160608d015261193b565b96516001600160a01b031660808a015251151560a08901525160c08801525160e08701525161010086019061195f565b51838203601f190161012085015261193b565b346101a9575f3660031901126101a95761001a611e78565b346101a9575f3660031901126101a9576006546040516001600160a01b039091168152602090f35b346101a9575f3660031901126101a9576007546040516001600160a01b039091168152602090f35b346101a9575f3660031901126101a9576003546001600160a01b0316151580611689575b80611675575b80611661575b8061164d575b6020906040519015158152f35b506007546001600160a01b03161515611640565b506006546001600160a01b0316151561163a565b506005546001600160a01b03161515611634565b506004546001600160a01b0316151561162e565b346101a9575f3660031901126101a9576020600254604051908152f35b346101a95760203660031901126101a9576001600160a01b036116db6118b3565b165f52600960205260405f20604051806020835491828152019081935f5260205f20905f5b81811061175857505050816117169103826119d0565b604051918291602083019060208452518091526040830191905f5b81811061173f575050500390f35b8251845285945060209384019390920191600101611731565b8254845260209093019260019283019201611700565b346101a9575f3660031901126101a9576003546040516001600160a01b039091168152602090f35b346101a95760203660031901126101a9576001600160a01b036117b76118b3565b165f52600960205260405f208181549182825260208201905f5260205f20925f5b81811061189a5750506117ed925003826119d0565b80515f808080805b86518110156118785760208160051b88010151805f52600860205260ff600360405f20015460a01c1661182c575b506001016117f5565b926001919461184061187192979497611b18565b945f52600b602052600261186861185d60405f20998a5490611b3a565b95858a015490611b3a565b97015490611b3a565b9390611823565b5060a09493916040519485526020850152604084015260608301526080820152f35b84548352600194850194869450602090930192016117d8565b600435906001600160a01b03821682036101a957565b60a09060031901126101a9576004356001600160a01b03811681036101a957906024356001600160a01b03811681036101a957906044356001600160a01b03811681036101a957906064356001600160a01b03811681036101a957906084356001600160a01b03811681036101a95790565b805180835260209291819084018484015e5f828201840152601f01601f1916010190565b90600682101561086b5752565b9181601f840112156101a9578235916001600160401b0383116101a957602083818601950101116101a957565b61012081019081106001600160401b038211176107e957604052565b60e081019081106001600160401b038211176107e957604052565b90601f801991011681019081106001600160401b038211176107e957604052565b9291926001600160401b0382116107e95760405191611a1a601f8201601f1916602001846119d0565b8294818452818301116101a9578281602093845f960137010152565b90600182811c92168015611a64575b6020831014611a5057565b634e487b7160e01b5f52602260045260245ffd5b91607f1691611a45565b5f9291815491611a7d83611a36565b8083529260018116908115611ad25750600114611a9957505050565b5f9081526020812093945091925b838310611ab8575060209250010190565b600181602092949394548385870101520191019190611aa7565b915050602093945060ff929192191683830152151560051b010190565b8054821015611b04575f5260205f2001905f90565b634e487b7160e01b5f52603260045260245ffd5b5f198114611b265760010190565b634e487b7160e01b5f52601160045260245ffd5b91908201809211611b2657565b6001600160a01b0316939291908415611d04576001600160a01b0316908115611cbf576001600160a01b0316918215611c7a576001600160a01b0316928315611c36576001600160a01b0316938415611bfb576001600160601b0360a01b60035416176003556001600160601b0360a01b60045416176004556001600160601b0360a01b60055416176005556001600160601b0360a01b60065416176006556001600160601b0360a01b6007541617600755565b60405162461bcd60e51b8152602060048201526013602482015272496e76616c69642044414f206164647265737360681b6044820152606490fd5b606460405162461bcd60e51b815260206004820152602060248201527f496e76616c6964206d756c74692d7369672077616c6c657420616464726573736044820152fd5b60405162461bcd60e51b815260206004820152601860248201527f496e76616c6964207061796d656e7473206164647265737300000000000000006044820152606490fd5b60405162461bcd60e51b815260206004820152601b60248201527f496e76616c69642063726564656e7469616c73206164647265737300000000006044820152606490fd5b60405162461bcd60e51b815260206004820152601e60248201527f496e76616c6964206167656e74207265676973747279206164647265737300006044820152606490fd5b15611d5057565b60405162461bcd60e51b815260206004820152601760248201527f506c6174666f726d20646f6573206e6f742065786973740000000000000000006044820152606490fd5b600682101561086b5752565b15611da857565b60405162461bcd60e51b81526020600482015260166024820152752737ba103a343290383630ba3337b9369037bbb732b960511b6044820152606490fd5b15611ded57565b60405162461bcd60e51b815260206004820152601460248201527311195cd8dc9a5c1d1a5bdb881c995c5d5a5c995960621b6044820152606490fd5b601f8211611e3657505050565b5f5260205f20906020601f840160051c83019310611e6e575b601f0160051c01905b818110611e63575050565b5f8155600101611e58565b9091508190611e4f565b5f546001600160a01b03163303611e8b57565b63118cdaa760e01b5f523360045260245ffdfea2646970667358221220c10200a7fbe1db3ec2ebed29be0269a38b00a17bd5495d9b9ed0ab3ba2b69f9164736f6c634300081e0033","linkReferences":{}},"methodIdentifiers":{"agentRegistry()":"0d1cfcae","createPlatform(string,string,uint8,string)":"abf534d1","credentials()":"927df998","dao()":"4162169f","deactivatePlatform(uint256)":"9a11adc1","emergencyPause()":"51858e27","emergencyUpdateContracts(address,address,address,address,address)":"d32488f7","getContractAddresses()":"953874d2","getPlatform(uint256)":"5bd22c98","getPlatformByName(string)":"ba02c8e7","getPlatformStats(uint256)":"980bc61e","getTotalPlatforms()":"302ebb0e","getUserPlatformSummary(address)":"0c8fcacd","getUserPlatforms(address)":"0d3c1842","initializeContracts(address,address,address,address,address)":"3a8e35e2","isInitialized()":"392e53cd","multiSigWallet()":"4b8feb4f","owner()":"8da5cb5b","payments()":"a6d23e10","platformNameToId(string)":"cc7d5876","platformStats(uint256)":"8c4c1637","platforms(uint256)":"faa992d3","renounceOwnership()":"715018a6","transferOwnership(address)":"f2fde38b","updatePlatform(uint256,string,string)":"a8e4b248","updatePlatformStats(uint256)":"5e6b79f7","userPlatforms(address,uint256)":"fdbe673f"},"id":36}